{
    "abi": [
        {
            "inputs": [
                {
                    "internalType": "string",
                    "name": "_name",
                    "type": "string"
                },
                {
                    "internalType": "string",
                    "name": "_symbol",
                    "type": "string"
                }
            ],
            "stateMutability": "nonpayable",
            "type": "constructor"
        },
        {
            "anonymous": false,
            "inputs": [
                {
                    "indexed": true,
                    "internalType": "address",
                    "name": "owner",
                    "type": "address"
                },
                {
                    "indexed": true,
                    "internalType": "address",
                    "name": "approved",
                    "type": "address"
                },
                {
                    "indexed": true,
                    "internalType": "uint256",
                    "name": "tokenId",
                    "type": "uint256"
                }
            ],
            "name": "Approval",
            "type": "event"
        },
        {
            "anonymous": false,
            "inputs": [
                {
                    "indexed": true,
                    "internalType": "address",
                    "name": "owner",
                    "type": "address"
                },
                {
                    "indexed": true,
                    "internalType": "address",
                    "name": "operator",
                    "type": "address"
                },
                {
                    "indexed": false,
                    "internalType": "bool",
                    "name": "approved",
                    "type": "bool"
                }
            ],
            "name": "ApprovalForAll",
            "type": "event"
        },
        {
            "anonymous": false,
            "inputs": [
                {
                    "indexed": false,
                    "internalType": "string",
                    "name": "_collection",
                    "type": "string"
                },
                {
                    "indexed": false,
                    "internalType": "enum HasRarity.Rarity",
                    "name": "_rarity",
                    "type": "uint8"
                },
                {
                    "indexed": false,
                    "internalType": "string",
                    "name": "_uri",
                    "type": "string"
                },
                {
                    "indexed": false,
                    "internalType": "uint256",
                    "name": "_id",
                    "type": "uint256"
                },
                {
                    "indexed": false,
                    "internalType": "address",
                    "name": "_to",
                    "type": "address"
                }
            ],
            "name": "CosmicNftMinted",
            "type": "event"
        },
        {
            "anonymous": false,
            "inputs": [
                {
                    "indexed": true,
                    "internalType": "address",
                    "name": "previousOwner",
                    "type": "address"
                },
                {
                    "indexed": true,
                    "internalType": "address",
                    "name": "newOwner",
                    "type": "address"
                }
            ],
            "name": "OwnershipTransferred",
            "type": "event"
        },
        {
            "anonymous": false,
            "inputs": [
                {
                    "indexed": true,
                    "internalType": "address",
                    "name": "from",
                    "type": "address"
                },
                {
                    "indexed": true,
                    "internalType": "address",
                    "name": "to",
                    "type": "address"
                },
                {
                    "indexed": true,
                    "internalType": "uint256",
                    "name": "tokenId",
                    "type": "uint256"
                }
            ],
            "name": "Transfer",
            "type": "event"
        },
        {
            "inputs": [
                {
                    "internalType": "address",
                    "name": "to",
                    "type": "address"
                },
                {
                    "internalType": "uint256",
                    "name": "tokenId",
                    "type": "uint256"
                }
            ],
            "name": "approve",
            "outputs": [],
            "stateMutability": "nonpayable",
            "type": "function"
        },
        {
            "inputs": [
                {
                    "internalType": "address",
                    "name": "owner",
                    "type": "address"
                }
            ],
            "name": "balanceOf",
            "outputs": [
                {
                    "internalType": "uint256",
                    "name": "",
                    "type": "uint256"
                }
            ],
            "stateMutability": "view",
            "type": "function"
        },
        {
            "inputs": [
                {
                    "internalType": "uint256",
                    "name": "",
                    "type": "uint256"
                }
            ],
            "name": "cIndexMapping",
            "outputs": [
                {
                    "internalType": "string",
                    "name": "uri",
                    "type": "string"
                },
                {
                    "internalType": "enum CollectibleNFT.CClasses",
                    "name": "class",
                    "type": "uint8"
                },
                {
                    "internalType": "enum HasRarity.Rarity",
                    "name": "rarity",
                    "type": "uint8"
                },
                {
                    "internalType": "uint256",
                    "name": "index",
                    "type": "uint256"
                }
            ],
            "stateMutability": "view",
            "type": "function"
        },
        {
            "inputs": [
                {
                    "internalType": "uint256",
                    "name": "",
                    "type": "uint256"
                }
            ],
            "name": "cosmicNfts",
            "outputs": [
                {
                    "internalType": "uint256",
                    "name": "",
                    "type": "uint256"
                }
            ],
            "stateMutability": "view",
            "type": "function"
        },
        {
            "inputs": [
                {
                    "internalType": "uint256",
                    "name": "tokenId",
                    "type": "uint256"
                }
            ],
            "name": "getApproved",
            "outputs": [
                {
                    "internalType": "address",
                    "name": "",
                    "type": "address"
                }
            ],
            "stateMutability": "view",
            "type": "function"
        },
        {
            "inputs": [],
            "name": "getMintedAmount",
            "outputs": [
                {
                    "internalType": "uint256",
                    "name": "_size",
                    "type": "uint256"
                }
            ],
            "stateMutability": "view",
            "type": "function"
        },
        {
            "inputs": [
                {
                    "internalType": "address",
                    "name": "owner",
                    "type": "address"
                },
                {
                    "internalType": "address",
                    "name": "operator",
                    "type": "address"
                }
            ],
            "name": "isApprovedForAll",
            "outputs": [
                {
                    "internalType": "bool",
                    "name": "",
                    "type": "bool"
                }
            ],
            "stateMutability": "view",
            "type": "function"
        },
        {
            "inputs": [],
            "name": "listAllNFTs",
            "outputs": [
                {
                    "components": [
                        {
                            "components": [
                                {
                                    "internalType": "string",
                                    "name": "uri",
                                    "type": "string"
                                },
                                {
                                    "internalType": "enum Stage0NFT.S0Classes",
                                    "name": "class",
                                    "type": "uint8"
                                },
                                {
                                    "internalType": "enum HasRarity.Rarity",
                                    "name": "rarity",
                                    "type": "uint8"
                                },
                                {
                                    "internalType": "uint256",
                                    "name": "index",
                                    "type": "uint256"
                                }
                            ],
                            "internalType": "struct Stage0NFT.S0Metadata[]",
                            "name": "s0NFTs",
                            "type": "tuple[]"
                        },
                        {
                            "components": [
                                {
                                    "internalType": "string",
                                    "name": "uri",
                                    "type": "string"
                                },
                                {
                                    "internalType": "enum WithstandKairosNFT.WkClasses",
                                    "name": "class",
                                    "type": "uint8"
                                },
                                {
                                    "internalType": "enum HasRarity.Rarity",
                                    "name": "rarity",
                                    "type": "uint8"
                                },
                                {
                                    "internalType": "uint256",
                                    "name": "index",
                                    "type": "uint256"
                                }
                            ],
                            "internalType": "struct WithstandKairosNFT.WkMetadata[]",
                            "name": "wkNFTs",
                            "type": "tuple[]"
                        },
                        {
                            "components": [
                                {
                                    "internalType": "string",
                                    "name": "uri",
                                    "type": "string"
                                },
                                {
                                    "internalType": "enum CollectibleNFT.CClasses",
                                    "name": "class",
                                    "type": "uint8"
                                },
                                {
                                    "internalType": "enum HasRarity.Rarity",
                                    "name": "rarity",
                                    "type": "uint8"
                                },
                                {
                                    "internalType": "uint256",
                                    "name": "index",
                                    "type": "uint256"
                                }
                            ],
                            "internalType": "struct CollectibleNFT.CMetadata[]",
                            "name": "cNFTs",
                            "type": "tuple[]"
                        }
                    ],
                    "internalType": "struct CosmicNFT.CosmicCollection",
                    "name": "",
                    "type": "tuple"
                }
            ],
            "stateMutability": "view",
            "type": "function"
        },
        {
            "inputs": [],
            "name": "listCNFTs",
            "outputs": [
                {
                    "components": [
                        {
                            "internalType": "string",
                            "name": "uri",
                            "type": "string"
                        },
                        {
                            "internalType": "enum CollectibleNFT.CClasses",
                            "name": "class",
                            "type": "uint8"
                        },
                        {
                            "internalType": "enum HasRarity.Rarity",
                            "name": "rarity",
                            "type": "uint8"
                        },
                        {
                            "internalType": "uint256",
                            "name": "index",
                            "type": "uint256"
                        }
                    ],
                    "internalType": "struct CollectibleNFT.CMetadata[]",
                    "name": "",
                    "type": "tuple[]"
                }
            ],
            "stateMutability": "view",
            "type": "function"
        },
        {
            "inputs": [],
            "name": "listS0NFTs",
            "outputs": [
                {
                    "components": [
                        {
                            "internalType": "string",
                            "name": "uri",
                            "type": "string"
                        },
                        {
                            "internalType": "enum Stage0NFT.S0Classes",
                            "name": "class",
                            "type": "uint8"
                        },
                        {
                            "internalType": "enum HasRarity.Rarity",
                            "name": "rarity",
                            "type": "uint8"
                        },
                        {
                            "internalType": "uint256",
                            "name": "index",
                            "type": "uint256"
                        }
                    ],
                    "internalType": "struct Stage0NFT.S0Metadata[]",
                    "name": "",
                    "type": "tuple[]"
                }
            ],
            "stateMutability": "view",
            "type": "function"
        },
        {
            "inputs": [],
            "name": "listWkNFTs",
            "outputs": [
                {
                    "components": [
                        {
                            "internalType": "string",
                            "name": "uri",
                            "type": "string"
                        },
                        {
                            "internalType": "enum WithstandKairosNFT.WkClasses",
                            "name": "class",
                            "type": "uint8"
                        },
                        {
                            "internalType": "enum HasRarity.Rarity",
                            "name": "rarity",
                            "type": "uint8"
                        },
                        {
                            "internalType": "uint256",
                            "name": "index",
                            "type": "uint256"
                        }
                    ],
                    "internalType": "struct WithstandKairosNFT.WkMetadata[]",
                    "name": "",
                    "type": "tuple[]"
                }
            ],
            "stateMutability": "view",
            "type": "function"
        },
        {
            "inputs": [
                {
                    "internalType": "string",
                    "name": "_uri",
                    "type": "string"
                },
                {
                    "internalType": "uint8",
                    "name": "_class",
                    "type": "uint8"
                },
                {
                    "internalType": "uint8",
                    "name": "_rarity",
                    "type": "uint8"
                }
            ],
            "name": "mintCollectibleNFT",
            "outputs": [],
            "stateMutability": "nonpayable",
            "type": "function"
        },
        {
            "inputs": [
                {
                    "internalType": "string",
                    "name": "_uri",
                    "type": "string"
                },
                {
                    "internalType": "uint8",
                    "name": "_class",
                    "type": "uint8"
                },
                {
                    "internalType": "uint8",
                    "name": "_rarity",
                    "type": "uint8"
                }
            ],
            "name": "mintStage0Nft",
            "outputs": [],
            "stateMutability": "nonpayable",
            "type": "function"
        },
        {
            "inputs": [
                {
                    "internalType": "string",
                    "name": "_uri",
                    "type": "string"
                },
                {
                    "internalType": "uint8",
                    "name": "_class",
                    "type": "uint8"
                },
                {
                    "internalType": "uint8",
                    "name": "_rarity",
                    "type": "uint8"
                }
            ],
            "name": "mintWithstandKairosNFT",
            "outputs": [],
            "stateMutability": "nonpayable",
            "type": "function"
        },
        {
            "inputs": [],
            "name": "name",
            "outputs": [
                {
                    "internalType": "string",
                    "name": "",
                    "type": "string"
                }
            ],
            "stateMutability": "view",
            "type": "function"
        },
        {
            "inputs": [],
            "name": "owner",
            "outputs": [
                {
                    "internalType": "address",
                    "name": "",
                    "type": "address"
                }
            ],
            "stateMutability": "view",
            "type": "function"
        },
        {
            "inputs": [
                {
                    "internalType": "uint256",
                    "name": "tokenId",
                    "type": "uint256"
                }
            ],
            "name": "ownerOf",
            "outputs": [
                {
                    "internalType": "address",
                    "name": "",
                    "type": "address"
                }
            ],
            "stateMutability": "view",
            "type": "function"
        },
        {
            "inputs": [],
            "name": "renounceOwnership",
            "outputs": [],
            "stateMutability": "nonpayable",
            "type": "function"
        },
        {
            "inputs": [
                {
                    "internalType": "uint256",
                    "name": "",
                    "type": "uint256"
                }
            ],
            "name": "s0Ids",
            "outputs": [
                {
                    "internalType": "uint256",
                    "name": "",
                    "type": "uint256"
                }
            ],
            "stateMutability": "view",
            "type": "function"
        },
        {
            "inputs": [
                {
                    "internalType": "uint256",
                    "name": "",
                    "type": "uint256"
                }
            ],
            "name": "s0IndexMapping",
            "outputs": [
                {
                    "internalType": "string",
                    "name": "uri",
                    "type": "string"
                },
                {
                    "internalType": "enum Stage0NFT.S0Classes",
                    "name": "class",
                    "type": "uint8"
                },
                {
                    "internalType": "enum HasRarity.Rarity",
                    "name": "rarity",
                    "type": "uint8"
                },
                {
                    "internalType": "uint256",
                    "name": "index",
                    "type": "uint256"
                }
            ],
            "stateMutability": "view",
            "type": "function"
        },
        {
            "inputs": [
                {
                    "internalType": "address",
                    "name": "from",
                    "type": "address"
                },
                {
                    "internalType": "address",
                    "name": "to",
                    "type": "address"
                },
                {
                    "internalType": "uint256",
                    "name": "tokenId",
                    "type": "uint256"
                }
            ],
            "name": "safeTransferFrom",
            "outputs": [],
            "stateMutability": "nonpayable",
            "type": "function"
        },
        {
            "inputs": [
                {
                    "internalType": "address",
                    "name": "from",
                    "type": "address"
                },
                {
                    "internalType": "address",
                    "name": "to",
                    "type": "address"
                },
                {
                    "internalType": "uint256",
                    "name": "tokenId",
                    "type": "uint256"
                },
                {
                    "internalType": "bytes",
                    "name": "_data",
                    "type": "bytes"
                }
            ],
            "name": "safeTransferFrom",
            "outputs": [],
            "stateMutability": "nonpayable",
            "type": "function"
        },
        {
            "inputs": [
                {
                    "internalType": "address",
                    "name": "operator",
                    "type": "address"
                },
                {
                    "internalType": "bool",
                    "name": "approved",
                    "type": "bool"
                }
            ],
            "name": "setApprovalForAll",
            "outputs": [],
            "stateMutability": "nonpayable",
            "type": "function"
        },
        {
            "inputs": [
                {
                    "internalType": "bytes4",
                    "name": "interfaceId",
                    "type": "bytes4"
                }
            ],
            "name": "supportsInterface",
            "outputs": [
                {
                    "internalType": "bool",
                    "name": "",
                    "type": "bool"
                }
            ],
            "stateMutability": "view",
            "type": "function"
        },
        {
            "inputs": [],
            "name": "symbol",
            "outputs": [
                {
                    "internalType": "string",
                    "name": "",
                    "type": "string"
                }
            ],
            "stateMutability": "view",
            "type": "function"
        },
        {
            "inputs": [
                {
                    "internalType": "uint256",
                    "name": "tokenId",
                    "type": "uint256"
                }
            ],
            "name": "tokenURI",
            "outputs": [
                {
                    "internalType": "string",
                    "name": "",
                    "type": "string"
                }
            ],
            "stateMutability": "view",
            "type": "function"
        },
        {
            "inputs": [
                {
                    "internalType": "address",
                    "name": "from",
                    "type": "address"
                },
                {
                    "internalType": "address",
                    "name": "to",
                    "type": "address"
                },
                {
                    "internalType": "uint256",
                    "name": "tokenId",
                    "type": "uint256"
                }
            ],
            "name": "transferFrom",
            "outputs": [],
            "stateMutability": "nonpayable",
            "type": "function"
        },
        {
            "inputs": [
                {
                    "internalType": "address",
                    "name": "newOwner",
                    "type": "address"
                }
            ],
            "name": "transferOwnership",
            "outputs": [],
            "stateMutability": "nonpayable",
            "type": "function"
        },
        {
            "inputs": [
                {
                    "internalType": "uint256",
                    "name": "",
                    "type": "uint256"
                }
            ],
            "name": "wkIndexMapping",
            "outputs": [
                {
                    "internalType": "string",
                    "name": "uri",
                    "type": "string"
                },
                {
                    "internalType": "enum WithstandKairosNFT.WkClasses",
                    "name": "class",
                    "type": "uint8"
                },
                {
                    "internalType": "enum HasRarity.Rarity",
                    "name": "rarity",
                    "type": "uint8"
                },
                {
                    "internalType": "uint256",
                    "name": "index",
                    "type": "uint256"
                }
            ],
            "stateMutability": "view",
            "type": "function"
        }
    ],
    "bytecode": "60806040523480156200001157600080fd5b5060405162002e3638038062002e36833981016040819052620000349162000251565b8151829082906200004d906000906020850190620000de565b50805162000063906001906020840190620000de565b505050620000806200007a6200008860201b60201c565b6200008c565b5050620002f8565b3390565b600780546001600160a01b038381166001600160a01b0319831681179093556040519116919082907f8be0079c531659141344cd1fd0a4f28419497f9722a3daafe3b4186f6b6457e090600090a35050565b828054620000ec90620002bb565b90600052602060002090601f0160209004810192826200011057600085556200015b565b82601f106200012b57805160ff19168380011785556200015b565b828001600101855582156200015b579182015b828111156200015b5782518255916020019190600101906200013e565b50620001699291506200016d565b5090565b5b808211156200016957600081556001016200016e565b634e487b7160e01b600052604160045260246000fd5b600082601f830112620001ac57600080fd5b81516001600160401b0380821115620001c957620001c962000184565b604051601f8301601f19908116603f01168101908282118183101715620001f457620001f462000184565b816040528381526020925086838588010111156200021157600080fd5b600091505b8382101562000235578582018301518183018401529082019062000216565b83821115620002475760008385830101525b9695505050505050565b600080604083850312156200026557600080fd5b82516001600160401b03808211156200027d57600080fd5b6200028b868387016200019a565b93506020850151915080821115620002a257600080fd5b50620002b1858286016200019a565b9150509250929050565b600181811c90821680620002d057607f821691505b60208210811415620002f257634e487b7160e01b600052602260045260246000fd5b50919050565b612b2e80620003086000396000f3fe608060405234801561001057600080fd5b50600436106101ce5760003560e01c806378bc043511610104578063b86e86b2116100a2578063e8da064911610071578063e8da0649146103f0578063e985e9c514610413578063f2fde38b1461044f578063f61b2e1a1461046257600080fd5b8063b86e86b2146103a4578063b88d4fde146103b7578063c87b56dd146103ca578063d1a11769146103dd57600080fd5b806388ab4168116100de57806388ab4168146103705780638da5cb5b1461037857806395d89b4114610389578063a22cb4651461039157600080fd5b806378bc04351461032557806381ebc2c814610338578063862ba7e71461034d57600080fd5b806342842e0e116101715780636352211e1161014b5780636352211e146102d657806370a08231146102e9578063715018a61461030a57806375f185331461031257600080fd5b806342842e0e1461029957806344d5fe52146102ac5780635c274094146102c157600080fd5b806306fdde03116101ad57806306fdde0314610233578063081812fc14610248578063095ea7b31461027357806323b872dd1461028657600080fd5b806275c031146101d357806301ffc9a7146101e857806304a140e514610210575b600080fd5b6101e66101e136600461224a565b610477565b005b6101fb6101f63660046122d2565b6104fd565b60405190151581526020015b60405180910390f35b61022361021e3660046122ef565b61054f565b604051610207949392919061239a565b61023b610606565b60405161020791906123d7565b61025b6102563660046122ef565b610698565b6040516001600160a01b039091168152602001610207565b6101e6610281366004612401565b610720565b6101e661029436600461242b565b610836565b6101e66102a736600461242b565b610867565b6102b4610882565b60405161020791906124f6565b6102c9610891565b604051610207919061258b565b61025b6102e43660046122ef565b61089b565b6102fc6102f736600461259e565b610912565b604051908152602001610207565b6101e6610999565b6102fc6103203660046122ef565b6109cf565b6102fc6103333660046122ef565b6109f0565b610340610a00565b604051610207919061264b565b61036061035b3660046122ef565b610a5b565b60405161020794939291906126ac565b600e546102fc565b6007546001600160a01b031661025b565b61023b610a76565b6101e661039f3660046126d9565b610a85565b6101e66103b236600461224a565b610b4a565b6101e66103c5366004612715565b610b8e565b61023b6103d83660046122ef565b610bc6565b6101e66103eb36600461224a565b610d3d565b6104036103fe3660046122ef565b610d81565b6040516102079493929190612791565b6101fb6104213660046127b3565b6001600160a01b03918216600090815260056020908152604080832093909416825291909152205460ff1690565b6101e661045d36600461259e565b610d9c565b61046a610e37565b60405161020791906127e6565b6007546001600160a01b031633146104aa5760405162461bcd60e51b81526004016104a1906127f9565b60405180910390fd5b6104b383610e41565b6104c4838383600e80549050610e5c565b5050600e80546001810182556000919091527fbb7b4a454dc3493923482f07822329ed19e8244eff582cc204f8554c3620c3fd81015550565b60006001600160e01b031982166380ac58cd60e01b148061052e57506001600160e01b03198216635b5e139f60e01b145b8061054957506301ffc9a760e01b6001600160e01b03198316145b92915050565b600a6020526000908152604090208054819061056a9061282e565b80601f01602080910402602001604051908101604052809291908181526020018280546105969061282e565b80156105e35780601f106105b8576101008083540402835291602001916105e3565b820191906000526020600020905b8154815290600101906020018083116105c657829003601f168201915b505050506001830154600290930154919260ff8082169361010090920416915084565b6060600080546106159061282e565b80601f01602080910402602001604051908101604052809291908181526020018280546106419061282e565b801561068e5780601f106106635761010080835404028352916020019161068e565b820191906000526020600020905b81548152906001019060200180831161067157829003601f168201915b5050505050905090565b60006106a382610fcf565b6107045760405162461bcd60e51b815260206004820152602c60248201527f4552433732313a20617070726f76656420717565727920666f72206e6f6e657860448201526b34b9ba32b73a103a37b5b2b760a11b60648201526084016104a1565b506000908152600460205260409020546001600160a01b031690565b600061072b8261089b565b9050806001600160a01b0316836001600160a01b031614156107995760405162461bcd60e51b815260206004820152602160248201527f4552433732313a20617070726f76616c20746f2063757272656e74206f776e656044820152603960f91b60648201526084016104a1565b336001600160a01b03821614806107b557506107b58133610421565b6108275760405162461bcd60e51b815260206004820152603860248201527f4552433732313a20617070726f76652063616c6c6572206973206e6f74206f7760448201527f6e6572206e6f7220617070726f76656420666f7220616c6c000000000000000060648201526084016104a1565b6108318383610fec565b505050565b610840338261105a565b61085c5760405162461bcd60e51b81526004016104a190612863565b610831838383611140565b61083183838360405180602001604052806000815250610b8e565b606061088c6112e0565b905090565b606061088c6114c3565b6000818152600260205260408120546001600160a01b0316806105495760405162461bcd60e51b815260206004820152602960248201527f4552433732313a206f776e657220717565727920666f72206e6f6e657869737460448201526832b73a103a37b5b2b760b91b60648201526084016104a1565b60006001600160a01b03821661097d5760405162461bcd60e51b815260206004820152602a60248201527f4552433732313a2062616c616e636520717565727920666f7220746865207a65604482015269726f206164647265737360b01b60648201526084016104a1565b506001600160a01b031660009081526003602052604090205490565b6007546001600160a01b031633146109c35760405162461bcd60e51b81526004016104a1906127f9565b6109cd60006116a0565b565b600981815481106109df57600080fd5b600091825260209091200154905081565b600e81815481106109df57600080fd5b610a2460405180606001604052806060815260200160608152602001606081525090565b60006040518060600160405280610a396112e0565b8152602001610a466116f2565b8152602001610a536114c3565b905292915050565b60086020526000908152604090208054819061056a9061282e565b6060600180546106159061282e565b6001600160a01b038216331415610ade5760405162461bcd60e51b815260206004820152601960248201527f4552433732313a20617070726f766520746f2063616c6c65720000000000000060448201526064016104a1565b3360008181526005602090815260408083206001600160a01b03871680855290835292819020805460ff191686151590811790915590519081529192917f17307eab39ab6107e8899845ad3d59bd9653f200f220920489ca2b5937696c31910160405180910390a35050565b6007546001600160a01b03163314610b745760405162461bcd60e51b81526004016104a1906127f9565b610b7d83610e41565b6104c4838383600e805490506118cf565b610b98338361105a565b610bb45760405162461bcd60e51b81526004016104a190612863565b610bc084848484611a42565b50505050565b6060610bd182610fcf565b610c375760405162461bcd60e51b815260206004820152603160248201527f45524337323155524953746f726167653a2055524920717565727920666f72206044820152703737b732bc34b9ba32b73a103a37b5b2b760791b60648201526084016104a1565b60008281526006602052604081208054610c509061282e565b80601f0160208091040260200160405190810160405280929190818152602001828054610c7c9061282e565b8015610cc95780601f10610c9e57610100808354040283529160200191610cc9565b820191906000526020600020905b815481529060010190602001808311610cac57829003601f168201915b505050505090506000610ce760408051602081019091526000815290565b9050805160001415610cfa575092915050565b815115610d2c578082604051602001610d149291906128b4565b60405160208183030381529060405292505050919050565b610d3584611a75565b949350505050565b6007546001600160a01b03163314610d675760405162461bcd60e51b81526004016104a1906127f9565b610d7083610e41565b6104c4838383600e80549050611b4d565b600c6020526000908152604090208054819061056a9061282e565b6007546001600160a01b03163314610dc65760405162461bcd60e51b81526004016104a1906127f9565b6001600160a01b038116610e2b5760405162461bcd60e51b815260206004820152602660248201527f4f776e61626c653a206e6577206f776e657220697320746865207a65726f206160448201526564647265737360d01b60648201526084016104a1565b610e34816116a0565b50565b606061088c6116f2565b600e54610e4f903390611cc0565b600e54610e349082611cde565b60008360ff166004811115610e7357610e73612360565b905060008360ff166004811115610e8c57610e8c612360565b90506040518060800160405280878152602001836004811115610eb157610eb1612360565b8152602001826004811115610ec857610ec8612360565b8152602090810185905260008581526008825260409020825180519192610ef4928492909101906120cb565b50602082015160018083018054909160ff1990911690836004811115610f1c57610f1c612360565b0217905550604082015160018201805461ff001916610100836004811115610f4657610f46612360565b0217905550606082015181600201559050507f83e6504b1067f0a10afb7c6b97b07f6ebf09aade099003e151dd39c95c848c5381878533604051610f8d94939291906128e3565b60405180910390a15050600980546001810182556000919091527f6e1540171b6c0c960b71a7020d9f60077f6af931a8bbf590da0223dacf75c7af0155505050565b6000908152600260205260409020546001600160a01b0316151590565b600081815260046020526040902080546001600160a01b0319166001600160a01b03841690811790915581906110218261089b565b6001600160a01b03167f8c5be1e5ebec7d5bd14f71427d1e84f3dd0314c0f7b2291e5b200ac8c7c3b92560405160405180910390a45050565b600061106582610fcf565b6110c65760405162461bcd60e51b815260206004820152602c60248201527f4552433732313a206f70657261746f7220717565727920666f72206e6f6e657860448201526b34b9ba32b73a103a37b5b2b760a11b60648201526084016104a1565b60006110d18361089b565b9050806001600160a01b0316846001600160a01b0316148061110c5750836001600160a01b031661110184610698565b6001600160a01b0316145b80610d3557506001600160a01b0380821660009081526005602090815260408083209388168352929052205460ff16610d35565b826001600160a01b03166111538261089b565b6001600160a01b0316146111bb5760405162461bcd60e51b815260206004820152602960248201527f4552433732313a207472616e73666572206f6620746f6b656e2074686174206960448201526839903737ba1037bbb760b91b60648201526084016104a1565b6001600160a01b03821661121d5760405162461bcd60e51b8152602060048201526024808201527f4552433732313a207472616e7366657220746f20746865207a65726f206164646044820152637265737360e01b60648201526084016104a1565b611228600082610fec565b6001600160a01b0383166000908152600360205260408120805460019290611251908490612959565b90915550506001600160a01b038216600090815260036020526040812080546001929061127f908490612970565b909155505060008181526002602052604080822080546001600160a01b0319166001600160a01b0386811691821790925591518493918716917fddf252ad1be2c89b69c2b068fc378daa952ba7f163c4a11628f55a4df523b3ef91a4505050565b60095460609060009067ffffffffffffffff811115611301576113016121a8565b60405190808252806020026020018201604052801561133a57816020015b61132761214f565b81526020019060019003908161131f5790505b50905060005b6009548110156114bd57600860006009838154811061136157611361612988565b906000526020600020015481526020019081526020016000206040518060800160405290816000820180546113959061282e565b80601f01602080910402602001604051908101604052809291908181526020018280546113c19061282e565b801561140e5780601f106113e35761010080835404028352916020019161140e565b820191906000526020600020905b8154815290600101906020018083116113f157829003601f168201915b5050509183525050600182015460209091019060ff16600481111561143557611435612360565b600481111561144657611446612360565b81526020016001820160019054906101000a900460ff16600481111561146e5761146e612360565b600481111561147f5761147f612360565b815260200160028201548152505082828151811061149f5761149f612988565b602002602001018190525080806114b59061299e565b915050611340565b50919050565b600b5460609060009067ffffffffffffffff8111156114e4576114e46121a8565b60405190808252806020026020018201604052801561151d57816020015b61150a612179565b8152602001906001900390816115025790505b50905060005b600b548110156114bd57600a6000600b838154811061154457611544612988565b906000526020600020015481526020019081526020016000206040518060800160405290816000820180546115789061282e565b80601f01602080910402602001604051908101604052809291908181526020018280546115a49061282e565b80156115f15780601f106115c6576101008083540402835291602001916115f1565b820191906000526020600020905b8154815290600101906020018083116115d457829003601f168201915b5050509183525050600182015460209091019060ff16600281111561161857611618612360565b600281111561162957611629612360565b81526020016001820160019054906101000a900460ff16600481111561165157611651612360565b600481111561166257611662612360565b815260200160028201548152505082828151811061168257611682612988565b602002602001018190525080806116989061299e565b915050611523565b600780546001600160a01b038381166001600160a01b0319831681179093556040519116919082907f8be0079c531659141344cd1fd0a4f28419497f9722a3daafe3b4186f6b6457e090600090a35050565b600d5460609060009067ffffffffffffffff811115611713576117136121a8565b60405190808252806020026020018201604052801561174c57816020015b611739612179565b8152602001906001900390816117315790505b50905060005b600d548110156114bd57600c6000600d838154811061177357611773612988565b906000526020600020015481526020019081526020016000206040518060800160405290816000820180546117a79061282e565b80601f01602080910402602001604051908101604052809291908181526020018280546117d39061282e565b80156118205780601f106117f557610100808354040283529160200191611820565b820191906000526020600020905b81548152906001019060200180831161180357829003601f168201915b5050509183525050600182015460209091019060ff16600681111561184757611847612360565b600681111561185857611858612360565b81526020016001820160019054906101000a900460ff16600481111561188057611880612360565b600481111561189157611891612360565b81526020016002820154815250508282815181106118b1576118b1612988565b602002602001018190525080806118c79061299e565b915050611752565b60008360ff1660028111156118e6576118e6612360565b905060008360ff1660048111156118ff576118ff612360565b9050604051806080016040528087815260200183600281111561192457611924612360565b815260200182600481111561193b5761193b612360565b815260209081018590526000858152600a825260409020825180519192611967928492909101906120cb565b50602082015160018083018054909160ff199091169083600281111561198f5761198f612360565b0217905550604082015160018201805461ff0019166101008360048111156119b9576119b9612360565b0217905550606082015181600201559050507f83e6504b1067f0a10afb7c6b97b07f6ebf09aade099003e151dd39c95c848c5381878533604051611a0094939291906129b9565b60405180910390a15050600b80546001810182556000919091527f0175b7a638427703f0dbe7bb9bbf987a2551717b34e79f33b5b1008d1fa01db90155505050565b611a4d848484611140565b611a5984848484611d69565b610bc05760405162461bcd60e51b81526004016104a1906129e1565b6060611a8082610fcf565b611ae45760405162461bcd60e51b815260206004820152602f60248201527f4552433732314d657461646174613a2055524920717565727920666f72206e6f60448201526e3732bc34b9ba32b73a103a37b5b2b760891b60648201526084016104a1565b6000611afb60408051602081019091526000815290565b90506000815111611b1b5760405180602001604052806000815250611b46565b80611b2584611e67565b604051602001611b369291906128b4565b6040516020818303038152906040525b9392505050565b60008360ff166006811115611b6457611b64612360565b905060008360ff166004811115611b7d57611b7d612360565b90506040518060800160405280878152602001836006811115611ba257611ba2612360565b8152602001826004811115611bb957611bb9612360565b815260209081018590526000858152600c825260409020825180519192611be5928492909101906120cb565b50602082015160018083018054909160ff1990911690836006811115611c0d57611c0d612360565b0217905550604082015160018201805461ff001916610100836004811115611c3757611c37612360565b0217905550606082015181600201559050507f83e6504b1067f0a10afb7c6b97b07f6ebf09aade099003e151dd39c95c848c5381878533604051611c7e9493929190612a33565b60405180910390a15050600d80546001810182556000919091527fd7b6990105719101dabeb77144f2a3385c8033acd3af97e9423a695e81ad1eb50155505050565b611cda828260405180602001604052806000815250611f65565b5050565b611ce782610fcf565b611d4a5760405162461bcd60e51b815260206004820152602e60248201527f45524337323155524953746f726167653a2055524920736574206f66206e6f6e60448201526d32bc34b9ba32b73a103a37b5b2b760911b60648201526084016104a1565b60008281526006602090815260409091208251610831928401906120cb565b60006001600160a01b0384163b15611e5c57604051630a85bd0160e11b81526001600160a01b0385169063150b7a0290611dad903390899088908890600401612a60565b6020604051808303816000875af1925050508015611de8575060408051601f3d908101601f19168201909252611de591810190612a9d565b60015b611e42573d808015611e16576040519150601f19603f3d011682016040523d82523d6000602084013e611e1b565b606091505b508051611e3a5760405162461bcd60e51b81526004016104a1906129e1565b805181602001fd5b6001600160e01b031916630a85bd0160e11b149050610d35565b506001949350505050565b606081611e8b5750506040805180820190915260018152600360fc1b602082015290565b8160005b8115611eb55780611e9f8161299e565b9150611eae9050600a83612ad0565b9150611e8f565b60008167ffffffffffffffff811115611ed057611ed06121a8565b6040519080825280601f01601f191660200182016040528015611efa576020820181803683370190505b5090505b8415610d3557611f0f600183612959565b9150611f1c600a86612ae4565b611f27906030612970565b60f81b818381518110611f3c57611f3c612988565b60200101906001600160f81b031916908160001a905350611f5e600a86612ad0565b9450611efe565b611f6f8383611f98565b611f7c6000848484611d69565b6108315760405162461bcd60e51b81526004016104a1906129e1565b6001600160a01b038216611fee5760405162461bcd60e51b815260206004820181905260248201527f4552433732313a206d696e7420746f20746865207a65726f206164647265737360448201526064016104a1565b611ff781610fcf565b156120445760405162461bcd60e51b815260206004820152601c60248201527f4552433732313a20746f6b656e20616c7265616479206d696e7465640000000060448201526064016104a1565b6001600160a01b038216600090815260036020526040812080546001929061206d908490612970565b909155505060008181526002602052604080822080546001600160a01b0319166001600160a01b03861690811790915590518392907fddf252ad1be2c89b69c2b068fc378daa952ba7f163c4a11628f55a4df523b3ef908290a45050565b8280546120d79061282e565b90600052602060002090601f0160209004810192826120f9576000855561213f565b82601f1061211257805160ff191683800117855561213f565b8280016001018555821561213f579182015b8281111561213f578251825591602001919060010190612124565b5061214b929150612193565b5090565b6040805160808101909152606081526020810160005b815260200160008152602001600081525090565b604080516080810190915260608152602081016000612165565b5b8082111561214b5760008155600101612194565b634e487b7160e01b600052604160045260246000fd5b600067ffffffffffffffff808411156121d9576121d96121a8565b604051601f8501601f19908116603f01168101908282118183101715612201576122016121a8565b8160405280935085815286868601111561221a57600080fd5b858560208301376000602087830101525050509392505050565b803560ff8116811461224557600080fd5b919050565b60008060006060848603121561225f57600080fd5b833567ffffffffffffffff81111561227657600080fd5b8401601f8101861361228757600080fd5b612296868235602084016121be565b9350506122a560208501612234565b91506122b360408501612234565b90509250925092565b6001600160e01b031981168114610e3457600080fd5b6000602082840312156122e457600080fd5b8135611b46816122bc565b60006020828403121561230157600080fd5b5035919050565b60005b8381101561232357818101518382015260200161230b565b83811115610bc05750506000910152565b6000815180845261234c816020860160208601612308565b601f01601f19169290920160200192915050565b634e487b7160e01b600052602160045260246000fd5b6003811061238657612386612360565b9052565b60058110610e3457610e34612360565b6080815260006123ad6080830187612334565b90506123bc6020830186612376565b6123c58461238a565b60408201939093526060015292915050565b602081526000611b466020830184612334565b80356001600160a01b038116811461224557600080fd5b6000806040838503121561241457600080fd5b61241d836123ea565b946020939093013593505050565b60008060006060848603121561244057600080fd5b612449846123ea565b9250612457602085016123ea565b9150604084013590509250925092565b600081518084526020808501808196508360051b8101915082860160005b858110156124e95782840389528151608081518187526124a782880182612334565b915050868201516124b78161238a565b868801526040828101516124ca8161238a565b9087015260609182015191909501529784019790840190600101612485565b5091979650505050505050565b602081526000611b466020830184612467565b600081518084526020808501808196508360051b8101915082860160005b858110156124e957828403895281516080815181875261254982880182612334565b9150508682015161255c88880182612376565b5060408083015161256c8161238a565b9087015260609182015191909501529784019790840190600101612527565b602081526000611b466020830184612509565b6000602082840312156125b057600080fd5b611b46826123ea565b6007811061238657612386612360565b600081518084526020808501808196508360051b8101915082860160005b858110156124e957828403895281516080815181875261260982880182612334565b9150508682015161261c888801826125b9565b5060408083015161262c8161238a565b90870152606091820151919095015297840197908401906001016125e7565b6020815260008251606060208401526126676080840182612467565b90506020840151601f198085840301604086015261268583836125c9565b92506040860151915080858403016060860152506126a38282612509565b95945050505050565b6080815260006126bf6080830187612334565b90506126ca8561238a565b8460208301526123c58461238a565b600080604083850312156126ec57600080fd5b6126f5836123ea565b91506020830135801515811461270a57600080fd5b809150509250929050565b6000806000806080858703121561272b57600080fd5b612734856123ea565b9350612742602086016123ea565b925060408501359150606085013567ffffffffffffffff81111561276557600080fd5b8501601f8101871361277657600080fd5b612785878235602084016121be565b91505092959194509250565b6080815260006127a46080830187612334565b90506123bc60208301866125b9565b600080604083850312156127c657600080fd5b6127cf836123ea565b91506127dd602084016123ea565b90509250929050565b602081526000611b4660208301846125c9565b6020808252818101527f4f776e61626c653a2063616c6c6572206973206e6f7420746865206f776e6572604082015260600190565b600181811c9082168061284257607f821691505b602082108114156114bd57634e487b7160e01b600052602260045260246000fd5b60208082526031908201527f4552433732313a207472616e736665722063616c6c6572206973206e6f74206f6040820152701ddb995c881b9bdc88185c1c1c9bdd9959607a1b606082015260800190565b600083516128c6818460208801612308565b8351908301906128da818360208801612308565b01949350505050565b60a08152600660a08201526505374616765360d41b60c08201526129068561238a565b84602082015260e06040820152600061292260e0830186612334565b6060830194909452506001600160a01b039190911660809091015292915050565b634e487b7160e01b600052601160045260246000fd5b60008282101561296b5761296b612943565b500390565b6000821982111561298357612983612943565b500190565b634e487b7160e01b600052603260045260246000fd5b60006000198214156129b2576129b2612943565b5060010190565b60a08152600b60a08201526a436f6c6c65637469626c6560a81b60c08201526129068561238a565b60208082526032908201527f4552433732313a207472616e7366657220746f206e6f6e20455243373231526560408201527131b2b4bb32b91034b6b83632b6b2b73a32b960711b606082015260800190565b60a08152601060a08201526f576974687374616e64204b6169726f7360801b60c08201526129068561238a565b6001600160a01b0385811682528416602082015260408101839052608060608201819052600090612a9390830184612334565b9695505050505050565b600060208284031215612aaf57600080fd5b8151611b46816122bc565b634e487b7160e01b600052601260045260246000fd5b600082612adf57612adf612aba565b500490565b600082612af357612af3612aba565b50069056fea264697066735822122048bb91b01cc39868c7d94e72f49c42381374a03c99ce42e5c2f3331f26edaad964736f6c634300080a0033",
    "bytecodeSha1": "a6bcdd39cb981be561e444c5befed005e579ff8a",
    "compiler": {
        "evm_version": "istanbul",
        "optimizer": {
            "enabled": true,
            "runs": 200
        },
        "version": "0.8.10+commit.fc410830"
    },
    "contractName": "CosmicNFT",
    "language": "Solidity",
    "natspec": {
        "kind": "dev",
        "methods": {
            "approve(address,uint256)": {
                "details": "See {IERC721-approve}."
            },
            "balanceOf(address)": {
                "details": "See {IERC721-balanceOf}."
            },
            "getApproved(uint256)": {
                "details": "See {IERC721-getApproved}."
            },
            "isApprovedForAll(address,address)": {
                "details": "See {IERC721-isApprovedForAll}."
            },
            "name()": {
                "details": "See {IERC721Metadata-name}."
            },
            "owner()": {
                "details": "Returns the address of the current owner."
            },
            "ownerOf(uint256)": {
                "details": "See {IERC721-ownerOf}."
            },
            "renounceOwnership()": {
                "details": "Leaves the contract without owner. It will not be possible to call `onlyOwner` functions anymore. Can only be called by the current owner. NOTE: Renouncing ownership will leave the contract without an owner, thereby removing any functionality that is only available to the owner."
            },
            "safeTransferFrom(address,address,uint256)": {
                "details": "See {IERC721-safeTransferFrom}."
            },
            "safeTransferFrom(address,address,uint256,bytes)": {
                "details": "See {IERC721-safeTransferFrom}."
            },
            "setApprovalForAll(address,bool)": {
                "details": "See {IERC721-setApprovalForAll}."
            },
            "supportsInterface(bytes4)": {
                "details": "See {IERC165-supportsInterface}."
            },
            "symbol()": {
                "details": "See {IERC721Metadata-symbol}."
            },
            "tokenURI(uint256)": {
                "details": "See {IERC721Metadata-tokenURI}."
            },
            "transferFrom(address,address,uint256)": {
                "details": "See {IERC721-transferFrom}."
            },
            "transferOwnership(address)": {
                "details": "Transfers ownership of the contract to a new account (`newOwner`). Can only be called by the current owner."
            }
        },
        "version": 1
    },
    "opcodes": "PUSH1 0x80 PUSH1 0x40 MSTORE CALLVALUE DUP1 ISZERO PUSH2 0x10 JUMPI PUSH1 0x0 DUP1 REVERT JUMPDEST POP PUSH1 0x4 CALLDATASIZE LT PUSH2 0x1CE JUMPI PUSH1 0x0 CALLDATALOAD PUSH1 0xE0 SHR DUP1 PUSH4 0x78BC0435 GT PUSH2 0x104 JUMPI DUP1 PUSH4 0xB86E86B2 GT PUSH2 0xA2 JUMPI DUP1 PUSH4 0xE8DA0649 GT PUSH2 0x71 JUMPI DUP1 PUSH4 0xE8DA0649 EQ PUSH2 0x3F0 JUMPI DUP1 PUSH4 0xE985E9C5 EQ PUSH2 0x413 JUMPI DUP1 PUSH4 0xF2FDE38B EQ PUSH2 0x44F JUMPI DUP1 PUSH4 0xF61B2E1A EQ PUSH2 0x462 JUMPI PUSH1 0x0 DUP1 REVERT JUMPDEST DUP1 PUSH4 0xB86E86B2 EQ PUSH2 0x3A4 JUMPI DUP1 PUSH4 0xB88D4FDE EQ PUSH2 0x3B7 JUMPI DUP1 PUSH4 0xC87B56DD EQ PUSH2 0x3CA JUMPI DUP1 PUSH4 0xD1A11769 EQ PUSH2 0x3DD JUMPI PUSH1 0x0 DUP1 REVERT JUMPDEST DUP1 PUSH4 0x88AB4168 GT PUSH2 0xDE JUMPI DUP1 PUSH4 0x88AB4168 EQ PUSH2 0x370 JUMPI DUP1 PUSH4 0x8DA5CB5B EQ PUSH2 0x378 JUMPI DUP1 PUSH4 0x95D89B41 EQ PUSH2 0x389 JUMPI DUP1 PUSH4 0xA22CB465 EQ PUSH2 0x391 JUMPI PUSH1 0x0 DUP1 REVERT JUMPDEST DUP1 PUSH4 0x78BC0435 EQ PUSH2 0x325 JUMPI DUP1 PUSH4 0x81EBC2C8 EQ PUSH2 0x338 JUMPI DUP1 PUSH4 0x862BA7E7 EQ PUSH2 0x34D JUMPI PUSH1 0x0 DUP1 REVERT JUMPDEST DUP1 PUSH4 0x42842E0E GT PUSH2 0x171 JUMPI DUP1 PUSH4 0x6352211E GT PUSH2 0x14B JUMPI DUP1 PUSH4 0x6352211E EQ PUSH2 0x2D6 JUMPI DUP1 PUSH4 0x70A08231 EQ PUSH2 0x2E9 JUMPI DUP1 PUSH4 0x715018A6 EQ PUSH2 0x30A JUMPI DUP1 PUSH4 0x75F18533 EQ PUSH2 0x312 JUMPI PUSH1 0x0 DUP1 REVERT JUMPDEST DUP1 PUSH4 0x42842E0E EQ PUSH2 0x299 JUMPI DUP1 PUSH4 0x44D5FE52 EQ PUSH2 0x2AC JUMPI DUP1 PUSH4 0x5C274094 EQ PUSH2 0x2C1 JUMPI PUSH1 0x0 DUP1 REVERT JUMPDEST DUP1 PUSH4 0x6FDDE03 GT PUSH2 0x1AD JUMPI DUP1 PUSH4 0x6FDDE03 EQ PUSH2 0x233 JUMPI DUP1 PUSH4 0x81812FC EQ PUSH2 0x248 JUMPI DUP1 PUSH4 0x95EA7B3 EQ PUSH2 0x273 JUMPI DUP1 PUSH4 0x23B872DD EQ PUSH2 0x286 JUMPI PUSH1 0x0 DUP1 REVERT JUMPDEST DUP1 PUSH3 0x75C031 EQ PUSH2 0x1D3 JUMPI DUP1 PUSH4 0x1FFC9A7 EQ PUSH2 0x1E8 JUMPI DUP1 PUSH4 0x4A140E5 EQ PUSH2 0x210 JUMPI JUMPDEST PUSH1 0x0 DUP1 REVERT JUMPDEST PUSH2 0x1E6 PUSH2 0x1E1 CALLDATASIZE PUSH1 0x4 PUSH2 0x224A JUMP JUMPDEST PUSH2 0x477 JUMP JUMPDEST STOP JUMPDEST PUSH2 0x1FB PUSH2 0x1F6 CALLDATASIZE PUSH1 0x4 PUSH2 0x22D2 JUMP JUMPDEST PUSH2 0x4FD JUMP JUMPDEST PUSH1 0x40 MLOAD SWAP1 ISZERO ISZERO DUP2 MSTORE PUSH1 0x20 ADD JUMPDEST PUSH1 0x40 MLOAD DUP1 SWAP2 SUB SWAP1 RETURN JUMPDEST PUSH2 0x223 PUSH2 0x21E CALLDATASIZE PUSH1 0x4 PUSH2 0x22EF JUMP JUMPDEST PUSH2 0x54F JUMP JUMPDEST PUSH1 0x40 MLOAD PUSH2 0x207 SWAP5 SWAP4 SWAP3 SWAP2 SWAP1 PUSH2 0x239A JUMP JUMPDEST PUSH2 0x23B PUSH2 0x606 JUMP JUMPDEST PUSH1 0x40 MLOAD PUSH2 0x207 SWAP2 SWAP1 PUSH2 0x23D7 JUMP JUMPDEST PUSH2 0x25B PUSH2 0x256 CALLDATASIZE PUSH1 0x4 PUSH2 0x22EF JUMP JUMPDEST PUSH2 0x698 JUMP JUMPDEST PUSH1 0x40 MLOAD PUSH1 0x1 PUSH1 0x1 PUSH1 0xA0 SHL SUB SWAP1 SWAP2 AND DUP2 MSTORE PUSH1 0x20 ADD PUSH2 0x207 JUMP JUMPDEST PUSH2 0x1E6 PUSH2 0x281 CALLDATASIZE PUSH1 0x4 PUSH2 0x2401 JUMP JUMPDEST PUSH2 0x720 JUMP JUMPDEST PUSH2 0x1E6 PUSH2 0x294 CALLDATASIZE PUSH1 0x4 PUSH2 0x242B JUMP JUMPDEST PUSH2 0x836 JUMP JUMPDEST PUSH2 0x1E6 PUSH2 0x2A7 CALLDATASIZE PUSH1 0x4 PUSH2 0x242B JUMP JUMPDEST PUSH2 0x867 JUMP JUMPDEST PUSH2 0x2B4 PUSH2 0x882 JUMP JUMPDEST PUSH1 0x40 MLOAD PUSH2 0x207 SWAP2 SWAP1 PUSH2 0x24F6 JUMP JUMPDEST PUSH2 0x2C9 PUSH2 0x891 JUMP JUMPDEST PUSH1 0x40 MLOAD PUSH2 0x207 SWAP2 SWAP1 PUSH2 0x258B JUMP JUMPDEST PUSH2 0x25B PUSH2 0x2E4 CALLDATASIZE PUSH1 0x4 PUSH2 0x22EF JUMP JUMPDEST PUSH2 0x89B JUMP JUMPDEST PUSH2 0x2FC PUSH2 0x2F7 CALLDATASIZE PUSH1 0x4 PUSH2 0x259E JUMP JUMPDEST PUSH2 0x912 JUMP JUMPDEST PUSH1 0x40 MLOAD SWAP1 DUP2 MSTORE PUSH1 0x20 ADD PUSH2 0x207 JUMP JUMPDEST PUSH2 0x1E6 PUSH2 0x999 JUMP JUMPDEST PUSH2 0x2FC PUSH2 0x320 CALLDATASIZE PUSH1 0x4 PUSH2 0x22EF JUMP JUMPDEST PUSH2 0x9CF JUMP JUMPDEST PUSH2 0x2FC PUSH2 0x333 CALLDATASIZE PUSH1 0x4 PUSH2 0x22EF JUMP JUMPDEST PUSH2 0x9F0 JUMP JUMPDEST PUSH2 0x340 PUSH2 0xA00 JUMP JUMPDEST PUSH1 0x40 MLOAD PUSH2 0x207 SWAP2 SWAP1 PUSH2 0x264B JUMP JUMPDEST PUSH2 0x360 PUSH2 0x35B CALLDATASIZE PUSH1 0x4 PUSH2 0x22EF JUMP JUMPDEST PUSH2 0xA5B JUMP JUMPDEST PUSH1 0x40 MLOAD PUSH2 0x207 SWAP5 SWAP4 SWAP3 SWAP2 SWAP1 PUSH2 0x26AC JUMP JUMPDEST PUSH1 0xE SLOAD PUSH2 0x2FC JUMP JUMPDEST PUSH1 0x7 SLOAD PUSH1 0x1 PUSH1 0x1 PUSH1 0xA0 SHL SUB AND PUSH2 0x25B JUMP JUMPDEST PUSH2 0x23B PUSH2 0xA76 JUMP JUMPDEST PUSH2 0x1E6 PUSH2 0x39F CALLDATASIZE PUSH1 0x4 PUSH2 0x26D9 JUMP JUMPDEST PUSH2 0xA85 JUMP JUMPDEST PUSH2 0x1E6 PUSH2 0x3B2 CALLDATASIZE PUSH1 0x4 PUSH2 0x224A JUMP JUMPDEST PUSH2 0xB4A JUMP JUMPDEST PUSH2 0x1E6 PUSH2 0x3C5 CALLDATASIZE PUSH1 0x4 PUSH2 0x2715 JUMP JUMPDEST PUSH2 0xB8E JUMP JUMPDEST PUSH2 0x23B PUSH2 0x3D8 CALLDATASIZE PUSH1 0x4 PUSH2 0x22EF JUMP JUMPDEST PUSH2 0xBC6 JUMP JUMPDEST PUSH2 0x1E6 PUSH2 0x3EB CALLDATASIZE PUSH1 0x4 PUSH2 0x224A JUMP JUMPDEST PUSH2 0xD3D JUMP JUMPDEST PUSH2 0x403 PUSH2 0x3FE CALLDATASIZE PUSH1 0x4 PUSH2 0x22EF JUMP JUMPDEST PUSH2 0xD81 JUMP JUMPDEST PUSH1 0x40 MLOAD PUSH2 0x207 SWAP5 SWAP4 SWAP3 SWAP2 SWAP1 PUSH2 0x2791 JUMP JUMPDEST PUSH2 0x1FB PUSH2 0x421 CALLDATASIZE PUSH1 0x4 PUSH2 0x27B3 JUMP JUMPDEST PUSH1 0x1 PUSH1 0x1 PUSH1 0xA0 SHL SUB SWAP2 DUP3 AND PUSH1 0x0 SWAP1 DUP2 MSTORE PUSH1 0x5 PUSH1 0x20 SWAP1 DUP2 MSTORE PUSH1 0x40 DUP1 DUP4 KECCAK256 SWAP4 SWAP1 SWAP5 AND DUP3 MSTORE SWAP2 SWAP1 SWAP2 MSTORE KECCAK256 SLOAD PUSH1 0xFF AND SWAP1 JUMP JUMPDEST PUSH2 0x1E6 PUSH2 0x45D CALLDATASIZE PUSH1 0x4 PUSH2 0x259E JUMP JUMPDEST PUSH2 0xD9C JUMP JUMPDEST PUSH2 0x46A PUSH2 0xE37 JUMP JUMPDEST PUSH1 0x40 MLOAD PUSH2 0x207 SWAP2 SWAP1 PUSH2 0x27E6 JUMP JUMPDEST PUSH1 0x7 SLOAD PUSH1 0x1 PUSH1 0x1 PUSH1 0xA0 SHL SUB AND CALLER EQ PUSH2 0x4AA JUMPI PUSH1 0x40 MLOAD PUSH3 0x461BCD PUSH1 0xE5 SHL DUP2 MSTORE PUSH1 0x4 ADD PUSH2 0x4A1 SWAP1 PUSH2 0x27F9 JUMP JUMPDEST PUSH1 0x40 MLOAD DUP1 SWAP2 SUB SWAP1 REVERT JUMPDEST PUSH2 0x4B3 DUP4 PUSH2 0xE41 JUMP JUMPDEST PUSH2 0x4C4 DUP4 DUP4 DUP4 PUSH1 0xE DUP1 SLOAD SWAP1 POP PUSH2 0xE5C JUMP JUMPDEST POP POP PUSH1 0xE DUP1 SLOAD PUSH1 0x1 DUP2 ADD DUP3 SSTORE PUSH1 0x0 SWAP2 SWAP1 SWAP2 MSTORE PUSH32 0xBB7B4A454DC3493923482F07822329ED19E8244EFF582CC204F8554C3620C3FD DUP2 ADD SSTORE POP JUMP JUMPDEST PUSH1 0x0 PUSH1 0x1 PUSH1 0x1 PUSH1 0xE0 SHL SUB NOT DUP3 AND PUSH4 0x80AC58CD PUSH1 0xE0 SHL EQ DUP1 PUSH2 0x52E JUMPI POP PUSH1 0x1 PUSH1 0x1 PUSH1 0xE0 SHL SUB NOT DUP3 AND PUSH4 0x5B5E139F PUSH1 0xE0 SHL EQ JUMPDEST DUP1 PUSH2 0x549 JUMPI POP PUSH4 0x1FFC9A7 PUSH1 0xE0 SHL PUSH1 0x1 PUSH1 0x1 PUSH1 0xE0 SHL SUB NOT DUP4 AND EQ JUMPDEST SWAP3 SWAP2 POP POP JUMP JUMPDEST PUSH1 0xA PUSH1 0x20 MSTORE PUSH1 0x0 SWAP1 DUP2 MSTORE PUSH1 0x40 SWAP1 KECCAK256 DUP1 SLOAD DUP2 SWAP1 PUSH2 0x56A SWAP1 PUSH2 0x282E JUMP JUMPDEST DUP1 PUSH1 0x1F ADD PUSH1 0x20 DUP1 SWAP2 DIV MUL PUSH1 0x20 ADD PUSH1 0x40 MLOAD SWAP1 DUP2 ADD PUSH1 0x40 MSTORE DUP1 SWAP3 SWAP2 SWAP1 DUP2 DUP2 MSTORE PUSH1 0x20 ADD DUP3 DUP1 SLOAD PUSH2 0x596 SWAP1 PUSH2 0x282E JUMP JUMPDEST DUP1 ISZERO PUSH2 0x5E3 JUMPI DUP1 PUSH1 0x1F LT PUSH2 0x5B8 JUMPI PUSH2 0x100 DUP1 DUP4 SLOAD DIV MUL DUP4 MSTORE SWAP2 PUSH1 0x20 ADD SWAP2 PUSH2 0x5E3 JUMP JUMPDEST DUP3 ADD SWAP2 SWAP1 PUSH1 0x0 MSTORE PUSH1 0x20 PUSH1 0x0 KECCAK256 SWAP1 JUMPDEST DUP2 SLOAD DUP2 MSTORE SWAP1 PUSH1 0x1 ADD SWAP1 PUSH1 0x20 ADD DUP1 DUP4 GT PUSH2 0x5C6 JUMPI DUP3 SWAP1 SUB PUSH1 0x1F AND DUP3 ADD SWAP2 JUMPDEST POP POP POP POP PUSH1 0x1 DUP4 ADD SLOAD PUSH1 0x2 SWAP1 SWAP4 ADD SLOAD SWAP2 SWAP3 PUSH1 0xFF DUP1 DUP3 AND SWAP4 PUSH2 0x100 SWAP1 SWAP3 DIV AND SWAP2 POP DUP5 JUMP JUMPDEST PUSH1 0x60 PUSH1 0x0 DUP1 SLOAD PUSH2 0x615 SWAP1 PUSH2 0x282E JUMP JUMPDEST DUP1 PUSH1 0x1F ADD PUSH1 0x20 DUP1 SWAP2 DIV MUL PUSH1 0x20 ADD PUSH1 0x40 MLOAD SWAP1 DUP2 ADD PUSH1 0x40 MSTORE DUP1 SWAP3 SWAP2 SWAP1 DUP2 DUP2 MSTORE PUSH1 0x20 ADD DUP3 DUP1 SLOAD PUSH2 0x641 SWAP1 PUSH2 0x282E JUMP JUMPDEST DUP1 ISZERO PUSH2 0x68E JUMPI DUP1 PUSH1 0x1F LT PUSH2 0x663 JUMPI PUSH2 0x100 DUP1 DUP4 SLOAD DIV MUL DUP4 MSTORE SWAP2 PUSH1 0x20 ADD SWAP2 PUSH2 0x68E JUMP JUMPDEST DUP3 ADD SWAP2 SWAP1 PUSH1 0x0 MSTORE PUSH1 0x20 PUSH1 0x0 KECCAK256 SWAP1 JUMPDEST DUP2 SLOAD DUP2 MSTORE SWAP1 PUSH1 0x1 ADD SWAP1 PUSH1 0x20 ADD DUP1 DUP4 GT PUSH2 0x671 JUMPI DUP3 SWAP1 SUB PUSH1 0x1F AND DUP3 ADD SWAP2 JUMPDEST POP POP POP POP POP SWAP1 POP SWAP1 JUMP JUMPDEST PUSH1 0x0 PUSH2 0x6A3 DUP3 PUSH2 0xFCF JUMP JUMPDEST PUSH2 0x704 JUMPI PUSH1 0x40 MLOAD PUSH3 0x461BCD PUSH1 0xE5 SHL DUP2 MSTORE PUSH1 0x20 PUSH1 0x4 DUP3 ADD MSTORE PUSH1 0x2C PUSH1 0x24 DUP3 ADD MSTORE PUSH32 0x4552433732313A20617070726F76656420717565727920666F72206E6F6E6578 PUSH1 0x44 DUP3 ADD MSTORE PUSH12 0x34B9BA32B73A103A37B5B2B7 PUSH1 0xA1 SHL PUSH1 0x64 DUP3 ADD MSTORE PUSH1 0x84 ADD PUSH2 0x4A1 JUMP JUMPDEST POP PUSH1 0x0 SWAP1 DUP2 MSTORE PUSH1 0x4 PUSH1 0x20 MSTORE PUSH1 0x40 SWAP1 KECCAK256 SLOAD PUSH1 0x1 PUSH1 0x1 PUSH1 0xA0 SHL SUB AND SWAP1 JUMP JUMPDEST PUSH1 0x0 PUSH2 0x72B DUP3 PUSH2 0x89B JUMP JUMPDEST SWAP1 POP DUP1 PUSH1 0x1 PUSH1 0x1 PUSH1 0xA0 SHL SUB AND DUP4 PUSH1 0x1 PUSH1 0x1 PUSH1 0xA0 SHL SUB AND EQ ISZERO PUSH2 0x799 JUMPI PUSH1 0x40 MLOAD PUSH3 0x461BCD PUSH1 0xE5 SHL DUP2 MSTORE PUSH1 0x20 PUSH1 0x4 DUP3 ADD MSTORE PUSH1 0x21 PUSH1 0x24 DUP3 ADD MSTORE PUSH32 0x4552433732313A20617070726F76616C20746F2063757272656E74206F776E65 PUSH1 0x44 DUP3 ADD MSTORE PUSH1 0x39 PUSH1 0xF9 SHL PUSH1 0x64 DUP3 ADD MSTORE PUSH1 0x84 ADD PUSH2 0x4A1 JUMP JUMPDEST CALLER PUSH1 0x1 PUSH1 0x1 PUSH1 0xA0 SHL SUB DUP3 AND EQ DUP1 PUSH2 0x7B5 JUMPI POP PUSH2 0x7B5 DUP2 CALLER PUSH2 0x421 JUMP JUMPDEST PUSH2 0x827 JUMPI PUSH1 0x40 MLOAD PUSH3 0x461BCD PUSH1 0xE5 SHL DUP2 MSTORE PUSH1 0x20 PUSH1 0x4 DUP3 ADD MSTORE PUSH1 0x38 PUSH1 0x24 DUP3 ADD MSTORE PUSH32 0x4552433732313A20617070726F76652063616C6C6572206973206E6F74206F77 PUSH1 0x44 DUP3 ADD MSTORE PUSH32 0x6E6572206E6F7220617070726F76656420666F7220616C6C0000000000000000 PUSH1 0x64 DUP3 ADD MSTORE PUSH1 0x84 ADD PUSH2 0x4A1 JUMP JUMPDEST PUSH2 0x831 DUP4 DUP4 PUSH2 0xFEC JUMP JUMPDEST POP POP POP JUMP JUMPDEST PUSH2 0x840 CALLER DUP3 PUSH2 0x105A JUMP JUMPDEST PUSH2 0x85C JUMPI PUSH1 0x40 MLOAD PUSH3 0x461BCD PUSH1 0xE5 SHL DUP2 MSTORE PUSH1 0x4 ADD PUSH2 0x4A1 SWAP1 PUSH2 0x2863 JUMP JUMPDEST PUSH2 0x831 DUP4 DUP4 DUP4 PUSH2 0x1140 JUMP JUMPDEST PUSH2 0x831 DUP4 DUP4 DUP4 PUSH1 0x40 MLOAD DUP1 PUSH1 0x20 ADD PUSH1 0x40 MSTORE DUP1 PUSH1 0x0 DUP2 MSTORE POP PUSH2 0xB8E JUMP JUMPDEST PUSH1 0x60 PUSH2 0x88C PUSH2 0x12E0 JUMP JUMPDEST SWAP1 POP SWAP1 JUMP JUMPDEST PUSH1 0x60 PUSH2 0x88C PUSH2 0x14C3 JUMP JUMPDEST PUSH1 0x0 DUP2 DUP2 MSTORE PUSH1 0x2 PUSH1 0x20 MSTORE PUSH1 0x40 DUP2 KECCAK256 SLOAD PUSH1 0x1 PUSH1 0x1 PUSH1 0xA0 SHL SUB AND DUP1 PUSH2 0x549 JUMPI PUSH1 0x40 MLOAD PUSH3 0x461BCD PUSH1 0xE5 SHL DUP2 MSTORE PUSH1 0x20 PUSH1 0x4 DUP3 ADD MSTORE PUSH1 0x29 PUSH1 0x24 DUP3 ADD MSTORE PUSH32 0x4552433732313A206F776E657220717565727920666F72206E6F6E6578697374 PUSH1 0x44 DUP3 ADD MSTORE PUSH9 0x32B73A103A37B5B2B7 PUSH1 0xB9 SHL PUSH1 0x64 DUP3 ADD MSTORE PUSH1 0x84 ADD PUSH2 0x4A1 JUMP JUMPDEST PUSH1 0x0 PUSH1 0x1 PUSH1 0x1 PUSH1 0xA0 SHL SUB DUP3 AND PUSH2 0x97D JUMPI PUSH1 0x40 MLOAD PUSH3 0x461BCD PUSH1 0xE5 SHL DUP2 MSTORE PUSH1 0x20 PUSH1 0x4 DUP3 ADD MSTORE PUSH1 0x2A PUSH1 0x24 DUP3 ADD MSTORE PUSH32 0x4552433732313A2062616C616E636520717565727920666F7220746865207A65 PUSH1 0x44 DUP3 ADD MSTORE PUSH10 0x726F2061646472657373 PUSH1 0xB0 SHL PUSH1 0x64 DUP3 ADD MSTORE PUSH1 0x84 ADD PUSH2 0x4A1 JUMP JUMPDEST POP PUSH1 0x1 PUSH1 0x1 PUSH1 0xA0 SHL SUB AND PUSH1 0x0 SWAP1 DUP2 MSTORE PUSH1 0x3 PUSH1 0x20 MSTORE PUSH1 0x40 SWAP1 KECCAK256 SLOAD SWAP1 JUMP JUMPDEST PUSH1 0x7 SLOAD PUSH1 0x1 PUSH1 0x1 PUSH1 0xA0 SHL SUB AND CALLER EQ PUSH2 0x9C3 JUMPI PUSH1 0x40 MLOAD PUSH3 0x461BCD PUSH1 0xE5 SHL DUP2 MSTORE PUSH1 0x4 ADD PUSH2 0x4A1 SWAP1 PUSH2 0x27F9 JUMP JUMPDEST PUSH2 0x9CD PUSH1 0x0 PUSH2 0x16A0 JUMP JUMPDEST JUMP JUMPDEST PUSH1 0x9 DUP2 DUP2 SLOAD DUP2 LT PUSH2 0x9DF JUMPI PUSH1 0x0 DUP1 REVERT JUMPDEST PUSH1 0x0 SWAP2 DUP3 MSTORE PUSH1 0x20 SWAP1 SWAP2 KECCAK256 ADD SLOAD SWAP1 POP DUP2 JUMP JUMPDEST PUSH1 0xE DUP2 DUP2 SLOAD DUP2 LT PUSH2 0x9DF JUMPI PUSH1 0x0 DUP1 REVERT JUMPDEST PUSH2 0xA24 PUSH1 0x40 MLOAD DUP1 PUSH1 0x60 ADD PUSH1 0x40 MSTORE DUP1 PUSH1 0x60 DUP2 MSTORE PUSH1 0x20 ADD PUSH1 0x60 DUP2 MSTORE PUSH1 0x20 ADD PUSH1 0x60 DUP2 MSTORE POP SWAP1 JUMP JUMPDEST PUSH1 0x0 PUSH1 0x40 MLOAD DUP1 PUSH1 0x60 ADD PUSH1 0x40 MSTORE DUP1 PUSH2 0xA39 PUSH2 0x12E0 JUMP JUMPDEST DUP2 MSTORE PUSH1 0x20 ADD PUSH2 0xA46 PUSH2 0x16F2 JUMP JUMPDEST DUP2 MSTORE PUSH1 0x20 ADD PUSH2 0xA53 PUSH2 0x14C3 JUMP JUMPDEST SWAP1 MSTORE SWAP3 SWAP2 POP POP JUMP JUMPDEST PUSH1 0x8 PUSH1 0x20 MSTORE PUSH1 0x0 SWAP1 DUP2 MSTORE PUSH1 0x40 SWAP1 KECCAK256 DUP1 SLOAD DUP2 SWAP1 PUSH2 0x56A SWAP1 PUSH2 0x282E JUMP JUMPDEST PUSH1 0x60 PUSH1 0x1 DUP1 SLOAD PUSH2 0x615 SWAP1 PUSH2 0x282E JUMP JUMPDEST PUSH1 0x1 PUSH1 0x1 PUSH1 0xA0 SHL SUB DUP3 AND CALLER EQ ISZERO PUSH2 0xADE JUMPI PUSH1 0x40 MLOAD PUSH3 0x461BCD PUSH1 0xE5 SHL DUP2 MSTORE PUSH1 0x20 PUSH1 0x4 DUP3 ADD MSTORE PUSH1 0x19 PUSH1 0x24 DUP3 ADD MSTORE PUSH32 0x4552433732313A20617070726F766520746F2063616C6C657200000000000000 PUSH1 0x44 DUP3 ADD MSTORE PUSH1 0x64 ADD PUSH2 0x4A1 JUMP JUMPDEST CALLER PUSH1 0x0 DUP2 DUP2 MSTORE PUSH1 0x5 PUSH1 0x20 SWAP1 DUP2 MSTORE PUSH1 0x40 DUP1 DUP4 KECCAK256 PUSH1 0x1 PUSH1 0x1 PUSH1 0xA0 SHL SUB DUP8 AND DUP1 DUP6 MSTORE SWAP1 DUP4 MSTORE SWAP3 DUP2 SWAP1 KECCAK256 DUP1 SLOAD PUSH1 0xFF NOT AND DUP7 ISZERO ISZERO SWAP1 DUP2 OR SWAP1 SWAP2 SSTORE SWAP1 MLOAD SWAP1 DUP2 MSTORE SWAP2 SWAP3 SWAP2 PUSH32 0x17307EAB39AB6107E8899845AD3D59BD9653F200F220920489CA2B5937696C31 SWAP2 ADD PUSH1 0x40 MLOAD DUP1 SWAP2 SUB SWAP1 LOG3 POP POP JUMP JUMPDEST PUSH1 0x7 SLOAD PUSH1 0x1 PUSH1 0x1 PUSH1 0xA0 SHL SUB AND CALLER EQ PUSH2 0xB74 JUMPI PUSH1 0x40 MLOAD PUSH3 0x461BCD PUSH1 0xE5 SHL DUP2 MSTORE PUSH1 0x4 ADD PUSH2 0x4A1 SWAP1 PUSH2 0x27F9 JUMP JUMPDEST PUSH2 0xB7D DUP4 PUSH2 0xE41 JUMP JUMPDEST PUSH2 0x4C4 DUP4 DUP4 DUP4 PUSH1 0xE DUP1 SLOAD SWAP1 POP PUSH2 0x18CF JUMP JUMPDEST PUSH2 0xB98 CALLER DUP4 PUSH2 0x105A JUMP JUMPDEST PUSH2 0xBB4 JUMPI PUSH1 0x40 MLOAD PUSH3 0x461BCD PUSH1 0xE5 SHL DUP2 MSTORE PUSH1 0x4 ADD PUSH2 0x4A1 SWAP1 PUSH2 0x2863 JUMP JUMPDEST PUSH2 0xBC0 DUP5 DUP5 DUP5 DUP5 PUSH2 0x1A42 JUMP JUMPDEST POP POP POP POP JUMP JUMPDEST PUSH1 0x60 PUSH2 0xBD1 DUP3 PUSH2 0xFCF JUMP JUMPDEST PUSH2 0xC37 JUMPI PUSH1 0x40 MLOAD PUSH3 0x461BCD PUSH1 0xE5 SHL DUP2 MSTORE PUSH1 0x20 PUSH1 0x4 DUP3 ADD MSTORE PUSH1 0x31 PUSH1 0x24 DUP3 ADD MSTORE PUSH32 0x45524337323155524953746F726167653A2055524920717565727920666F7220 PUSH1 0x44 DUP3 ADD MSTORE PUSH17 0x3737B732BC34B9BA32B73A103A37B5B2B7 PUSH1 0x79 SHL PUSH1 0x64 DUP3 ADD MSTORE PUSH1 0x84 ADD PUSH2 0x4A1 JUMP JUMPDEST PUSH1 0x0 DUP3 DUP2 MSTORE PUSH1 0x6 PUSH1 0x20 MSTORE PUSH1 0x40 DUP2 KECCAK256 DUP1 SLOAD PUSH2 0xC50 SWAP1 PUSH2 0x282E JUMP JUMPDEST DUP1 PUSH1 0x1F ADD PUSH1 0x20 DUP1 SWAP2 DIV MUL PUSH1 0x20 ADD PUSH1 0x40 MLOAD SWAP1 DUP2 ADD PUSH1 0x40 MSTORE DUP1 SWAP3 SWAP2 SWAP1 DUP2 DUP2 MSTORE PUSH1 0x20 ADD DUP3 DUP1 SLOAD PUSH2 0xC7C SWAP1 PUSH2 0x282E JUMP JUMPDEST DUP1 ISZERO PUSH2 0xCC9 JUMPI DUP1 PUSH1 0x1F LT PUSH2 0xC9E JUMPI PUSH2 0x100 DUP1 DUP4 SLOAD DIV MUL DUP4 MSTORE SWAP2 PUSH1 0x20 ADD SWAP2 PUSH2 0xCC9 JUMP JUMPDEST DUP3 ADD SWAP2 SWAP1 PUSH1 0x0 MSTORE PUSH1 0x20 PUSH1 0x0 KECCAK256 SWAP1 JUMPDEST DUP2 SLOAD DUP2 MSTORE SWAP1 PUSH1 0x1 ADD SWAP1 PUSH1 0x20 ADD DUP1 DUP4 GT PUSH2 0xCAC JUMPI DUP3 SWAP1 SUB PUSH1 0x1F AND DUP3 ADD SWAP2 JUMPDEST POP POP POP POP POP SWAP1 POP PUSH1 0x0 PUSH2 0xCE7 PUSH1 0x40 DUP1 MLOAD PUSH1 0x20 DUP2 ADD SWAP1 SWAP2 MSTORE PUSH1 0x0 DUP2 MSTORE SWAP1 JUMP JUMPDEST SWAP1 POP DUP1 MLOAD PUSH1 0x0 EQ ISZERO PUSH2 0xCFA JUMPI POP SWAP3 SWAP2 POP POP JUMP JUMPDEST DUP2 MLOAD ISZERO PUSH2 0xD2C JUMPI DUP1 DUP3 PUSH1 0x40 MLOAD PUSH1 0x20 ADD PUSH2 0xD14 SWAP3 SWAP2 SWAP1 PUSH2 0x28B4 JUMP JUMPDEST PUSH1 0x40 MLOAD PUSH1 0x20 DUP2 DUP4 SUB SUB DUP2 MSTORE SWAP1 PUSH1 0x40 MSTORE SWAP3 POP POP POP SWAP2 SWAP1 POP JUMP JUMPDEST PUSH2 0xD35 DUP5 PUSH2 0x1A75 JUMP JUMPDEST SWAP5 SWAP4 POP POP POP POP JUMP JUMPDEST PUSH1 0x7 SLOAD PUSH1 0x1 PUSH1 0x1 PUSH1 0xA0 SHL SUB AND CALLER EQ PUSH2 0xD67 JUMPI PUSH1 0x40 MLOAD PUSH3 0x461BCD PUSH1 0xE5 SHL DUP2 MSTORE PUSH1 0x4 ADD PUSH2 0x4A1 SWAP1 PUSH2 0x27F9 JUMP JUMPDEST PUSH2 0xD70 DUP4 PUSH2 0xE41 JUMP JUMPDEST PUSH2 0x4C4 DUP4 DUP4 DUP4 PUSH1 0xE DUP1 SLOAD SWAP1 POP PUSH2 0x1B4D JUMP JUMPDEST PUSH1 0xC PUSH1 0x20 MSTORE PUSH1 0x0 SWAP1 DUP2 MSTORE PUSH1 0x40 SWAP1 KECCAK256 DUP1 SLOAD DUP2 SWAP1 PUSH2 0x56A SWAP1 PUSH2 0x282E JUMP JUMPDEST PUSH1 0x7 SLOAD PUSH1 0x1 PUSH1 0x1 PUSH1 0xA0 SHL SUB AND CALLER EQ PUSH2 0xDC6 JUMPI PUSH1 0x40 MLOAD PUSH3 0x461BCD PUSH1 0xE5 SHL DUP2 MSTORE PUSH1 0x4 ADD PUSH2 0x4A1 SWAP1 PUSH2 0x27F9 JUMP JUMPDEST PUSH1 0x1 PUSH1 0x1 PUSH1 0xA0 SHL SUB DUP2 AND PUSH2 0xE2B JUMPI PUSH1 0x40 MLOAD PUSH3 0x461BCD PUSH1 0xE5 SHL DUP2 MSTORE PUSH1 0x20 PUSH1 0x4 DUP3 ADD MSTORE PUSH1 0x26 PUSH1 0x24 DUP3 ADD MSTORE PUSH32 0x4F776E61626C653A206E6577206F776E657220697320746865207A65726F2061 PUSH1 0x44 DUP3 ADD MSTORE PUSH6 0x646472657373 PUSH1 0xD0 SHL PUSH1 0x64 DUP3 ADD MSTORE PUSH1 0x84 ADD PUSH2 0x4A1 JUMP JUMPDEST PUSH2 0xE34 DUP2 PUSH2 0x16A0 JUMP JUMPDEST POP JUMP JUMPDEST PUSH1 0x60 PUSH2 0x88C PUSH2 0x16F2 JUMP JUMPDEST PUSH1 0xE SLOAD PUSH2 0xE4F SWAP1 CALLER SWAP1 PUSH2 0x1CC0 JUMP JUMPDEST PUSH1 0xE SLOAD PUSH2 0xE34 SWAP1 DUP3 PUSH2 0x1CDE JUMP JUMPDEST PUSH1 0x0 DUP4 PUSH1 0xFF AND PUSH1 0x4 DUP2 GT ISZERO PUSH2 0xE73 JUMPI PUSH2 0xE73 PUSH2 0x2360 JUMP JUMPDEST SWAP1 POP PUSH1 0x0 DUP4 PUSH1 0xFF AND PUSH1 0x4 DUP2 GT ISZERO PUSH2 0xE8C JUMPI PUSH2 0xE8C PUSH2 0x2360 JUMP JUMPDEST SWAP1 POP PUSH1 0x40 MLOAD DUP1 PUSH1 0x80 ADD PUSH1 0x40 MSTORE DUP1 DUP8 DUP2 MSTORE PUSH1 0x20 ADD DUP4 PUSH1 0x4 DUP2 GT ISZERO PUSH2 0xEB1 JUMPI PUSH2 0xEB1 PUSH2 0x2360 JUMP JUMPDEST DUP2 MSTORE PUSH1 0x20 ADD DUP3 PUSH1 0x4 DUP2 GT ISZERO PUSH2 0xEC8 JUMPI PUSH2 0xEC8 PUSH2 0x2360 JUMP JUMPDEST DUP2 MSTORE PUSH1 0x20 SWAP1 DUP2 ADD DUP6 SWAP1 MSTORE PUSH1 0x0 DUP6 DUP2 MSTORE PUSH1 0x8 DUP3 MSTORE PUSH1 0x40 SWAP1 KECCAK256 DUP3 MLOAD DUP1 MLOAD SWAP2 SWAP3 PUSH2 0xEF4 SWAP3 DUP5 SWAP3 SWAP1 SWAP2 ADD SWAP1 PUSH2 0x20CB JUMP JUMPDEST POP PUSH1 0x20 DUP3 ADD MLOAD PUSH1 0x1 DUP1 DUP4 ADD DUP1 SLOAD SWAP1 SWAP2 PUSH1 0xFF NOT SWAP1 SWAP2 AND SWAP1 DUP4 PUSH1 0x4 DUP2 GT ISZERO PUSH2 0xF1C JUMPI PUSH2 0xF1C PUSH2 0x2360 JUMP JUMPDEST MUL OR SWAP1 SSTORE POP PUSH1 0x40 DUP3 ADD MLOAD PUSH1 0x1 DUP3 ADD DUP1 SLOAD PUSH2 0xFF00 NOT AND PUSH2 0x100 DUP4 PUSH1 0x4 DUP2 GT ISZERO PUSH2 0xF46 JUMPI PUSH2 0xF46 PUSH2 0x2360 JUMP JUMPDEST MUL OR SWAP1 SSTORE POP PUSH1 0x60 DUP3 ADD MLOAD DUP2 PUSH1 0x2 ADD SSTORE SWAP1 POP POP PUSH32 0x83E6504B1067F0A10AFB7C6B97B07F6EBF09AADE099003E151DD39C95C848C53 DUP2 DUP8 DUP6 CALLER PUSH1 0x40 MLOAD PUSH2 0xF8D SWAP5 SWAP4 SWAP3 SWAP2 SWAP1 PUSH2 0x28E3 JUMP JUMPDEST PUSH1 0x40 MLOAD DUP1 SWAP2 SUB SWAP1 LOG1 POP POP PUSH1 0x9 DUP1 SLOAD PUSH1 0x1 DUP2 ADD DUP3 SSTORE PUSH1 0x0 SWAP2 SWAP1 SWAP2 MSTORE PUSH32 0x6E1540171B6C0C960B71A7020D9F60077F6AF931A8BBF590DA0223DACF75C7AF ADD SSTORE POP POP POP JUMP JUMPDEST PUSH1 0x0 SWAP1 DUP2 MSTORE PUSH1 0x2 PUSH1 0x20 MSTORE PUSH1 0x40 SWAP1 KECCAK256 SLOAD PUSH1 0x1 PUSH1 0x1 PUSH1 0xA0 SHL SUB AND ISZERO ISZERO SWAP1 JUMP JUMPDEST PUSH1 0x0 DUP2 DUP2 MSTORE PUSH1 0x4 PUSH1 0x20 MSTORE PUSH1 0x40 SWAP1 KECCAK256 DUP1 SLOAD PUSH1 0x1 PUSH1 0x1 PUSH1 0xA0 SHL SUB NOT AND PUSH1 0x1 PUSH1 0x1 PUSH1 0xA0 SHL SUB DUP5 AND SWAP1 DUP2 OR SWAP1 SWAP2 SSTORE DUP2 SWAP1 PUSH2 0x1021 DUP3 PUSH2 0x89B JUMP JUMPDEST PUSH1 0x1 PUSH1 0x1 PUSH1 0xA0 SHL SUB AND PUSH32 0x8C5BE1E5EBEC7D5BD14F71427D1E84F3DD0314C0F7B2291E5B200AC8C7C3B925 PUSH1 0x40 MLOAD PUSH1 0x40 MLOAD DUP1 SWAP2 SUB SWAP1 LOG4 POP POP JUMP JUMPDEST PUSH1 0x0 PUSH2 0x1065 DUP3 PUSH2 0xFCF JUMP JUMPDEST PUSH2 0x10C6 JUMPI PUSH1 0x40 MLOAD PUSH3 0x461BCD PUSH1 0xE5 SHL DUP2 MSTORE PUSH1 0x20 PUSH1 0x4 DUP3 ADD MSTORE PUSH1 0x2C PUSH1 0x24 DUP3 ADD MSTORE PUSH32 0x4552433732313A206F70657261746F7220717565727920666F72206E6F6E6578 PUSH1 0x44 DUP3 ADD MSTORE PUSH12 0x34B9BA32B73A103A37B5B2B7 PUSH1 0xA1 SHL PUSH1 0x64 DUP3 ADD MSTORE PUSH1 0x84 ADD PUSH2 0x4A1 JUMP JUMPDEST PUSH1 0x0 PUSH2 0x10D1 DUP4 PUSH2 0x89B JUMP JUMPDEST SWAP1 POP DUP1 PUSH1 0x1 PUSH1 0x1 PUSH1 0xA0 SHL SUB AND DUP5 PUSH1 0x1 PUSH1 0x1 PUSH1 0xA0 SHL SUB AND EQ DUP1 PUSH2 0x110C JUMPI POP DUP4 PUSH1 0x1 PUSH1 0x1 PUSH1 0xA0 SHL SUB AND PUSH2 0x1101 DUP5 PUSH2 0x698 JUMP JUMPDEST PUSH1 0x1 PUSH1 0x1 PUSH1 0xA0 SHL SUB AND EQ JUMPDEST DUP1 PUSH2 0xD35 JUMPI POP PUSH1 0x1 PUSH1 0x1 PUSH1 0xA0 SHL SUB DUP1 DUP3 AND PUSH1 0x0 SWAP1 DUP2 MSTORE PUSH1 0x5 PUSH1 0x20 SWAP1 DUP2 MSTORE PUSH1 0x40 DUP1 DUP4 KECCAK256 SWAP4 DUP9 AND DUP4 MSTORE SWAP3 SWAP1 MSTORE KECCAK256 SLOAD PUSH1 0xFF AND PUSH2 0xD35 JUMP JUMPDEST DUP3 PUSH1 0x1 PUSH1 0x1 PUSH1 0xA0 SHL SUB AND PUSH2 0x1153 DUP3 PUSH2 0x89B JUMP JUMPDEST PUSH1 0x1 PUSH1 0x1 PUSH1 0xA0 SHL SUB AND EQ PUSH2 0x11BB JUMPI PUSH1 0x40 MLOAD PUSH3 0x461BCD PUSH1 0xE5 SHL DUP2 MSTORE PUSH1 0x20 PUSH1 0x4 DUP3 ADD MSTORE PUSH1 0x29 PUSH1 0x24 DUP3 ADD MSTORE PUSH32 0x4552433732313A207472616E73666572206F6620746F6B656E20746861742069 PUSH1 0x44 DUP3 ADD MSTORE PUSH9 0x39903737BA1037BBB7 PUSH1 0xB9 SHL PUSH1 0x64 DUP3 ADD MSTORE PUSH1 0x84 ADD PUSH2 0x4A1 JUMP JUMPDEST PUSH1 0x1 PUSH1 0x1 PUSH1 0xA0 SHL SUB DUP3 AND PUSH2 0x121D JUMPI PUSH1 0x40 MLOAD PUSH3 0x461BCD PUSH1 0xE5 SHL DUP2 MSTORE PUSH1 0x20 PUSH1 0x4 DUP3 ADD MSTORE PUSH1 0x24 DUP1 DUP3 ADD MSTORE PUSH32 0x4552433732313A207472616E7366657220746F20746865207A65726F20616464 PUSH1 0x44 DUP3 ADD MSTORE PUSH4 0x72657373 PUSH1 0xE0 SHL PUSH1 0x64 DUP3 ADD MSTORE PUSH1 0x84 ADD PUSH2 0x4A1 JUMP JUMPDEST PUSH2 0x1228 PUSH1 0x0 DUP3 PUSH2 0xFEC JUMP JUMPDEST PUSH1 0x1 PUSH1 0x1 PUSH1 0xA0 SHL SUB DUP4 AND PUSH1 0x0 SWAP1 DUP2 MSTORE PUSH1 0x3 PUSH1 0x20 MSTORE PUSH1 0x40 DUP2 KECCAK256 DUP1 SLOAD PUSH1 0x1 SWAP3 SWAP1 PUSH2 0x1251 SWAP1 DUP5 SWAP1 PUSH2 0x2959 JUMP JUMPDEST SWAP1 SWAP2 SSTORE POP POP PUSH1 0x1 PUSH1 0x1 PUSH1 0xA0 SHL SUB DUP3 AND PUSH1 0x0 SWAP1 DUP2 MSTORE PUSH1 0x3 PUSH1 0x20 MSTORE PUSH1 0x40 DUP2 KECCAK256 DUP1 SLOAD PUSH1 0x1 SWAP3 SWAP1 PUSH2 0x127F SWAP1 DUP5 SWAP1 PUSH2 0x2970 JUMP JUMPDEST SWAP1 SWAP2 SSTORE POP POP PUSH1 0x0 DUP2 DUP2 MSTORE PUSH1 0x2 PUSH1 0x20 MSTORE PUSH1 0x40 DUP1 DUP3 KECCAK256 DUP1 SLOAD PUSH1 0x1 PUSH1 0x1 PUSH1 0xA0 SHL SUB NOT AND PUSH1 0x1 PUSH1 0x1 PUSH1 0xA0 SHL SUB DUP7 DUP2 AND SWAP2 DUP3 OR SWAP1 SWAP3 SSTORE SWAP2 MLOAD DUP5 SWAP4 SWAP2 DUP8 AND SWAP2 PUSH32 0xDDF252AD1BE2C89B69C2B068FC378DAA952BA7F163C4A11628F55A4DF523B3EF SWAP2 LOG4 POP POP POP JUMP JUMPDEST PUSH1 0x9 SLOAD PUSH1 0x60 SWAP1 PUSH1 0x0 SWAP1 PUSH8 0xFFFFFFFFFFFFFFFF DUP2 GT ISZERO PUSH2 0x1301 JUMPI PUSH2 0x1301 PUSH2 0x21A8 JUMP JUMPDEST PUSH1 0x40 MLOAD SWAP1 DUP1 DUP3 MSTORE DUP1 PUSH1 0x20 MUL PUSH1 0x20 ADD DUP3 ADD PUSH1 0x40 MSTORE DUP1 ISZERO PUSH2 0x133A JUMPI DUP2 PUSH1 0x20 ADD JUMPDEST PUSH2 0x1327 PUSH2 0x214F JUMP JUMPDEST DUP2 MSTORE PUSH1 0x20 ADD SWAP1 PUSH1 0x1 SWAP1 SUB SWAP1 DUP2 PUSH2 0x131F JUMPI SWAP1 POP JUMPDEST POP SWAP1 POP PUSH1 0x0 JUMPDEST PUSH1 0x9 SLOAD DUP2 LT ISZERO PUSH2 0x14BD JUMPI PUSH1 0x8 PUSH1 0x0 PUSH1 0x9 DUP4 DUP2 SLOAD DUP2 LT PUSH2 0x1361 JUMPI PUSH2 0x1361 PUSH2 0x2988 JUMP JUMPDEST SWAP1 PUSH1 0x0 MSTORE PUSH1 0x20 PUSH1 0x0 KECCAK256 ADD SLOAD DUP2 MSTORE PUSH1 0x20 ADD SWAP1 DUP2 MSTORE PUSH1 0x20 ADD PUSH1 0x0 KECCAK256 PUSH1 0x40 MLOAD DUP1 PUSH1 0x80 ADD PUSH1 0x40 MSTORE SWAP1 DUP2 PUSH1 0x0 DUP3 ADD DUP1 SLOAD PUSH2 0x1395 SWAP1 PUSH2 0x282E JUMP JUMPDEST DUP1 PUSH1 0x1F ADD PUSH1 0x20 DUP1 SWAP2 DIV MUL PUSH1 0x20 ADD PUSH1 0x40 MLOAD SWAP1 DUP2 ADD PUSH1 0x40 MSTORE DUP1 SWAP3 SWAP2 SWAP1 DUP2 DUP2 MSTORE PUSH1 0x20 ADD DUP3 DUP1 SLOAD PUSH2 0x13C1 SWAP1 PUSH2 0x282E JUMP JUMPDEST DUP1 ISZERO PUSH2 0x140E JUMPI DUP1 PUSH1 0x1F LT PUSH2 0x13E3 JUMPI PUSH2 0x100 DUP1 DUP4 SLOAD DIV MUL DUP4 MSTORE SWAP2 PUSH1 0x20 ADD SWAP2 PUSH2 0x140E JUMP JUMPDEST DUP3 ADD SWAP2 SWAP1 PUSH1 0x0 MSTORE PUSH1 0x20 PUSH1 0x0 KECCAK256 SWAP1 JUMPDEST DUP2 SLOAD DUP2 MSTORE SWAP1 PUSH1 0x1 ADD SWAP1 PUSH1 0x20 ADD DUP1 DUP4 GT PUSH2 0x13F1 JUMPI DUP3 SWAP1 SUB PUSH1 0x1F AND DUP3 ADD SWAP2 JUMPDEST POP POP POP SWAP2 DUP4 MSTORE POP POP PUSH1 0x1 DUP3 ADD SLOAD PUSH1 0x20 SWAP1 SWAP2 ADD SWAP1 PUSH1 0xFF AND PUSH1 0x4 DUP2 GT ISZERO PUSH2 0x1435 JUMPI PUSH2 0x1435 PUSH2 0x2360 JUMP JUMPDEST PUSH1 0x4 DUP2 GT ISZERO PUSH2 0x1446 JUMPI PUSH2 0x1446 PUSH2 0x2360 JUMP JUMPDEST DUP2 MSTORE PUSH1 0x20 ADD PUSH1 0x1 DUP3 ADD PUSH1 0x1 SWAP1 SLOAD SWAP1 PUSH2 0x100 EXP SWAP1 DIV PUSH1 0xFF AND PUSH1 0x4 DUP2 GT ISZERO PUSH2 0x146E JUMPI PUSH2 0x146E PUSH2 0x2360 JUMP JUMPDEST PUSH1 0x4 DUP2 GT ISZERO PUSH2 0x147F JUMPI PUSH2 0x147F PUSH2 0x2360 JUMP JUMPDEST DUP2 MSTORE PUSH1 0x20 ADD PUSH1 0x2 DUP3 ADD SLOAD DUP2 MSTORE POP POP DUP3 DUP3 DUP2 MLOAD DUP2 LT PUSH2 0x149F JUMPI PUSH2 0x149F PUSH2 0x2988 JUMP JUMPDEST PUSH1 0x20 MUL PUSH1 0x20 ADD ADD DUP2 SWAP1 MSTORE POP DUP1 DUP1 PUSH2 0x14B5 SWAP1 PUSH2 0x299E JUMP JUMPDEST SWAP2 POP POP PUSH2 0x1340 JUMP JUMPDEST POP SWAP2 SWAP1 POP JUMP JUMPDEST PUSH1 0xB SLOAD PUSH1 0x60 SWAP1 PUSH1 0x0 SWAP1 PUSH8 0xFFFFFFFFFFFFFFFF DUP2 GT ISZERO PUSH2 0x14E4 JUMPI PUSH2 0x14E4 PUSH2 0x21A8 JUMP JUMPDEST PUSH1 0x40 MLOAD SWAP1 DUP1 DUP3 MSTORE DUP1 PUSH1 0x20 MUL PUSH1 0x20 ADD DUP3 ADD PUSH1 0x40 MSTORE DUP1 ISZERO PUSH2 0x151D JUMPI DUP2 PUSH1 0x20 ADD JUMPDEST PUSH2 0x150A PUSH2 0x2179 JUMP JUMPDEST DUP2 MSTORE PUSH1 0x20 ADD SWAP1 PUSH1 0x1 SWAP1 SUB SWAP1 DUP2 PUSH2 0x1502 JUMPI SWAP1 POP JUMPDEST POP SWAP1 POP PUSH1 0x0 JUMPDEST PUSH1 0xB SLOAD DUP2 LT ISZERO PUSH2 0x14BD JUMPI PUSH1 0xA PUSH1 0x0 PUSH1 0xB DUP4 DUP2 SLOAD DUP2 LT PUSH2 0x1544 JUMPI PUSH2 0x1544 PUSH2 0x2988 JUMP JUMPDEST SWAP1 PUSH1 0x0 MSTORE PUSH1 0x20 PUSH1 0x0 KECCAK256 ADD SLOAD DUP2 MSTORE PUSH1 0x20 ADD SWAP1 DUP2 MSTORE PUSH1 0x20 ADD PUSH1 0x0 KECCAK256 PUSH1 0x40 MLOAD DUP1 PUSH1 0x80 ADD PUSH1 0x40 MSTORE SWAP1 DUP2 PUSH1 0x0 DUP3 ADD DUP1 SLOAD PUSH2 0x1578 SWAP1 PUSH2 0x282E JUMP JUMPDEST DUP1 PUSH1 0x1F ADD PUSH1 0x20 DUP1 SWAP2 DIV MUL PUSH1 0x20 ADD PUSH1 0x40 MLOAD SWAP1 DUP2 ADD PUSH1 0x40 MSTORE DUP1 SWAP3 SWAP2 SWAP1 DUP2 DUP2 MSTORE PUSH1 0x20 ADD DUP3 DUP1 SLOAD PUSH2 0x15A4 SWAP1 PUSH2 0x282E JUMP JUMPDEST DUP1 ISZERO PUSH2 0x15F1 JUMPI DUP1 PUSH1 0x1F LT PUSH2 0x15C6 JUMPI PUSH2 0x100 DUP1 DUP4 SLOAD DIV MUL DUP4 MSTORE SWAP2 PUSH1 0x20 ADD SWAP2 PUSH2 0x15F1 JUMP JUMPDEST DUP3 ADD SWAP2 SWAP1 PUSH1 0x0 MSTORE PUSH1 0x20 PUSH1 0x0 KECCAK256 SWAP1 JUMPDEST DUP2 SLOAD DUP2 MSTORE SWAP1 PUSH1 0x1 ADD SWAP1 PUSH1 0x20 ADD DUP1 DUP4 GT PUSH2 0x15D4 JUMPI DUP3 SWAP1 SUB PUSH1 0x1F AND DUP3 ADD SWAP2 JUMPDEST POP POP POP SWAP2 DUP4 MSTORE POP POP PUSH1 0x1 DUP3 ADD SLOAD PUSH1 0x20 SWAP1 SWAP2 ADD SWAP1 PUSH1 0xFF AND PUSH1 0x2 DUP2 GT ISZERO PUSH2 0x1618 JUMPI PUSH2 0x1618 PUSH2 0x2360 JUMP JUMPDEST PUSH1 0x2 DUP2 GT ISZERO PUSH2 0x1629 JUMPI PUSH2 0x1629 PUSH2 0x2360 JUMP JUMPDEST DUP2 MSTORE PUSH1 0x20 ADD PUSH1 0x1 DUP3 ADD PUSH1 0x1 SWAP1 SLOAD SWAP1 PUSH2 0x100 EXP SWAP1 DIV PUSH1 0xFF AND PUSH1 0x4 DUP2 GT ISZERO PUSH2 0x1651 JUMPI PUSH2 0x1651 PUSH2 0x2360 JUMP JUMPDEST PUSH1 0x4 DUP2 GT ISZERO PUSH2 0x1662 JUMPI PUSH2 0x1662 PUSH2 0x2360 JUMP JUMPDEST DUP2 MSTORE PUSH1 0x20 ADD PUSH1 0x2 DUP3 ADD SLOAD DUP2 MSTORE POP POP DUP3 DUP3 DUP2 MLOAD DUP2 LT PUSH2 0x1682 JUMPI PUSH2 0x1682 PUSH2 0x2988 JUMP JUMPDEST PUSH1 0x20 MUL PUSH1 0x20 ADD ADD DUP2 SWAP1 MSTORE POP DUP1 DUP1 PUSH2 0x1698 SWAP1 PUSH2 0x299E JUMP JUMPDEST SWAP2 POP POP PUSH2 0x1523 JUMP JUMPDEST PUSH1 0x7 DUP1 SLOAD PUSH1 0x1 PUSH1 0x1 PUSH1 0xA0 SHL SUB DUP4 DUP2 AND PUSH1 0x1 PUSH1 0x1 PUSH1 0xA0 SHL SUB NOT DUP4 AND DUP2 OR SWAP1 SWAP4 SSTORE PUSH1 0x40 MLOAD SWAP2 AND SWAP2 SWAP1 DUP3 SWAP1 PUSH32 0x8BE0079C531659141344CD1FD0A4F28419497F9722A3DAAFE3B4186F6B6457E0 SWAP1 PUSH1 0x0 SWAP1 LOG3 POP POP JUMP JUMPDEST PUSH1 0xD SLOAD PUSH1 0x60 SWAP1 PUSH1 0x0 SWAP1 PUSH8 0xFFFFFFFFFFFFFFFF DUP2 GT ISZERO PUSH2 0x1713 JUMPI PUSH2 0x1713 PUSH2 0x21A8 JUMP JUMPDEST PUSH1 0x40 MLOAD SWAP1 DUP1 DUP3 MSTORE DUP1 PUSH1 0x20 MUL PUSH1 0x20 ADD DUP3 ADD PUSH1 0x40 MSTORE DUP1 ISZERO PUSH2 0x174C JUMPI DUP2 PUSH1 0x20 ADD JUMPDEST PUSH2 0x1739 PUSH2 0x2179 JUMP JUMPDEST DUP2 MSTORE PUSH1 0x20 ADD SWAP1 PUSH1 0x1 SWAP1 SUB SWAP1 DUP2 PUSH2 0x1731 JUMPI SWAP1 POP JUMPDEST POP SWAP1 POP PUSH1 0x0 JUMPDEST PUSH1 0xD SLOAD DUP2 LT ISZERO PUSH2 0x14BD JUMPI PUSH1 0xC PUSH1 0x0 PUSH1 0xD DUP4 DUP2 SLOAD DUP2 LT PUSH2 0x1773 JUMPI PUSH2 0x1773 PUSH2 0x2988 JUMP JUMPDEST SWAP1 PUSH1 0x0 MSTORE PUSH1 0x20 PUSH1 0x0 KECCAK256 ADD SLOAD DUP2 MSTORE PUSH1 0x20 ADD SWAP1 DUP2 MSTORE PUSH1 0x20 ADD PUSH1 0x0 KECCAK256 PUSH1 0x40 MLOAD DUP1 PUSH1 0x80 ADD PUSH1 0x40 MSTORE SWAP1 DUP2 PUSH1 0x0 DUP3 ADD DUP1 SLOAD PUSH2 0x17A7 SWAP1 PUSH2 0x282E JUMP JUMPDEST DUP1 PUSH1 0x1F ADD PUSH1 0x20 DUP1 SWAP2 DIV MUL PUSH1 0x20 ADD PUSH1 0x40 MLOAD SWAP1 DUP2 ADD PUSH1 0x40 MSTORE DUP1 SWAP3 SWAP2 SWAP1 DUP2 DUP2 MSTORE PUSH1 0x20 ADD DUP3 DUP1 SLOAD PUSH2 0x17D3 SWAP1 PUSH2 0x282E JUMP JUMPDEST DUP1 ISZERO PUSH2 0x1820 JUMPI DUP1 PUSH1 0x1F LT PUSH2 0x17F5 JUMPI PUSH2 0x100 DUP1 DUP4 SLOAD DIV MUL DUP4 MSTORE SWAP2 PUSH1 0x20 ADD SWAP2 PUSH2 0x1820 JUMP JUMPDEST DUP3 ADD SWAP2 SWAP1 PUSH1 0x0 MSTORE PUSH1 0x20 PUSH1 0x0 KECCAK256 SWAP1 JUMPDEST DUP2 SLOAD DUP2 MSTORE SWAP1 PUSH1 0x1 ADD SWAP1 PUSH1 0x20 ADD DUP1 DUP4 GT PUSH2 0x1803 JUMPI DUP3 SWAP1 SUB PUSH1 0x1F AND DUP3 ADD SWAP2 JUMPDEST POP POP POP SWAP2 DUP4 MSTORE POP POP PUSH1 0x1 DUP3 ADD SLOAD PUSH1 0x20 SWAP1 SWAP2 ADD SWAP1 PUSH1 0xFF AND PUSH1 0x6 DUP2 GT ISZERO PUSH2 0x1847 JUMPI PUSH2 0x1847 PUSH2 0x2360 JUMP JUMPDEST PUSH1 0x6 DUP2 GT ISZERO PUSH2 0x1858 JUMPI PUSH2 0x1858 PUSH2 0x2360 JUMP JUMPDEST DUP2 MSTORE PUSH1 0x20 ADD PUSH1 0x1 DUP3 ADD PUSH1 0x1 SWAP1 SLOAD SWAP1 PUSH2 0x100 EXP SWAP1 DIV PUSH1 0xFF AND PUSH1 0x4 DUP2 GT ISZERO PUSH2 0x1880 JUMPI PUSH2 0x1880 PUSH2 0x2360 JUMP JUMPDEST PUSH1 0x4 DUP2 GT ISZERO PUSH2 0x1891 JUMPI PUSH2 0x1891 PUSH2 0x2360 JUMP JUMPDEST DUP2 MSTORE PUSH1 0x20 ADD PUSH1 0x2 DUP3 ADD SLOAD DUP2 MSTORE POP POP DUP3 DUP3 DUP2 MLOAD DUP2 LT PUSH2 0x18B1 JUMPI PUSH2 0x18B1 PUSH2 0x2988 JUMP JUMPDEST PUSH1 0x20 MUL PUSH1 0x20 ADD ADD DUP2 SWAP1 MSTORE POP DUP1 DUP1 PUSH2 0x18C7 SWAP1 PUSH2 0x299E JUMP JUMPDEST SWAP2 POP POP PUSH2 0x1752 JUMP JUMPDEST PUSH1 0x0 DUP4 PUSH1 0xFF AND PUSH1 0x2 DUP2 GT ISZERO PUSH2 0x18E6 JUMPI PUSH2 0x18E6 PUSH2 0x2360 JUMP JUMPDEST SWAP1 POP PUSH1 0x0 DUP4 PUSH1 0xFF AND PUSH1 0x4 DUP2 GT ISZERO PUSH2 0x18FF JUMPI PUSH2 0x18FF PUSH2 0x2360 JUMP JUMPDEST SWAP1 POP PUSH1 0x40 MLOAD DUP1 PUSH1 0x80 ADD PUSH1 0x40 MSTORE DUP1 DUP8 DUP2 MSTORE PUSH1 0x20 ADD DUP4 PUSH1 0x2 DUP2 GT ISZERO PUSH2 0x1924 JUMPI PUSH2 0x1924 PUSH2 0x2360 JUMP JUMPDEST DUP2 MSTORE PUSH1 0x20 ADD DUP3 PUSH1 0x4 DUP2 GT ISZERO PUSH2 0x193B JUMPI PUSH2 0x193B PUSH2 0x2360 JUMP JUMPDEST DUP2 MSTORE PUSH1 0x20 SWAP1 DUP2 ADD DUP6 SWAP1 MSTORE PUSH1 0x0 DUP6 DUP2 MSTORE PUSH1 0xA DUP3 MSTORE PUSH1 0x40 SWAP1 KECCAK256 DUP3 MLOAD DUP1 MLOAD SWAP2 SWAP3 PUSH2 0x1967 SWAP3 DUP5 SWAP3 SWAP1 SWAP2 ADD SWAP1 PUSH2 0x20CB JUMP JUMPDEST POP PUSH1 0x20 DUP3 ADD MLOAD PUSH1 0x1 DUP1 DUP4 ADD DUP1 SLOAD SWAP1 SWAP2 PUSH1 0xFF NOT SWAP1 SWAP2 AND SWAP1 DUP4 PUSH1 0x2 DUP2 GT ISZERO PUSH2 0x198F JUMPI PUSH2 0x198F PUSH2 0x2360 JUMP JUMPDEST MUL OR SWAP1 SSTORE POP PUSH1 0x40 DUP3 ADD MLOAD PUSH1 0x1 DUP3 ADD DUP1 SLOAD PUSH2 0xFF00 NOT AND PUSH2 0x100 DUP4 PUSH1 0x4 DUP2 GT ISZERO PUSH2 0x19B9 JUMPI PUSH2 0x19B9 PUSH2 0x2360 JUMP JUMPDEST MUL OR SWAP1 SSTORE POP PUSH1 0x60 DUP3 ADD MLOAD DUP2 PUSH1 0x2 ADD SSTORE SWAP1 POP POP PUSH32 0x83E6504B1067F0A10AFB7C6B97B07F6EBF09AADE099003E151DD39C95C848C53 DUP2 DUP8 DUP6 CALLER PUSH1 0x40 MLOAD PUSH2 0x1A00 SWAP5 SWAP4 SWAP3 SWAP2 SWAP1 PUSH2 0x29B9 JUMP JUMPDEST PUSH1 0x40 MLOAD DUP1 SWAP2 SUB SWAP1 LOG1 POP POP PUSH1 0xB DUP1 SLOAD PUSH1 0x1 DUP2 ADD DUP3 SSTORE PUSH1 0x0 SWAP2 SWAP1 SWAP2 MSTORE PUSH32 0x175B7A638427703F0DBE7BB9BBF987A2551717B34E79F33B5B1008D1FA01DB9 ADD SSTORE POP POP POP JUMP JUMPDEST PUSH2 0x1A4D DUP5 DUP5 DUP5 PUSH2 0x1140 JUMP JUMPDEST PUSH2 0x1A59 DUP5 DUP5 DUP5 DUP5 PUSH2 0x1D69 JUMP JUMPDEST PUSH2 0xBC0 JUMPI PUSH1 0x40 MLOAD PUSH3 0x461BCD PUSH1 0xE5 SHL DUP2 MSTORE PUSH1 0x4 ADD PUSH2 0x4A1 SWAP1 PUSH2 0x29E1 JUMP JUMPDEST PUSH1 0x60 PUSH2 0x1A80 DUP3 PUSH2 0xFCF JUMP JUMPDEST PUSH2 0x1AE4 JUMPI PUSH1 0x40 MLOAD PUSH3 0x461BCD PUSH1 0xE5 SHL DUP2 MSTORE PUSH1 0x20 PUSH1 0x4 DUP3 ADD MSTORE PUSH1 0x2F PUSH1 0x24 DUP3 ADD MSTORE PUSH32 0x4552433732314D657461646174613A2055524920717565727920666F72206E6F PUSH1 0x44 DUP3 ADD MSTORE PUSH15 0x3732BC34B9BA32B73A103A37B5B2B7 PUSH1 0x89 SHL PUSH1 0x64 DUP3 ADD MSTORE PUSH1 0x84 ADD PUSH2 0x4A1 JUMP JUMPDEST PUSH1 0x0 PUSH2 0x1AFB PUSH1 0x40 DUP1 MLOAD PUSH1 0x20 DUP2 ADD SWAP1 SWAP2 MSTORE PUSH1 0x0 DUP2 MSTORE SWAP1 JUMP JUMPDEST SWAP1 POP PUSH1 0x0 DUP2 MLOAD GT PUSH2 0x1B1B JUMPI PUSH1 0x40 MLOAD DUP1 PUSH1 0x20 ADD PUSH1 0x40 MSTORE DUP1 PUSH1 0x0 DUP2 MSTORE POP PUSH2 0x1B46 JUMP JUMPDEST DUP1 PUSH2 0x1B25 DUP5 PUSH2 0x1E67 JUMP JUMPDEST PUSH1 0x40 MLOAD PUSH1 0x20 ADD PUSH2 0x1B36 SWAP3 SWAP2 SWAP1 PUSH2 0x28B4 JUMP JUMPDEST PUSH1 0x40 MLOAD PUSH1 0x20 DUP2 DUP4 SUB SUB DUP2 MSTORE SWAP1 PUSH1 0x40 MSTORE JUMPDEST SWAP4 SWAP3 POP POP POP JUMP JUMPDEST PUSH1 0x0 DUP4 PUSH1 0xFF AND PUSH1 0x6 DUP2 GT ISZERO PUSH2 0x1B64 JUMPI PUSH2 0x1B64 PUSH2 0x2360 JUMP JUMPDEST SWAP1 POP PUSH1 0x0 DUP4 PUSH1 0xFF AND PUSH1 0x4 DUP2 GT ISZERO PUSH2 0x1B7D JUMPI PUSH2 0x1B7D PUSH2 0x2360 JUMP JUMPDEST SWAP1 POP PUSH1 0x40 MLOAD DUP1 PUSH1 0x80 ADD PUSH1 0x40 MSTORE DUP1 DUP8 DUP2 MSTORE PUSH1 0x20 ADD DUP4 PUSH1 0x6 DUP2 GT ISZERO PUSH2 0x1BA2 JUMPI PUSH2 0x1BA2 PUSH2 0x2360 JUMP JUMPDEST DUP2 MSTORE PUSH1 0x20 ADD DUP3 PUSH1 0x4 DUP2 GT ISZERO PUSH2 0x1BB9 JUMPI PUSH2 0x1BB9 PUSH2 0x2360 JUMP JUMPDEST DUP2 MSTORE PUSH1 0x20 SWAP1 DUP2 ADD DUP6 SWAP1 MSTORE PUSH1 0x0 DUP6 DUP2 MSTORE PUSH1 0xC DUP3 MSTORE PUSH1 0x40 SWAP1 KECCAK256 DUP3 MLOAD DUP1 MLOAD SWAP2 SWAP3 PUSH2 0x1BE5 SWAP3 DUP5 SWAP3 SWAP1 SWAP2 ADD SWAP1 PUSH2 0x20CB JUMP JUMPDEST POP PUSH1 0x20 DUP3 ADD MLOAD PUSH1 0x1 DUP1 DUP4 ADD DUP1 SLOAD SWAP1 SWAP2 PUSH1 0xFF NOT SWAP1 SWAP2 AND SWAP1 DUP4 PUSH1 0x6 DUP2 GT ISZERO PUSH2 0x1C0D JUMPI PUSH2 0x1C0D PUSH2 0x2360 JUMP JUMPDEST MUL OR SWAP1 SSTORE POP PUSH1 0x40 DUP3 ADD MLOAD PUSH1 0x1 DUP3 ADD DUP1 SLOAD PUSH2 0xFF00 NOT AND PUSH2 0x100 DUP4 PUSH1 0x4 DUP2 GT ISZERO PUSH2 0x1C37 JUMPI PUSH2 0x1C37 PUSH2 0x2360 JUMP JUMPDEST MUL OR SWAP1 SSTORE POP PUSH1 0x60 DUP3 ADD MLOAD DUP2 PUSH1 0x2 ADD SSTORE SWAP1 POP POP PUSH32 0x83E6504B1067F0A10AFB7C6B97B07F6EBF09AADE099003E151DD39C95C848C53 DUP2 DUP8 DUP6 CALLER PUSH1 0x40 MLOAD PUSH2 0x1C7E SWAP5 SWAP4 SWAP3 SWAP2 SWAP1 PUSH2 0x2A33 JUMP JUMPDEST PUSH1 0x40 MLOAD DUP1 SWAP2 SUB SWAP1 LOG1 POP POP PUSH1 0xD DUP1 SLOAD PUSH1 0x1 DUP2 ADD DUP3 SSTORE PUSH1 0x0 SWAP2 SWAP1 SWAP2 MSTORE PUSH32 0xD7B6990105719101DABEB77144F2A3385C8033ACD3AF97E9423A695E81AD1EB5 ADD SSTORE POP POP POP JUMP JUMPDEST PUSH2 0x1CDA DUP3 DUP3 PUSH1 0x40 MLOAD DUP1 PUSH1 0x20 ADD PUSH1 0x40 MSTORE DUP1 PUSH1 0x0 DUP2 MSTORE POP PUSH2 0x1F65 JUMP JUMPDEST POP POP JUMP JUMPDEST PUSH2 0x1CE7 DUP3 PUSH2 0xFCF JUMP JUMPDEST PUSH2 0x1D4A JUMPI PUSH1 0x40 MLOAD PUSH3 0x461BCD PUSH1 0xE5 SHL DUP2 MSTORE PUSH1 0x20 PUSH1 0x4 DUP3 ADD MSTORE PUSH1 0x2E PUSH1 0x24 DUP3 ADD MSTORE PUSH32 0x45524337323155524953746F726167653A2055524920736574206F66206E6F6E PUSH1 0x44 DUP3 ADD MSTORE PUSH14 0x32BC34B9BA32B73A103A37B5B2B7 PUSH1 0x91 SHL PUSH1 0x64 DUP3 ADD MSTORE PUSH1 0x84 ADD PUSH2 0x4A1 JUMP JUMPDEST PUSH1 0x0 DUP3 DUP2 MSTORE PUSH1 0x6 PUSH1 0x20 SWAP1 DUP2 MSTORE PUSH1 0x40 SWAP1 SWAP2 KECCAK256 DUP3 MLOAD PUSH2 0x831 SWAP3 DUP5 ADD SWAP1 PUSH2 0x20CB JUMP JUMPDEST PUSH1 0x0 PUSH1 0x1 PUSH1 0x1 PUSH1 0xA0 SHL SUB DUP5 AND EXTCODESIZE ISZERO PUSH2 0x1E5C JUMPI PUSH1 0x40 MLOAD PUSH4 0xA85BD01 PUSH1 0xE1 SHL DUP2 MSTORE PUSH1 0x1 PUSH1 0x1 PUSH1 0xA0 SHL SUB DUP6 AND SWAP1 PUSH4 0x150B7A02 SWAP1 PUSH2 0x1DAD SWAP1 CALLER SWAP1 DUP10 SWAP1 DUP9 SWAP1 DUP9 SWAP1 PUSH1 0x4 ADD PUSH2 0x2A60 JUMP JUMPDEST PUSH1 0x20 PUSH1 0x40 MLOAD DUP1 DUP4 SUB DUP2 PUSH1 0x0 DUP8 GAS CALL SWAP3 POP POP POP DUP1 ISZERO PUSH2 0x1DE8 JUMPI POP PUSH1 0x40 DUP1 MLOAD PUSH1 0x1F RETURNDATASIZE SWAP1 DUP2 ADD PUSH1 0x1F NOT AND DUP3 ADD SWAP1 SWAP3 MSTORE PUSH2 0x1DE5 SWAP2 DUP2 ADD SWAP1 PUSH2 0x2A9D JUMP JUMPDEST PUSH1 0x1 JUMPDEST PUSH2 0x1E42 JUMPI RETURNDATASIZE DUP1 DUP1 ISZERO PUSH2 0x1E16 JUMPI PUSH1 0x40 MLOAD SWAP2 POP PUSH1 0x1F NOT PUSH1 0x3F RETURNDATASIZE ADD AND DUP3 ADD PUSH1 0x40 MSTORE RETURNDATASIZE DUP3 MSTORE RETURNDATASIZE PUSH1 0x0 PUSH1 0x20 DUP5 ADD RETURNDATACOPY PUSH2 0x1E1B JUMP JUMPDEST PUSH1 0x60 SWAP2 POP JUMPDEST POP DUP1 MLOAD PUSH2 0x1E3A JUMPI PUSH1 0x40 MLOAD PUSH3 0x461BCD PUSH1 0xE5 SHL DUP2 MSTORE PUSH1 0x4 ADD PUSH2 0x4A1 SWAP1 PUSH2 0x29E1 JUMP JUMPDEST DUP1 MLOAD DUP2 PUSH1 0x20 ADD REVERT JUMPDEST PUSH1 0x1 PUSH1 0x1 PUSH1 0xE0 SHL SUB NOT AND PUSH4 0xA85BD01 PUSH1 0xE1 SHL EQ SWAP1 POP PUSH2 0xD35 JUMP JUMPDEST POP PUSH1 0x1 SWAP5 SWAP4 POP POP POP POP JUMP JUMPDEST PUSH1 0x60 DUP2 PUSH2 0x1E8B JUMPI POP POP PUSH1 0x40 DUP1 MLOAD DUP1 DUP3 ADD SWAP1 SWAP2 MSTORE PUSH1 0x1 DUP2 MSTORE PUSH1 0x3 PUSH1 0xFC SHL PUSH1 0x20 DUP3 ADD MSTORE SWAP1 JUMP JUMPDEST DUP2 PUSH1 0x0 JUMPDEST DUP2 ISZERO PUSH2 0x1EB5 JUMPI DUP1 PUSH2 0x1E9F DUP2 PUSH2 0x299E JUMP JUMPDEST SWAP2 POP PUSH2 0x1EAE SWAP1 POP PUSH1 0xA DUP4 PUSH2 0x2AD0 JUMP JUMPDEST SWAP2 POP PUSH2 0x1E8F JUMP JUMPDEST PUSH1 0x0 DUP2 PUSH8 0xFFFFFFFFFFFFFFFF DUP2 GT ISZERO PUSH2 0x1ED0 JUMPI PUSH2 0x1ED0 PUSH2 0x21A8 JUMP JUMPDEST PUSH1 0x40 MLOAD SWAP1 DUP1 DUP3 MSTORE DUP1 PUSH1 0x1F ADD PUSH1 0x1F NOT AND PUSH1 0x20 ADD DUP3 ADD PUSH1 0x40 MSTORE DUP1 ISZERO PUSH2 0x1EFA JUMPI PUSH1 0x20 DUP3 ADD DUP2 DUP1 CALLDATASIZE DUP4 CALLDATACOPY ADD SWAP1 POP JUMPDEST POP SWAP1 POP JUMPDEST DUP5 ISZERO PUSH2 0xD35 JUMPI PUSH2 0x1F0F PUSH1 0x1 DUP4 PUSH2 0x2959 JUMP JUMPDEST SWAP2 POP PUSH2 0x1F1C PUSH1 0xA DUP7 PUSH2 0x2AE4 JUMP JUMPDEST PUSH2 0x1F27 SWAP1 PUSH1 0x30 PUSH2 0x2970 JUMP JUMPDEST PUSH1 0xF8 SHL DUP2 DUP4 DUP2 MLOAD DUP2 LT PUSH2 0x1F3C JUMPI PUSH2 0x1F3C PUSH2 0x2988 JUMP JUMPDEST PUSH1 0x20 ADD ADD SWAP1 PUSH1 0x1 PUSH1 0x1 PUSH1 0xF8 SHL SUB NOT AND SWAP1 DUP2 PUSH1 0x0 BYTE SWAP1 MSTORE8 POP PUSH2 0x1F5E PUSH1 0xA DUP7 PUSH2 0x2AD0 JUMP JUMPDEST SWAP5 POP PUSH2 0x1EFE JUMP JUMPDEST PUSH2 0x1F6F DUP4 DUP4 PUSH2 0x1F98 JUMP JUMPDEST PUSH2 0x1F7C PUSH1 0x0 DUP5 DUP5 DUP5 PUSH2 0x1D69 JUMP JUMPDEST PUSH2 0x831 JUMPI PUSH1 0x40 MLOAD PUSH3 0x461BCD PUSH1 0xE5 SHL DUP2 MSTORE PUSH1 0x4 ADD PUSH2 0x4A1 SWAP1 PUSH2 0x29E1 JUMP JUMPDEST PUSH1 0x1 PUSH1 0x1 PUSH1 0xA0 SHL SUB DUP3 AND PUSH2 0x1FEE JUMPI PUSH1 0x40 MLOAD PUSH3 0x461BCD PUSH1 0xE5 SHL DUP2 MSTORE PUSH1 0x20 PUSH1 0x4 DUP3 ADD DUP2 SWAP1 MSTORE PUSH1 0x24 DUP3 ADD MSTORE PUSH32 0x4552433732313A206D696E7420746F20746865207A65726F2061646472657373 PUSH1 0x44 DUP3 ADD MSTORE PUSH1 0x64 ADD PUSH2 0x4A1 JUMP JUMPDEST PUSH2 0x1FF7 DUP2 PUSH2 0xFCF JUMP JUMPDEST ISZERO PUSH2 0x2044 JUMPI PUSH1 0x40 MLOAD PUSH3 0x461BCD PUSH1 0xE5 SHL DUP2 MSTORE PUSH1 0x20 PUSH1 0x4 DUP3 ADD MSTORE PUSH1 0x1C PUSH1 0x24 DUP3 ADD MSTORE PUSH32 0x4552433732313A20746F6B656E20616C7265616479206D696E74656400000000 PUSH1 0x44 DUP3 ADD MSTORE PUSH1 0x64 ADD PUSH2 0x4A1 JUMP JUMPDEST PUSH1 0x1 PUSH1 0x1 PUSH1 0xA0 SHL SUB DUP3 AND PUSH1 0x0 SWAP1 DUP2 MSTORE PUSH1 0x3 PUSH1 0x20 MSTORE PUSH1 0x40 DUP2 KECCAK256 DUP1 SLOAD PUSH1 0x1 SWAP3 SWAP1 PUSH2 0x206D SWAP1 DUP5 SWAP1 PUSH2 0x2970 JUMP JUMPDEST SWAP1 SWAP2 SSTORE POP POP PUSH1 0x0 DUP2 DUP2 MSTORE PUSH1 0x2 PUSH1 0x20 MSTORE PUSH1 0x40 DUP1 DUP3 KECCAK256 DUP1 SLOAD PUSH1 0x1 PUSH1 0x1 PUSH1 0xA0 SHL SUB NOT AND PUSH1 0x1 PUSH1 0x1 PUSH1 0xA0 SHL SUB DUP7 AND SWAP1 DUP2 OR SWAP1 SWAP2 SSTORE SWAP1 MLOAD DUP4 SWAP3 SWAP1 PUSH32 0xDDF252AD1BE2C89B69C2B068FC378DAA952BA7F163C4A11628F55A4DF523B3EF SWAP1 DUP3 SWAP1 LOG4 POP POP JUMP JUMPDEST DUP3 DUP1 SLOAD PUSH2 0x20D7 SWAP1 PUSH2 0x282E JUMP JUMPDEST SWAP1 PUSH1 0x0 MSTORE PUSH1 0x20 PUSH1 0x0 KECCAK256 SWAP1 PUSH1 0x1F ADD PUSH1 0x20 SWAP1 DIV DUP2 ADD SWAP3 DUP3 PUSH2 0x20F9 JUMPI PUSH1 0x0 DUP6 SSTORE PUSH2 0x213F JUMP JUMPDEST DUP3 PUSH1 0x1F LT PUSH2 0x2112 JUMPI DUP1 MLOAD PUSH1 0xFF NOT AND DUP4 DUP1 ADD OR DUP6 SSTORE PUSH2 0x213F JUMP JUMPDEST DUP3 DUP1 ADD PUSH1 0x1 ADD DUP6 SSTORE DUP3 ISZERO PUSH2 0x213F JUMPI SWAP2 DUP3 ADD JUMPDEST DUP3 DUP2 GT ISZERO PUSH2 0x213F JUMPI DUP3 MLOAD DUP3 SSTORE SWAP2 PUSH1 0x20 ADD SWAP2 SWAP1 PUSH1 0x1 ADD SWAP1 PUSH2 0x2124 JUMP JUMPDEST POP PUSH2 0x214B SWAP3 SWAP2 POP PUSH2 0x2193 JUMP JUMPDEST POP SWAP1 JUMP JUMPDEST PUSH1 0x40 DUP1 MLOAD PUSH1 0x80 DUP2 ADD SWAP1 SWAP2 MSTORE PUSH1 0x60 DUP2 MSTORE PUSH1 0x20 DUP2 ADD PUSH1 0x0 JUMPDEST DUP2 MSTORE PUSH1 0x20 ADD PUSH1 0x0 DUP2 MSTORE PUSH1 0x20 ADD PUSH1 0x0 DUP2 MSTORE POP SWAP1 JUMP JUMPDEST PUSH1 0x40 DUP1 MLOAD PUSH1 0x80 DUP2 ADD SWAP1 SWAP2 MSTORE PUSH1 0x60 DUP2 MSTORE PUSH1 0x20 DUP2 ADD PUSH1 0x0 PUSH2 0x2165 JUMP JUMPDEST JUMPDEST DUP1 DUP3 GT ISZERO PUSH2 0x214B JUMPI PUSH1 0x0 DUP2 SSTORE PUSH1 0x1 ADD PUSH2 0x2194 JUMP JUMPDEST PUSH4 0x4E487B71 PUSH1 0xE0 SHL PUSH1 0x0 MSTORE PUSH1 0x41 PUSH1 0x4 MSTORE PUSH1 0x24 PUSH1 0x0 REVERT JUMPDEST PUSH1 0x0 PUSH8 0xFFFFFFFFFFFFFFFF DUP1 DUP5 GT ISZERO PUSH2 0x21D9 JUMPI PUSH2 0x21D9 PUSH2 0x21A8 JUMP JUMPDEST PUSH1 0x40 MLOAD PUSH1 0x1F DUP6 ADD PUSH1 0x1F NOT SWAP1 DUP2 AND PUSH1 0x3F ADD AND DUP2 ADD SWAP1 DUP3 DUP3 GT DUP2 DUP4 LT OR ISZERO PUSH2 0x2201 JUMPI PUSH2 0x2201 PUSH2 0x21A8 JUMP JUMPDEST DUP2 PUSH1 0x40 MSTORE DUP1 SWAP4 POP DUP6 DUP2 MSTORE DUP7 DUP7 DUP7 ADD GT ISZERO PUSH2 0x221A JUMPI PUSH1 0x0 DUP1 REVERT JUMPDEST DUP6 DUP6 PUSH1 0x20 DUP4 ADD CALLDATACOPY PUSH1 0x0 PUSH1 0x20 DUP8 DUP4 ADD ADD MSTORE POP POP POP SWAP4 SWAP3 POP POP POP JUMP JUMPDEST DUP1 CALLDATALOAD PUSH1 0xFF DUP2 AND DUP2 EQ PUSH2 0x2245 JUMPI PUSH1 0x0 DUP1 REVERT JUMPDEST SWAP2 SWAP1 POP JUMP JUMPDEST PUSH1 0x0 DUP1 PUSH1 0x0 PUSH1 0x60 DUP5 DUP7 SUB SLT ISZERO PUSH2 0x225F JUMPI PUSH1 0x0 DUP1 REVERT JUMPDEST DUP4 CALLDATALOAD PUSH8 0xFFFFFFFFFFFFFFFF DUP2 GT ISZERO PUSH2 0x2276 JUMPI PUSH1 0x0 DUP1 REVERT JUMPDEST DUP5 ADD PUSH1 0x1F DUP2 ADD DUP7 SGT PUSH2 0x2287 JUMPI PUSH1 0x0 DUP1 REVERT JUMPDEST PUSH2 0x2296 DUP7 DUP3 CALLDATALOAD PUSH1 0x20 DUP5 ADD PUSH2 0x21BE JUMP JUMPDEST SWAP4 POP POP PUSH2 0x22A5 PUSH1 0x20 DUP6 ADD PUSH2 0x2234 JUMP JUMPDEST SWAP2 POP PUSH2 0x22B3 PUSH1 0x40 DUP6 ADD PUSH2 0x2234 JUMP JUMPDEST SWAP1 POP SWAP3 POP SWAP3 POP SWAP3 JUMP JUMPDEST PUSH1 0x1 PUSH1 0x1 PUSH1 0xE0 SHL SUB NOT DUP2 AND DUP2 EQ PUSH2 0xE34 JUMPI PUSH1 0x0 DUP1 REVERT JUMPDEST PUSH1 0x0 PUSH1 0x20 DUP3 DUP5 SUB SLT ISZERO PUSH2 0x22E4 JUMPI PUSH1 0x0 DUP1 REVERT JUMPDEST DUP2 CALLDATALOAD PUSH2 0x1B46 DUP2 PUSH2 0x22BC JUMP JUMPDEST PUSH1 0x0 PUSH1 0x20 DUP3 DUP5 SUB SLT ISZERO PUSH2 0x2301 JUMPI PUSH1 0x0 DUP1 REVERT JUMPDEST POP CALLDATALOAD SWAP2 SWAP1 POP JUMP JUMPDEST PUSH1 0x0 JUMPDEST DUP4 DUP2 LT ISZERO PUSH2 0x2323 JUMPI DUP2 DUP2 ADD MLOAD DUP4 DUP3 ADD MSTORE PUSH1 0x20 ADD PUSH2 0x230B JUMP JUMPDEST DUP4 DUP2 GT ISZERO PUSH2 0xBC0 JUMPI POP POP PUSH1 0x0 SWAP2 ADD MSTORE JUMP JUMPDEST PUSH1 0x0 DUP2 MLOAD DUP1 DUP5 MSTORE PUSH2 0x234C DUP2 PUSH1 0x20 DUP7 ADD PUSH1 0x20 DUP7 ADD PUSH2 0x2308 JUMP JUMPDEST PUSH1 0x1F ADD PUSH1 0x1F NOT AND SWAP3 SWAP1 SWAP3 ADD PUSH1 0x20 ADD SWAP3 SWAP2 POP POP JUMP JUMPDEST PUSH4 0x4E487B71 PUSH1 0xE0 SHL PUSH1 0x0 MSTORE PUSH1 0x21 PUSH1 0x4 MSTORE PUSH1 0x24 PUSH1 0x0 REVERT JUMPDEST PUSH1 0x3 DUP2 LT PUSH2 0x2386 JUMPI PUSH2 0x2386 PUSH2 0x2360 JUMP JUMPDEST SWAP1 MSTORE JUMP JUMPDEST PUSH1 0x5 DUP2 LT PUSH2 0xE34 JUMPI PUSH2 0xE34 PUSH2 0x2360 JUMP JUMPDEST PUSH1 0x80 DUP2 MSTORE PUSH1 0x0 PUSH2 0x23AD PUSH1 0x80 DUP4 ADD DUP8 PUSH2 0x2334 JUMP JUMPDEST SWAP1 POP PUSH2 0x23BC PUSH1 0x20 DUP4 ADD DUP7 PUSH2 0x2376 JUMP JUMPDEST PUSH2 0x23C5 DUP5 PUSH2 0x238A JUMP JUMPDEST PUSH1 0x40 DUP3 ADD SWAP4 SWAP1 SWAP4 MSTORE PUSH1 0x60 ADD MSTORE SWAP3 SWAP2 POP POP JUMP JUMPDEST PUSH1 0x20 DUP2 MSTORE PUSH1 0x0 PUSH2 0x1B46 PUSH1 0x20 DUP4 ADD DUP5 PUSH2 0x2334 JUMP JUMPDEST DUP1 CALLDATALOAD PUSH1 0x1 PUSH1 0x1 PUSH1 0xA0 SHL SUB DUP2 AND DUP2 EQ PUSH2 0x2245 JUMPI PUSH1 0x0 DUP1 REVERT JUMPDEST PUSH1 0x0 DUP1 PUSH1 0x40 DUP4 DUP6 SUB SLT ISZERO PUSH2 0x2414 JUMPI PUSH1 0x0 DUP1 REVERT JUMPDEST PUSH2 0x241D DUP4 PUSH2 0x23EA JUMP JUMPDEST SWAP5 PUSH1 0x20 SWAP4 SWAP1 SWAP4 ADD CALLDATALOAD SWAP4 POP POP POP JUMP JUMPDEST PUSH1 0x0 DUP1 PUSH1 0x0 PUSH1 0x60 DUP5 DUP7 SUB SLT ISZERO PUSH2 0x2440 JUMPI PUSH1 0x0 DUP1 REVERT JUMPDEST PUSH2 0x2449 DUP5 PUSH2 0x23EA JUMP JUMPDEST SWAP3 POP PUSH2 0x2457 PUSH1 0x20 DUP6 ADD PUSH2 0x23EA JUMP JUMPDEST SWAP2 POP PUSH1 0x40 DUP5 ADD CALLDATALOAD SWAP1 POP SWAP3 POP SWAP3 POP SWAP3 JUMP JUMPDEST PUSH1 0x0 DUP2 MLOAD DUP1 DUP5 MSTORE PUSH1 0x20 DUP1 DUP6 ADD DUP1 DUP2 SWAP7 POP DUP4 PUSH1 0x5 SHL DUP2 ADD SWAP2 POP DUP3 DUP7 ADD PUSH1 0x0 JUMPDEST DUP6 DUP2 LT ISZERO PUSH2 0x24E9 JUMPI DUP3 DUP5 SUB DUP10 MSTORE DUP2 MLOAD PUSH1 0x80 DUP2 MLOAD DUP2 DUP8 MSTORE PUSH2 0x24A7 DUP3 DUP9 ADD DUP3 PUSH2 0x2334 JUMP JUMPDEST SWAP2 POP POP DUP7 DUP3 ADD MLOAD PUSH2 0x24B7 DUP2 PUSH2 0x238A JUMP JUMPDEST DUP7 DUP9 ADD MSTORE PUSH1 0x40 DUP3 DUP2 ADD MLOAD PUSH2 0x24CA DUP2 PUSH2 0x238A JUMP JUMPDEST SWAP1 DUP8 ADD MSTORE PUSH1 0x60 SWAP2 DUP3 ADD MLOAD SWAP2 SWAP1 SWAP6 ADD MSTORE SWAP8 DUP5 ADD SWAP8 SWAP1 DUP5 ADD SWAP1 PUSH1 0x1 ADD PUSH2 0x2485 JUMP JUMPDEST POP SWAP2 SWAP8 SWAP7 POP POP POP POP POP POP POP JUMP JUMPDEST PUSH1 0x20 DUP2 MSTORE PUSH1 0x0 PUSH2 0x1B46 PUSH1 0x20 DUP4 ADD DUP5 PUSH2 0x2467 JUMP JUMPDEST PUSH1 0x0 DUP2 MLOAD DUP1 DUP5 MSTORE PUSH1 0x20 DUP1 DUP6 ADD DUP1 DUP2 SWAP7 POP DUP4 PUSH1 0x5 SHL DUP2 ADD SWAP2 POP DUP3 DUP7 ADD PUSH1 0x0 JUMPDEST DUP6 DUP2 LT ISZERO PUSH2 0x24E9 JUMPI DUP3 DUP5 SUB DUP10 MSTORE DUP2 MLOAD PUSH1 0x80 DUP2 MLOAD DUP2 DUP8 MSTORE PUSH2 0x2549 DUP3 DUP9 ADD DUP3 PUSH2 0x2334 JUMP JUMPDEST SWAP2 POP POP DUP7 DUP3 ADD MLOAD PUSH2 0x255C DUP9 DUP9 ADD DUP3 PUSH2 0x2376 JUMP JUMPDEST POP PUSH1 0x40 DUP1 DUP4 ADD MLOAD PUSH2 0x256C DUP2 PUSH2 0x238A JUMP JUMPDEST SWAP1 DUP8 ADD MSTORE PUSH1 0x60 SWAP2 DUP3 ADD MLOAD SWAP2 SWAP1 SWAP6 ADD MSTORE SWAP8 DUP5 ADD SWAP8 SWAP1 DUP5 ADD SWAP1 PUSH1 0x1 ADD PUSH2 0x2527 JUMP JUMPDEST PUSH1 0x20 DUP2 MSTORE PUSH1 0x0 PUSH2 0x1B46 PUSH1 0x20 DUP4 ADD DUP5 PUSH2 0x2509 JUMP JUMPDEST PUSH1 0x0 PUSH1 0x20 DUP3 DUP5 SUB SLT ISZERO PUSH2 0x25B0 JUMPI PUSH1 0x0 DUP1 REVERT JUMPDEST PUSH2 0x1B46 DUP3 PUSH2 0x23EA JUMP JUMPDEST PUSH1 0x7 DUP2 LT PUSH2 0x2386 JUMPI PUSH2 0x2386 PUSH2 0x2360 JUMP JUMPDEST PUSH1 0x0 DUP2 MLOAD DUP1 DUP5 MSTORE PUSH1 0x20 DUP1 DUP6 ADD DUP1 DUP2 SWAP7 POP DUP4 PUSH1 0x5 SHL DUP2 ADD SWAP2 POP DUP3 DUP7 ADD PUSH1 0x0 JUMPDEST DUP6 DUP2 LT ISZERO PUSH2 0x24E9 JUMPI DUP3 DUP5 SUB DUP10 MSTORE DUP2 MLOAD PUSH1 0x80 DUP2 MLOAD DUP2 DUP8 MSTORE PUSH2 0x2609 DUP3 DUP9 ADD DUP3 PUSH2 0x2334 JUMP JUMPDEST SWAP2 POP POP DUP7 DUP3 ADD MLOAD PUSH2 0x261C DUP9 DUP9 ADD DUP3 PUSH2 0x25B9 JUMP JUMPDEST POP PUSH1 0x40 DUP1 DUP4 ADD MLOAD PUSH2 0x262C DUP2 PUSH2 0x238A JUMP JUMPDEST SWAP1 DUP8 ADD MSTORE PUSH1 0x60 SWAP2 DUP3 ADD MLOAD SWAP2 SWAP1 SWAP6 ADD MSTORE SWAP8 DUP5 ADD SWAP8 SWAP1 DUP5 ADD SWAP1 PUSH1 0x1 ADD PUSH2 0x25E7 JUMP JUMPDEST PUSH1 0x20 DUP2 MSTORE PUSH1 0x0 DUP3 MLOAD PUSH1 0x60 PUSH1 0x20 DUP5 ADD MSTORE PUSH2 0x2667 PUSH1 0x80 DUP5 ADD DUP3 PUSH2 0x2467 JUMP JUMPDEST SWAP1 POP PUSH1 0x20 DUP5 ADD MLOAD PUSH1 0x1F NOT DUP1 DUP6 DUP5 SUB ADD PUSH1 0x40 DUP7 ADD MSTORE PUSH2 0x2685 DUP4 DUP4 PUSH2 0x25C9 JUMP JUMPDEST SWAP3 POP PUSH1 0x40 DUP7 ADD MLOAD SWAP2 POP DUP1 DUP6 DUP5 SUB ADD PUSH1 0x60 DUP7 ADD MSTORE POP PUSH2 0x26A3 DUP3 DUP3 PUSH2 0x2509 JUMP JUMPDEST SWAP6 SWAP5 POP POP POP POP POP JUMP JUMPDEST PUSH1 0x80 DUP2 MSTORE PUSH1 0x0 PUSH2 0x26BF PUSH1 0x80 DUP4 ADD DUP8 PUSH2 0x2334 JUMP JUMPDEST SWAP1 POP PUSH2 0x26CA DUP6 PUSH2 0x238A JUMP JUMPDEST DUP5 PUSH1 0x20 DUP4 ADD MSTORE PUSH2 0x23C5 DUP5 PUSH2 0x238A JUMP JUMPDEST PUSH1 0x0 DUP1 PUSH1 0x40 DUP4 DUP6 SUB SLT ISZERO PUSH2 0x26EC JUMPI PUSH1 0x0 DUP1 REVERT JUMPDEST PUSH2 0x26F5 DUP4 PUSH2 0x23EA JUMP JUMPDEST SWAP2 POP PUSH1 0x20 DUP4 ADD CALLDATALOAD DUP1 ISZERO ISZERO DUP2 EQ PUSH2 0x270A JUMPI PUSH1 0x0 DUP1 REVERT JUMPDEST DUP1 SWAP2 POP POP SWAP3 POP SWAP3 SWAP1 POP JUMP JUMPDEST PUSH1 0x0 DUP1 PUSH1 0x0 DUP1 PUSH1 0x80 DUP6 DUP8 SUB SLT ISZERO PUSH2 0x272B JUMPI PUSH1 0x0 DUP1 REVERT JUMPDEST PUSH2 0x2734 DUP6 PUSH2 0x23EA JUMP JUMPDEST SWAP4 POP PUSH2 0x2742 PUSH1 0x20 DUP7 ADD PUSH2 0x23EA JUMP JUMPDEST SWAP3 POP PUSH1 0x40 DUP6 ADD CALLDATALOAD SWAP2 POP PUSH1 0x60 DUP6 ADD CALLDATALOAD PUSH8 0xFFFFFFFFFFFFFFFF DUP2 GT ISZERO PUSH2 0x2765 JUMPI PUSH1 0x0 DUP1 REVERT JUMPDEST DUP6 ADD PUSH1 0x1F DUP2 ADD DUP8 SGT PUSH2 0x2776 JUMPI PUSH1 0x0 DUP1 REVERT JUMPDEST PUSH2 0x2785 DUP8 DUP3 CALLDATALOAD PUSH1 0x20 DUP5 ADD PUSH2 0x21BE JUMP JUMPDEST SWAP2 POP POP SWAP3 SWAP6 SWAP2 SWAP5 POP SWAP3 POP JUMP JUMPDEST PUSH1 0x80 DUP2 MSTORE PUSH1 0x0 PUSH2 0x27A4 PUSH1 0x80 DUP4 ADD DUP8 PUSH2 0x2334 JUMP JUMPDEST SWAP1 POP PUSH2 0x23BC PUSH1 0x20 DUP4 ADD DUP7 PUSH2 0x25B9 JUMP JUMPDEST PUSH1 0x0 DUP1 PUSH1 0x40 DUP4 DUP6 SUB SLT ISZERO PUSH2 0x27C6 JUMPI PUSH1 0x0 DUP1 REVERT JUMPDEST PUSH2 0x27CF DUP4 PUSH2 0x23EA JUMP JUMPDEST SWAP2 POP PUSH2 0x27DD PUSH1 0x20 DUP5 ADD PUSH2 0x23EA JUMP JUMPDEST SWAP1 POP SWAP3 POP SWAP3 SWAP1 POP JUMP JUMPDEST PUSH1 0x20 DUP2 MSTORE PUSH1 0x0 PUSH2 0x1B46 PUSH1 0x20 DUP4 ADD DUP5 PUSH2 0x25C9 JUMP JUMPDEST PUSH1 0x20 DUP1 DUP3 MSTORE DUP2 DUP2 ADD MSTORE PUSH32 0x4F776E61626C653A2063616C6C6572206973206E6F7420746865206F776E6572 PUSH1 0x40 DUP3 ADD MSTORE PUSH1 0x60 ADD SWAP1 JUMP JUMPDEST PUSH1 0x1 DUP2 DUP2 SHR SWAP1 DUP3 AND DUP1 PUSH2 0x2842 JUMPI PUSH1 0x7F DUP3 AND SWAP2 POP JUMPDEST PUSH1 0x20 DUP3 LT DUP2 EQ ISZERO PUSH2 0x14BD JUMPI PUSH4 0x4E487B71 PUSH1 0xE0 SHL PUSH1 0x0 MSTORE PUSH1 0x22 PUSH1 0x4 MSTORE PUSH1 0x24 PUSH1 0x0 REVERT JUMPDEST PUSH1 0x20 DUP1 DUP3 MSTORE PUSH1 0x31 SWAP1 DUP3 ADD MSTORE PUSH32 0x4552433732313A207472616E736665722063616C6C6572206973206E6F74206F PUSH1 0x40 DUP3 ADD MSTORE PUSH17 0x1DDB995C881B9BDC88185C1C1C9BDD9959 PUSH1 0x7A SHL PUSH1 0x60 DUP3 ADD MSTORE PUSH1 0x80 ADD SWAP1 JUMP JUMPDEST PUSH1 0x0 DUP4 MLOAD PUSH2 0x28C6 DUP2 DUP5 PUSH1 0x20 DUP9 ADD PUSH2 0x2308 JUMP JUMPDEST DUP4 MLOAD SWAP1 DUP4 ADD SWAP1 PUSH2 0x28DA DUP2 DUP4 PUSH1 0x20 DUP9 ADD PUSH2 0x2308 JUMP JUMPDEST ADD SWAP5 SWAP4 POP POP POP POP JUMP JUMPDEST PUSH1 0xA0 DUP2 MSTORE PUSH1 0x6 PUSH1 0xA0 DUP3 ADD MSTORE PUSH6 0x53746167653 PUSH1 0xD4 SHL PUSH1 0xC0 DUP3 ADD MSTORE PUSH2 0x2906 DUP6 PUSH2 0x238A JUMP JUMPDEST DUP5 PUSH1 0x20 DUP3 ADD MSTORE PUSH1 0xE0 PUSH1 0x40 DUP3 ADD MSTORE PUSH1 0x0 PUSH2 0x2922 PUSH1 0xE0 DUP4 ADD DUP7 PUSH2 0x2334 JUMP JUMPDEST PUSH1 0x60 DUP4 ADD SWAP5 SWAP1 SWAP5 MSTORE POP PUSH1 0x1 PUSH1 0x1 PUSH1 0xA0 SHL SUB SWAP2 SWAP1 SWAP2 AND PUSH1 0x80 SWAP1 SWAP2 ADD MSTORE SWAP3 SWAP2 POP POP JUMP JUMPDEST PUSH4 0x4E487B71 PUSH1 0xE0 SHL PUSH1 0x0 MSTORE PUSH1 0x11 PUSH1 0x4 MSTORE PUSH1 0x24 PUSH1 0x0 REVERT JUMPDEST PUSH1 0x0 DUP3 DUP3 LT ISZERO PUSH2 0x296B JUMPI PUSH2 0x296B PUSH2 0x2943 JUMP JUMPDEST POP SUB SWAP1 JUMP JUMPDEST PUSH1 0x0 DUP3 NOT DUP3 GT ISZERO PUSH2 0x2983 JUMPI PUSH2 0x2983 PUSH2 0x2943 JUMP JUMPDEST POP ADD SWAP1 JUMP JUMPDEST PUSH4 0x4E487B71 PUSH1 0xE0 SHL PUSH1 0x0 MSTORE PUSH1 0x32 PUSH1 0x4 MSTORE PUSH1 0x24 PUSH1 0x0 REVERT JUMPDEST PUSH1 0x0 PUSH1 0x0 NOT DUP3 EQ ISZERO PUSH2 0x29B2 JUMPI PUSH2 0x29B2 PUSH2 0x2943 JUMP JUMPDEST POP PUSH1 0x1 ADD SWAP1 JUMP JUMPDEST PUSH1 0xA0 DUP2 MSTORE PUSH1 0xB PUSH1 0xA0 DUP3 ADD MSTORE PUSH11 0x436F6C6C65637469626C65 PUSH1 0xA8 SHL PUSH1 0xC0 DUP3 ADD MSTORE PUSH2 0x2906 DUP6 PUSH2 0x238A JUMP JUMPDEST PUSH1 0x20 DUP1 DUP3 MSTORE PUSH1 0x32 SWAP1 DUP3 ADD MSTORE PUSH32 0x4552433732313A207472616E7366657220746F206E6F6E204552433732315265 PUSH1 0x40 DUP3 ADD MSTORE PUSH18 0x31B2B4BB32B91034B6B83632B6B2B73A32B9 PUSH1 0x71 SHL PUSH1 0x60 DUP3 ADD MSTORE PUSH1 0x80 ADD SWAP1 JUMP JUMPDEST PUSH1 0xA0 DUP2 MSTORE PUSH1 0x10 PUSH1 0xA0 DUP3 ADD MSTORE PUSH16 0x576974687374616E64204B6169726F73 PUSH1 0x80 SHL PUSH1 0xC0 DUP3 ADD MSTORE PUSH2 0x2906 DUP6 PUSH2 0x238A JUMP JUMPDEST PUSH1 0x1 PUSH1 0x1 PUSH1 0xA0 SHL SUB DUP6 DUP2 AND DUP3 MSTORE DUP5 AND PUSH1 0x20 DUP3 ADD MSTORE PUSH1 0x40 DUP2 ADD DUP4 SWAP1 MSTORE PUSH1 0x80 PUSH1 0x60 DUP3 ADD DUP2 SWAP1 MSTORE PUSH1 0x0 SWAP1 PUSH2 0x2A93 SWAP1 DUP4 ADD DUP5 PUSH2 0x2334 JUMP JUMPDEST SWAP7 SWAP6 POP POP POP POP POP POP JUMP JUMPDEST PUSH1 0x0 PUSH1 0x20 DUP3 DUP5 SUB SLT ISZERO PUSH2 0x2AAF JUMPI PUSH1 0x0 DUP1 REVERT JUMPDEST DUP2 MLOAD PUSH2 0x1B46 DUP2 PUSH2 0x22BC JUMP JUMPDEST PUSH4 0x4E487B71 PUSH1 0xE0 SHL PUSH1 0x0 MSTORE PUSH1 0x12 PUSH1 0x4 MSTORE PUSH1 0x24 PUSH1 0x0 REVERT JUMPDEST PUSH1 0x0 DUP3 PUSH2 0x2ADF JUMPI PUSH2 0x2ADF PUSH2 0x2ABA JUMP JUMPDEST POP DIV SWAP1 JUMP JUMPDEST PUSH1 0x0 DUP3 PUSH2 0x2AF3 JUMPI PUSH2 0x2AF3 PUSH2 0x2ABA JUMP JUMPDEST POP MOD SWAP1 JUMP INVALID LOG2 PUSH5 0x6970667358 0x22 SLT KECCAK256 BASEFEE 0xBB SWAP2 0xB0 SHR 0xC3 SWAP9 PUSH9 0xC7D94E72F49C423813 PUSH21 0xA03C99CE42E5C2F3331F26EDAAD964736F6C634300 ADDMOD EXP STOP CALLER ",
    "sha1": "e27f0fc7130f8e6267ad522f628d06806b46a6de",
    "source": "// SPDX-License-Identifier: MIT\npragma solidity ^0.8.0;\npragma experimental ABIEncoderV2;\n \nimport \"@openzeppelin/contracts/token/ERC721/extensions/ERC721URIStorage.sol\";\nimport \"@openzeppelin/contracts/access/Ownable.sol\";\nimport \"./NftTypes/Stage0NFT.sol\";\nimport \"./NftTypes/CollectibleNFT.sol\";\nimport \"./NftTypes/WithstandKairosNFT.sol\";\nimport \"./NftTypes/utils/Rarity.sol\";\n\n\ncontract CosmicNFT is ERC721URIStorage, HasRarity,Ownable, Stage0NFT, CollectibleNFT, WithstandKairosNFT {\n\n    struct CosmicCollection {\n        S0Metadata[] s0NFTs;\n        WkMetadata[] wkNFTs;\n        CMetadata[] cNFTs;\n    }\n\n  \n    constructor (string memory _name, string memory _symbol) ERC721(_name,_symbol) { }\n\n    uint[] public cosmicNfts;\n\n\n    function mint(string memory _uri) internal {\n        _safeMint(msg.sender, cosmicNfts.length);\n        _setTokenURI(cosmicNfts.length, _uri);\n    }\n\n    function mintStage0Nft (string memory _uri, uint8 _class, uint8 _rarity) external onlyOwner {\n        mint(_uri);\n        _setupS0NFT(_uri, _class, _rarity, cosmicNfts.length);\n        cosmicNfts.push(cosmicNfts.length);\n    }\n\n    function mintWithstandKairosNFT (string memory _uri, uint8 _class, uint8 _rarity) external onlyOwner {\n        mint(_uri);\n        _setupWkNFT(_uri, _class, _rarity, cosmicNfts.length);\n        cosmicNfts.push(cosmicNfts.length);\n    }\n\n     function mintCollectibleNFT (string memory _uri, uint8 _class, uint8 _rarity) external onlyOwner {\n        mint(_uri);\n        _setupCNFT(_uri, _class, _rarity, cosmicNfts.length);\n        cosmicNfts.push(cosmicNfts.length);\n    }\n\n    function listS0NFTs () external view returns(S0Metadata[] memory) {\n        return _listS0NFTs();\n    }\n\n    function listWkNFTs () external view returns(WkMetadata[] memory) {\n        return _listWkNFTs();\n    }\n\n    function listCNFTs () external view returns(CMetadata[] memory) {\n        return _listCNFTs();\n    }\n\n \n    function listAllNFTs () external view returns (CosmicCollection memory) {\n        CosmicCollection memory _cosmicCollection = CosmicCollection(_listS0NFTs(), _listWkNFTs(), _listCNFTs());\n        return _cosmicCollection;\n    }\n\n    function getMintedAmount () external view returns (uint _size) {\n        _size=cosmicNfts.length;\n    }\n\n}",
    "sourcePath": "contracts/CosmicNFT.sol",
    "type": "contract"
}