{
    "abi": [
        {
            "inputs": [
                {
                    "internalType": "uint256",
                    "name": "_feePercent",
                    "type": "uint256"
                },
                {
                    "internalType": "address",
                    "name": "_feeAccount",
                    "type": "address"
                }
            ],
            "stateMutability": "nonpayable",
            "type": "constructor"
        },
        {
            "inputs": [],
            "name": "OnlySimulatedBackend",
            "type": "error"
        },
        {
            "anonymous": false,
            "inputs": [
                {
                    "indexed": false,
                    "internalType": "uint256",
                    "name": "itemId",
                    "type": "uint256"
                },
                {
                    "indexed": true,
                    "internalType": "address",
                    "name": "bidder",
                    "type": "address"
                },
                {
                    "indexed": false,
                    "internalType": "uint256",
                    "name": "amount",
                    "type": "uint256"
                },
                {
                    "indexed": false,
                    "internalType": "uint256",
                    "name": "timestamp",
                    "type": "uint256"
                }
            ],
            "name": "BidRequest",
            "type": "event"
        },
        {
            "anonymous": false,
            "inputs": [
                {
                    "indexed": false,
                    "internalType": "uint256",
                    "name": "itemId",
                    "type": "uint256"
                },
                {
                    "indexed": true,
                    "internalType": "address",
                    "name": "nft",
                    "type": "address"
                },
                {
                    "indexed": false,
                    "internalType": "uint256",
                    "name": "tokenId",
                    "type": "uint256"
                },
                {
                    "indexed": false,
                    "internalType": "uint256",
                    "name": "price",
                    "type": "uint256"
                },
                {
                    "indexed": false,
                    "internalType": "enum Marketplace.PurchaseType",
                    "name": "purhcaseType",
                    "type": "uint8"
                },
                {
                    "indexed": true,
                    "internalType": "address",
                    "name": "seller",
                    "type": "address"
                },
                {
                    "indexed": true,
                    "internalType": "address",
                    "name": "buyer",
                    "type": "address"
                },
                {
                    "indexed": false,
                    "internalType": "uint256",
                    "name": "timestamp",
                    "type": "uint256"
                }
            ],
            "name": "ItemPurchased",
            "type": "event"
        },
        {
            "anonymous": false,
            "inputs": [
                {
                    "indexed": false,
                    "internalType": "uint256",
                    "name": "itemId",
                    "type": "uint256"
                },
                {
                    "indexed": true,
                    "internalType": "address",
                    "name": "nft",
                    "type": "address"
                },
                {
                    "indexed": false,
                    "internalType": "uint256",
                    "name": "tokenId",
                    "type": "uint256"
                },
                {
                    "indexed": false,
                    "internalType": "uint256",
                    "name": "bidStartPrice",
                    "type": "uint256"
                },
                {
                    "indexed": false,
                    "internalType": "uint256",
                    "name": "auctionDuration",
                    "type": "uint256"
                },
                {
                    "indexed": false,
                    "internalType": "uint256",
                    "name": "buyoutPrice",
                    "type": "uint256"
                },
                {
                    "indexed": true,
                    "internalType": "address",
                    "name": "seller",
                    "type": "address"
                },
                {
                    "indexed": false,
                    "internalType": "uint256",
                    "name": "timestamp",
                    "type": "uint256"
                }
            ],
            "name": "Listed",
            "type": "event"
        },
        {
            "inputs": [
                {
                    "internalType": "uint256",
                    "name": "_itemId",
                    "type": "uint256"
                }
            ],
            "name": "buyoutItem",
            "outputs": [],
            "stateMutability": "payable",
            "type": "function"
        },
        {
            "inputs": [
                {
                    "internalType": "bytes",
                    "name": "",
                    "type": "bytes"
                }
            ],
            "name": "checkUpkeep",
            "outputs": [
                {
                    "internalType": "bool",
                    "name": "upkeepNeeded",
                    "type": "bool"
                },
                {
                    "internalType": "bytes",
                    "name": "performData",
                    "type": "bytes"
                }
            ],
            "stateMutability": "view",
            "type": "function"
        },
        {
            "inputs": [],
            "name": "feeAccount",
            "outputs": [
                {
                    "internalType": "address payable",
                    "name": "",
                    "type": "address"
                }
            ],
            "stateMutability": "view",
            "type": "function"
        },
        {
            "inputs": [],
            "name": "feePercentage",
            "outputs": [
                {
                    "internalType": "uint256",
                    "name": "",
                    "type": "uint256"
                }
            ],
            "stateMutability": "view",
            "type": "function"
        },
        {
            "inputs": [
                {
                    "internalType": "uint256",
                    "name": "_itemId",
                    "type": "uint256"
                }
            ],
            "name": "getFee",
            "outputs": [
                {
                    "internalType": "uint256",
                    "name": "",
                    "type": "uint256"
                }
            ],
            "stateMutability": "view",
            "type": "function"
        },
        {
            "inputs": [
                {
                    "internalType": "uint256",
                    "name": "",
                    "type": "uint256"
                }
            ],
            "name": "items",
            "outputs": [
                {
                    "internalType": "uint256",
                    "name": "itemId",
                    "type": "uint256"
                },
                {
                    "internalType": "contract IERC721",
                    "name": "nftContract",
                    "type": "address"
                },
                {
                    "internalType": "uint256",
                    "name": "tokenId",
                    "type": "uint256"
                },
                {
                    "internalType": "uint256",
                    "name": "bidStartPrice",
                    "type": "uint256"
                },
                {
                    "internalType": "uint256",
                    "name": "auctionDuration",
                    "type": "uint256"
                },
                {
                    "internalType": "uint256",
                    "name": "buyoutPrice",
                    "type": "uint256"
                },
                {
                    "internalType": "address payable",
                    "name": "seller",
                    "type": "address"
                },
                {
                    "components": [
                        {
                            "internalType": "address",
                            "name": "bidder",
                            "type": "address"
                        },
                        {
                            "internalType": "uint256",
                            "name": "amount",
                            "type": "uint256"
                        }
                    ],
                    "internalType": "struct Marketplace.Bid",
                    "name": "lastBid",
                    "type": "tuple"
                },
                {
                    "internalType": "bool",
                    "name": "sold",
                    "type": "bool"
                },
                {
                    "internalType": "uint256",
                    "name": "auctonStartTimestamp",
                    "type": "uint256"
                }
            ],
            "stateMutability": "view",
            "type": "function"
        },
        {
            "inputs": [
                {
                    "internalType": "uint256",
                    "name": "",
                    "type": "uint256"
                }
            ],
            "name": "itemsForSale",
            "outputs": [
                {
                    "internalType": "uint256",
                    "name": "",
                    "type": "uint256"
                }
            ],
            "stateMutability": "view",
            "type": "function"
        },
        {
            "inputs": [],
            "name": "listItems",
            "outputs": [
                {
                    "components": [
                        {
                            "internalType": "uint256",
                            "name": "itemId",
                            "type": "uint256"
                        },
                        {
                            "internalType": "contract IERC721",
                            "name": "nftContract",
                            "type": "address"
                        },
                        {
                            "internalType": "uint256",
                            "name": "tokenId",
                            "type": "uint256"
                        },
                        {
                            "internalType": "uint256",
                            "name": "bidStartPrice",
                            "type": "uint256"
                        },
                        {
                            "internalType": "uint256",
                            "name": "auctionDuration",
                            "type": "uint256"
                        },
                        {
                            "internalType": "uint256",
                            "name": "buyoutPrice",
                            "type": "uint256"
                        },
                        {
                            "internalType": "address payable",
                            "name": "seller",
                            "type": "address"
                        },
                        {
                            "components": [
                                {
                                    "internalType": "address",
                                    "name": "bidder",
                                    "type": "address"
                                },
                                {
                                    "internalType": "uint256",
                                    "name": "amount",
                                    "type": "uint256"
                                }
                            ],
                            "internalType": "struct Marketplace.Bid",
                            "name": "lastBid",
                            "type": "tuple"
                        },
                        {
                            "internalType": "bool",
                            "name": "sold",
                            "type": "bool"
                        },
                        {
                            "internalType": "uint256",
                            "name": "auctonStartTimestamp",
                            "type": "uint256"
                        }
                    ],
                    "internalType": "struct Marketplace.Item[]",
                    "name": "",
                    "type": "tuple[]"
                }
            ],
            "stateMutability": "view",
            "type": "function"
        },
        {
            "inputs": [],
            "name": "listItemsForSale",
            "outputs": [
                {
                    "internalType": "uint256[]",
                    "name": "",
                    "type": "uint256[]"
                }
            ],
            "stateMutability": "view",
            "type": "function"
        },
        {
            "inputs": [
                {
                    "internalType": "uint256",
                    "name": "_itemId",
                    "type": "uint256"
                }
            ],
            "name": "makeBidOnItem",
            "outputs": [],
            "stateMutability": "payable",
            "type": "function"
        },
        {
            "inputs": [
                {
                    "internalType": "contract IERC721",
                    "name": "_nft",
                    "type": "address"
                },
                {
                    "internalType": "uint256",
                    "name": "_tokenId",
                    "type": "uint256"
                },
                {
                    "internalType": "uint256",
                    "name": "_bidStartPrice",
                    "type": "uint256"
                },
                {
                    "internalType": "uint256",
                    "name": "_buyoutPrice",
                    "type": "uint256"
                },
                {
                    "internalType": "uint256",
                    "name": "_auctionDuration",
                    "type": "uint256"
                }
            ],
            "name": "makeItem",
            "outputs": [],
            "stateMutability": "nonpayable",
            "type": "function"
        },
        {
            "inputs": [
                {
                    "internalType": "bytes",
                    "name": "performData",
                    "type": "bytes"
                }
            ],
            "name": "performUpkeep",
            "outputs": [],
            "stateMutability": "nonpayable",
            "type": "function"
        }
    ],
    "bytecode": "60c060405234801561001057600080fd5b50604051611aa5380380611aa583398101604081905261002f91610048565b60016000556001600160a01b031660805260a052610085565b6000806040838503121561005b57600080fd5b825160208401519092506001600160a01b038116811461007a57600080fd5b809150509250929050565b60805160a0516119e66100bf600039600081816102040152610d2c01526000818161015701528181610e7a015261116b01526119e66000f3fe6080604052600436106100a75760003560e01c80637e961c11116100645780637e961c11146101bf57806398d29674146101d2578063a001ecdd146101f2578063bfb231d214610226578063c9e8d311146102d2578063fcee45f4146102e557600080fd5b8063092d0afc146100ac578063355eefc8146100df578063373c52a5146101015780634585e33b1461012357806365e17c9d146101455780636e04ff0d14610191575b600080fd5b3480156100b857600080fd5b506100cc6100c73660046114b5565b610305565b6040519081526020015b60405180910390f35b3480156100eb57600080fd5b506100f4610326565b6040516100d691906114ce565b34801561010d57600080fd5b5061011661046d565b6040516100d691906115ac565b34801561012f57600080fd5b5061014361013e3660046115f0565b6104c5565b005b34801561015157600080fd5b506101797f000000000000000000000000000000000000000000000000000000000000000081565b6040516001600160a01b0390911681526020016100d6565b34801561019d57600080fd5b506101b16101ac3660046115f0565b61052d565b6040516100d6929190611662565b6101436101cd3660046114b5565b61072c565b3480156101de57600080fd5b506101436101ed3660046116c1565b61076f565b3480156101fe57600080fd5b506100cc7f000000000000000000000000000000000000000000000000000000000000000081565b34801561023257600080fd5b506102bc6102413660046114b5565b600260208181526000928352604092839020805460018201549382015460038301546004840154600585015460068601548951808b01909a5260078701546001600160a01b039081168b526008880154988b01989098526009870154600a9097015495999888169894979396929591949316929160ff16908a565b6040516100d69a99989796959493929190611711565b6101436102e03660046114b5565b610aa2565b3480156102f157600080fd5b506100cc6103003660046114b5565b610d11565b6003818154811061031557600080fd5b600091825260209091200154905081565b6060600060015467ffffffffffffffff81111561034557610345611786565b60405190808252806020026020018201604052801561037e57816020015b61036b61142c565b8152602001906001900390816103635790505b50905060005b600154811015610467576000818152600260208181526040928390208351610140810185528154815260018201546001600160a01b039081168285015293820154818601526003820154606082015260048201546080820152600582015460a08201526006820154841660c082015284518086019095526007820154909316845260088101549184019190915260e0820192909252600982015460ff161515610100820152600a82015461012082015283518490849081106104485761044861179c565b602002602001018190525050808061045f906117c8565b915050610384565b50919050565b606060038054806020026020016040519081016040528092919081815260200182805480156104bb57602002820191906000526020600020905b8154815260200190600101908083116104a7575b5050505050905090565b60006104d3828401846117e3565b905060005b815181101561052757610515600260008484815181106104fa576104fa61179c565b60200260200101518152602001908152602001600020610d61565b8061051f816117c8565b9150506104d8565b50505050565b60006060600060038054905067ffffffffffffffff81111561055157610551611786565b60405190808252806020026020018201604052801561057a578160200160208202803683370190505b5090506000805b60035481101561065e5760026000600383815481106105a2576105a261179c565b906000526020600020015481526020019081526020016000206004015460026000600384815481106105d6576105d661179c565b90600052602060002001548152602001908152602001600020600a0154426105fe91906118a1565b1061064c57600381815481106106165761061661179c565b90600052602060002001548383815181106106335761063361179c565b602090810291909101015281610648816117c8565b9250505b80610656816117c8565b915050610581565b5060008167ffffffffffffffff81111561067a5761067a611786565b6040519080825280602002602001820160405280156106a3578160200160208202803683370190505b50905060005b828110156106fa578381815181106106c3576106c361179c565b60200260200101518282815181106106dd576106dd61179c565b6020908102919091010152806106f2816117c8565b9150506106a9565b508060405160200161070c91906115ac565b60408051601f198184030181529190529051151597909650945050505050565b600260005414156107585760405162461bcd60e51b815260040161074f906118b8565b60405180910390fd5b60026000556107678134610fc9565b506001600055565b600260005414156107925760405162461bcd60e51b815260040161074f906118b8565b6002600055816107e45760405162461bcd60e51b815260206004820152601e60248201527f5072696365206d75737420626520686967686572207468616e207a65726f0000604482015260640161074f565b6040516323b872dd60e01b81526001600160a01b038616906323b872dd90610814903390309089906004016118ef565b600060405180830381600087803b15801561082e57600080fd5b505af1158015610842573d6000803e3d6000fd5b505050506040518061014001604052806001548152602001866001600160a01b03168152602001858152602001848152602001828152602001838152602001336001600160a01b03168152602001604051806040016040528060006001600160a01b0316815260200160008152508152602001600015158152602001428152506002600060015481526020019081526020016000206000820151816000015560208201518160010160006101000a8154816001600160a01b0302191690836001600160a01b0316021790555060408201518160020155606082015181600301556080820151816004015560a0820151816005015560c08201518160060160006101000a8154816001600160a01b0302191690836001600160a01b0316021790555060e08201518160070160008201518160000160006101000a8154816001600160a01b0302191690836001600160a01b031602179055506020820151816001015550506101008201518160090160006101000a81548160ff02191690831515021790555061012082015181600a0155905050336001600160a01b0316856001600160a01b03167f965306565771069d1bf699c6e35ddd0f7e614c0c470ad13f18c357d875645a846001548787868842604051610a4696959493929190958652602086019490945260408501929092526060840152608083015260a082015260c00190565b60405180910390a36001805460038054808401825560009182527fc2575a0e9e593c00f959f8c92f12db2869c3395a3b0502d05e2516446f71f85b01829055909190610a91836117c8565b909155505060016000555050505050565b60026000541415610ac55760405162461bcd60e51b815260040161074f906118b8565b600260008181558281526020919091526040902060068101546001600160a01b0316331415610b415760405162461bcd60e51b815260206004820152602260248201527f53656c6c6572206973206e6f7420616c6c6f77656420746f206d616b65206269604482015261647360f01b606482015260840161074f565b600981015460ff1615610b925760405162461bcd60e51b81526020600482015260196024820152784974656d206e6f7420666f722073616c6520616e796d6f726560381b604482015260640161074f565b6008810154610c0c578060030154341015610c075760405162461bcd60e51b815260206004820152602f60248201527f416d6f756e742070726f7669646564206973206c6f776572207468616e206d6960448201526e6e696d756d2062696420707269636560881b606482015260840161074f565b610c75565b60088101543411610c755760405162461bcd60e51b815260206004820152602d60248201527f416d6f756e742070726f7669646564206973206c6f776572206f72206571756160448201526c1b081d1bc81b185cdd08189a59609a1b606482015260840161074f565b60078101546001600160a01b031615610c9357610c91816112ae565b505b34600882018190556007820180546001600160a01b031916339081179091556040805185815260208101939093524290830152907f34d26676896339b93e6f671d6a2ae57a92746e5b4fe20b4742aeb87829da45019060600160405180910390a280600501543410610d0857610d0881610d61565b50506001600055565b600081815260026020526040812060050154606490610d51907f000000000000000000000000000000000000000000000000000000000000000090611913565b610d5b9190611932565b92915050565b6008810154610deb578054610d7590611372565b6001810154600682015460028301546040516323b872dd60e01b81526001600160a01b03938416936323b872dd93610db693309392909116916004016118ef565b600060405180830381600087803b158015610dd057600080fd5b505af1158015610de4573d6000803e3d6000fd5b5050505050565b60098101805460ff191660011790558054600090610e0890610d11565b600683015460088401549192506001600160a01b031690610e2a9083906118a1565b604051600081818185875af1925050503d8060008114610e66576040519150601f19603f3d011682016040523d82523d6000602084013e610e6b565b606091505b50506040516001600160a01b037f00000000000000000000000000000000000000000000000000000000000000001691508290600081818185875af1925050503d8060008114610ed7576040519150601f19603f3d011682016040523d82523d6000602084013e610edc565b606091505b5050506001820154600783015460028401546040516323b872dd60e01b81526001600160a01b03938416936323b872dd93610f2093309392909116916004016118ef565b600060405180830381600087803b158015610f3a57600080fd5b505af1158015610f4e573d6000803e3d6000fd5b50505050610f5f8260000154611372565b6006820154600183015483546002850154600586015460405133956001600160a01b039081169516937f7c289d0ba4489b1beb403cecc043c937f857a2e2fc8d91cd4ba423e7d90cfcaa93610fbd9391929091906000904290611954565b60405180910390a45050565b600082815260026020526040902060015483111561101f5760405162461bcd60e51b8152602060048201526013602482015272139bc81cdd58da081a5d195b481b1a5cdd1959606a1b604482015260640161074f565b806005015482101561108e5760405162461bcd60e51b815260206004820152603260248201527f4e6f7420656e6f7567682066756e647320746f20636f76657220666f7220707260448201527169636520616e64206d61726b65742066656560701b606482015260840161074f565b600981015460ff16156110df5760405162461bcd60e51b81526020600482015260196024820152784974656d206e6f7420666f722073616c6520616e796d6f726560381b604482015260640161074f565b60098101805460ff1916600117905560006110f984610d11565b600683015460058401549192506001600160a01b03169061111b9083906118a1565b604051600081818185875af1925050503d8060008114611157576040519150601f19603f3d011682016040523d82523d6000602084013e61115c565b606091505b50506040516001600160a01b037f00000000000000000000000000000000000000000000000000000000000000001691508290600081818185875af1925050503d80600081146111c8576040519150601f19603f3d011682016040523d82523d6000602084013e6111cd565b606091505b505050600182015460028301546040516323b872dd60e01b81526001600160a01b03909216916323b872dd9161120991309133916004016118ef565b600060405180830381600087803b15801561122357600080fd5b505af1158015611237573d6000803e3d6000fd5b5050505061124484611372565b60068201546001808401546002850154600586015460405133956001600160a01b03908116959416937f7c289d0ba4489b1beb403cecc043c937f857a2e2fc8d91cd4ba423e7d90cfcaa936112a0938c93919290914290611954565b60405180910390a450505050565b60408051808201825260078301546001600160a01b031680825260088401546020830181905292516000938492918381818185875af1925050503d8060008114611314576040519150601f19603f3d011682016040523d82523d6000602084013e611319565b606091505b50509050801561132a579392505050565b60405162461bcd60e51b815260206004820152601f60248201527f4572726f72207472616e73666572696e67206261636b206c6173742062696400604482015260640161074f565b60005b6003548110156114285781600382815481106113935761139361179c565b9060005260206000200154141561141657600380546113b4906001906118a1565b815481106113c4576113c461179c565b9060005260206000200154600382815481106113e2576113e261179c565b60009182526020909120015560038054806113ff576113ff61199a565b600190038181906000526020600020016000905590555b80611420816117c8565b915050611375565b5050565b6040518061014001604052806000815260200160006001600160a01b031681526020016000815260200160008152602001600081526020016000815260200160006001600160a01b031681526020016114a1604051806040016040528060006001600160a01b03168152602001600081525090565b815260006020820181905260409091015290565b6000602082840312156114c757600080fd5b5035919050565b602080825282518282018190526000919060409081850190868401855b8281101561159f57815180518552868101516001600160a01b03811688870152508581015185870152606080820151908601526080808201519086015260a0808201519086015260c0808201516001600160a01b03811682880152505060e08181015180516001600160a01b031687830152602081015161010088015250506101008101516101206115808188018315159052565b91909101516101408601525061016090930192908501906001016114eb565b5091979650505050505050565b6020808252825182820181905260009190848201906040850190845b818110156115e4578351835292840192918401916001016115c8565b50909695505050505050565b6000806020838503121561160357600080fd5b823567ffffffffffffffff8082111561161b57600080fd5b818501915085601f83011261162f57600080fd5b81358181111561163e57600080fd5b86602082850101111561165057600080fd5b60209290920196919550909350505050565b821515815260006020604081840152835180604085015260005b818110156116985785810183015185820160600152820161167c565b818111156116aa576000606083870101525b50601f01601f191692909201606001949350505050565b600080600080600060a086880312156116d957600080fd5b85356001600160a01b03811681146116f057600080fd5b97602087013597506040870135966060810135965060800135945092505050565b8a81526001600160a01b038a81166020830152604082018a9052606082018990526080820188905260a08201879052851660c0820152610160810161176c60e083018680516001600160a01b03168252602090810151910152565b921515610120820152610140015298975050505050505050565b634e487b7160e01b600052604160045260246000fd5b634e487b7160e01b600052603260045260246000fd5b634e487b7160e01b600052601160045260246000fd5b60006000198214156117dc576117dc6117b2565b5060010190565b600060208083850312156117f657600080fd5b823567ffffffffffffffff8082111561180e57600080fd5b818501915085601f83011261182257600080fd5b81358181111561183457611834611786565b8060051b604051601f19603f8301168101818110858211171561185957611859611786565b60405291825284820192508381018501918883111561187757600080fd5b938501935b828510156118955784358452938501939285019261187c565b98975050505050505050565b6000828210156118b3576118b36117b2565b500390565b6020808252601f908201527f5265656e7472616e637947756172643a207265656e7472616e742063616c6c00604082015260600190565b6001600160a01b039384168152919092166020820152604081019190915260600190565b600081600019048311821515161561192d5761192d6117b2565b500290565b60008261194f57634e487b7160e01b600052601260045260246000fd5b500490565b858152602081018590526040810184905260a081016002841061198757634e487b7160e01b600052602160045260246000fd5b6060820193909352608001529392505050565b634e487b7160e01b600052603160045260246000fdfea2646970667358221220a5317634a77129b2f59edeee255d62a504a5c32874730cb259ea1fb1a8c7561e64736f6c634300080a0033",
    "bytecodeSha1": "bf7b63fb98176e865f1cf96a39152d26a9dc6f33",
    "compiler": {
        "evm_version": "istanbul",
        "optimizer": {
            "enabled": true,
            "runs": 200
        },
        "version": "0.8.10+commit.fc410830"
    },
    "contractName": "Marketplace",
    "language": "Solidity",
    "natspec": {
        "kind": "dev",
        "methods": {
            "performUpkeep(bytes)": {
                "details": "The input to this method should not be trusted, and the caller of the method should not even be restricted to any single registry. Anyone should be able call it, and the input should be validated, there is no guarantee that the data passed in is the performData returned from checkUpkeep. This could happen due to malicious keepers, racing keepers, or simply a state change while the performUpkeep transaction is waiting for confirmation. Always validate the data passed in.",
                "notice": "method that is actually executed by the keepers, via the registry. The data returned by the checkUpkeep simulation will be passed into this method to actually be executed.",
                "params": {
                    "performData": "is the data which was passed back from the checkData simulation. If it is encoded, it can easily be decoded into other types by calling `abi.decode`. This data should not be trusted, and should be validated against the contract's current state."
                }
            }
        },
        "version": 1
    },
    "opcodes": "PUSH1 0x80 PUSH1 0x40 MSTORE PUSH1 0x4 CALLDATASIZE LT PUSH2 0xA7 JUMPI PUSH1 0x0 CALLDATALOAD PUSH1 0xE0 SHR DUP1 PUSH4 0x7E961C11 GT PUSH2 0x64 JUMPI DUP1 PUSH4 0x7E961C11 EQ PUSH2 0x1BF JUMPI DUP1 PUSH4 0x98D29674 EQ PUSH2 0x1D2 JUMPI DUP1 PUSH4 0xA001ECDD EQ PUSH2 0x1F2 JUMPI DUP1 PUSH4 0xBFB231D2 EQ PUSH2 0x226 JUMPI DUP1 PUSH4 0xC9E8D311 EQ PUSH2 0x2D2 JUMPI DUP1 PUSH4 0xFCEE45F4 EQ PUSH2 0x2E5 JUMPI PUSH1 0x0 DUP1 REVERT JUMPDEST DUP1 PUSH4 0x92D0AFC EQ PUSH2 0xAC JUMPI DUP1 PUSH4 0x355EEFC8 EQ PUSH2 0xDF JUMPI DUP1 PUSH4 0x373C52A5 EQ PUSH2 0x101 JUMPI DUP1 PUSH4 0x4585E33B EQ PUSH2 0x123 JUMPI DUP1 PUSH4 0x65E17C9D EQ PUSH2 0x145 JUMPI DUP1 PUSH4 0x6E04FF0D EQ PUSH2 0x191 JUMPI JUMPDEST PUSH1 0x0 DUP1 REVERT JUMPDEST CALLVALUE DUP1 ISZERO PUSH2 0xB8 JUMPI PUSH1 0x0 DUP1 REVERT JUMPDEST POP PUSH2 0xCC PUSH2 0xC7 CALLDATASIZE PUSH1 0x4 PUSH2 0x14B5 JUMP JUMPDEST PUSH2 0x305 JUMP JUMPDEST PUSH1 0x40 MLOAD SWAP1 DUP2 MSTORE PUSH1 0x20 ADD JUMPDEST PUSH1 0x40 MLOAD DUP1 SWAP2 SUB SWAP1 RETURN JUMPDEST CALLVALUE DUP1 ISZERO PUSH2 0xEB JUMPI PUSH1 0x0 DUP1 REVERT JUMPDEST POP PUSH2 0xF4 PUSH2 0x326 JUMP JUMPDEST PUSH1 0x40 MLOAD PUSH2 0xD6 SWAP2 SWAP1 PUSH2 0x14CE JUMP JUMPDEST CALLVALUE DUP1 ISZERO PUSH2 0x10D JUMPI PUSH1 0x0 DUP1 REVERT JUMPDEST POP PUSH2 0x116 PUSH2 0x46D JUMP JUMPDEST PUSH1 0x40 MLOAD PUSH2 0xD6 SWAP2 SWAP1 PUSH2 0x15AC JUMP JUMPDEST CALLVALUE DUP1 ISZERO PUSH2 0x12F JUMPI PUSH1 0x0 DUP1 REVERT JUMPDEST POP PUSH2 0x143 PUSH2 0x13E CALLDATASIZE PUSH1 0x4 PUSH2 0x15F0 JUMP JUMPDEST PUSH2 0x4C5 JUMP JUMPDEST STOP JUMPDEST CALLVALUE DUP1 ISZERO PUSH2 0x151 JUMPI PUSH1 0x0 DUP1 REVERT JUMPDEST POP PUSH2 0x179 PUSH32 0x0 DUP2 JUMP JUMPDEST PUSH1 0x40 MLOAD PUSH1 0x1 PUSH1 0x1 PUSH1 0xA0 SHL SUB SWAP1 SWAP2 AND DUP2 MSTORE PUSH1 0x20 ADD PUSH2 0xD6 JUMP JUMPDEST CALLVALUE DUP1 ISZERO PUSH2 0x19D JUMPI PUSH1 0x0 DUP1 REVERT JUMPDEST POP PUSH2 0x1B1 PUSH2 0x1AC CALLDATASIZE PUSH1 0x4 PUSH2 0x15F0 JUMP JUMPDEST PUSH2 0x52D JUMP JUMPDEST PUSH1 0x40 MLOAD PUSH2 0xD6 SWAP3 SWAP2 SWAP1 PUSH2 0x1662 JUMP JUMPDEST PUSH2 0x143 PUSH2 0x1CD CALLDATASIZE PUSH1 0x4 PUSH2 0x14B5 JUMP JUMPDEST PUSH2 0x72C JUMP JUMPDEST CALLVALUE DUP1 ISZERO PUSH2 0x1DE JUMPI PUSH1 0x0 DUP1 REVERT JUMPDEST POP PUSH2 0x143 PUSH2 0x1ED CALLDATASIZE PUSH1 0x4 PUSH2 0x16C1 JUMP JUMPDEST PUSH2 0x76F JUMP JUMPDEST CALLVALUE DUP1 ISZERO PUSH2 0x1FE JUMPI PUSH1 0x0 DUP1 REVERT JUMPDEST POP PUSH2 0xCC PUSH32 0x0 DUP2 JUMP JUMPDEST CALLVALUE DUP1 ISZERO PUSH2 0x232 JUMPI PUSH1 0x0 DUP1 REVERT JUMPDEST POP PUSH2 0x2BC PUSH2 0x241 CALLDATASIZE PUSH1 0x4 PUSH2 0x14B5 JUMP JUMPDEST PUSH1 0x2 PUSH1 0x20 DUP2 DUP2 MSTORE PUSH1 0x0 SWAP3 DUP4 MSTORE PUSH1 0x40 SWAP3 DUP4 SWAP1 KECCAK256 DUP1 SLOAD PUSH1 0x1 DUP3 ADD SLOAD SWAP4 DUP3 ADD SLOAD PUSH1 0x3 DUP4 ADD SLOAD PUSH1 0x4 DUP5 ADD SLOAD PUSH1 0x5 DUP6 ADD SLOAD PUSH1 0x6 DUP7 ADD SLOAD DUP10 MLOAD DUP1 DUP12 ADD SWAP1 SWAP11 MSTORE PUSH1 0x7 DUP8 ADD SLOAD PUSH1 0x1 PUSH1 0x1 PUSH1 0xA0 SHL SUB SWAP1 DUP2 AND DUP12 MSTORE PUSH1 0x8 DUP9 ADD SLOAD SWAP9 DUP12 ADD SWAP9 SWAP1 SWAP9 MSTORE PUSH1 0x9 DUP8 ADD SLOAD PUSH1 0xA SWAP1 SWAP8 ADD SLOAD SWAP6 SWAP10 SWAP9 DUP9 AND SWAP9 SWAP5 SWAP8 SWAP4 SWAP7 SWAP3 SWAP6 SWAP2 SWAP5 SWAP4 AND SWAP3 SWAP2 PUSH1 0xFF AND SWAP1 DUP11 JUMP JUMPDEST PUSH1 0x40 MLOAD PUSH2 0xD6 SWAP11 SWAP10 SWAP9 SWAP8 SWAP7 SWAP6 SWAP5 SWAP4 SWAP3 SWAP2 SWAP1 PUSH2 0x1711 JUMP JUMPDEST PUSH2 0x143 PUSH2 0x2E0 CALLDATASIZE PUSH1 0x4 PUSH2 0x14B5 JUMP JUMPDEST PUSH2 0xAA2 JUMP JUMPDEST CALLVALUE DUP1 ISZERO PUSH2 0x2F1 JUMPI PUSH1 0x0 DUP1 REVERT JUMPDEST POP PUSH2 0xCC PUSH2 0x300 CALLDATASIZE PUSH1 0x4 PUSH2 0x14B5 JUMP JUMPDEST PUSH2 0xD11 JUMP JUMPDEST PUSH1 0x3 DUP2 DUP2 SLOAD DUP2 LT PUSH2 0x315 JUMPI PUSH1 0x0 DUP1 REVERT JUMPDEST PUSH1 0x0 SWAP2 DUP3 MSTORE PUSH1 0x20 SWAP1 SWAP2 KECCAK256 ADD SLOAD SWAP1 POP DUP2 JUMP JUMPDEST PUSH1 0x60 PUSH1 0x0 PUSH1 0x1 SLOAD PUSH8 0xFFFFFFFFFFFFFFFF DUP2 GT ISZERO PUSH2 0x345 JUMPI PUSH2 0x345 PUSH2 0x1786 JUMP JUMPDEST PUSH1 0x40 MLOAD SWAP1 DUP1 DUP3 MSTORE DUP1 PUSH1 0x20 MUL PUSH1 0x20 ADD DUP3 ADD PUSH1 0x40 MSTORE DUP1 ISZERO PUSH2 0x37E JUMPI DUP2 PUSH1 0x20 ADD JUMPDEST PUSH2 0x36B PUSH2 0x142C JUMP JUMPDEST DUP2 MSTORE PUSH1 0x20 ADD SWAP1 PUSH1 0x1 SWAP1 SUB SWAP1 DUP2 PUSH2 0x363 JUMPI SWAP1 POP JUMPDEST POP SWAP1 POP PUSH1 0x0 JUMPDEST PUSH1 0x1 SLOAD DUP2 LT ISZERO PUSH2 0x467 JUMPI PUSH1 0x0 DUP2 DUP2 MSTORE PUSH1 0x2 PUSH1 0x20 DUP2 DUP2 MSTORE PUSH1 0x40 SWAP3 DUP4 SWAP1 KECCAK256 DUP4 MLOAD PUSH2 0x140 DUP2 ADD DUP6 MSTORE DUP2 SLOAD DUP2 MSTORE PUSH1 0x1 DUP3 ADD SLOAD PUSH1 0x1 PUSH1 0x1 PUSH1 0xA0 SHL SUB SWAP1 DUP2 AND DUP3 DUP6 ADD MSTORE SWAP4 DUP3 ADD SLOAD DUP2 DUP7 ADD MSTORE PUSH1 0x3 DUP3 ADD SLOAD PUSH1 0x60 DUP3 ADD MSTORE PUSH1 0x4 DUP3 ADD SLOAD PUSH1 0x80 DUP3 ADD MSTORE PUSH1 0x5 DUP3 ADD SLOAD PUSH1 0xA0 DUP3 ADD MSTORE PUSH1 0x6 DUP3 ADD SLOAD DUP5 AND PUSH1 0xC0 DUP3 ADD MSTORE DUP5 MLOAD DUP1 DUP7 ADD SWAP1 SWAP6 MSTORE PUSH1 0x7 DUP3 ADD SLOAD SWAP1 SWAP4 AND DUP5 MSTORE PUSH1 0x8 DUP2 ADD SLOAD SWAP2 DUP5 ADD SWAP2 SWAP1 SWAP2 MSTORE PUSH1 0xE0 DUP3 ADD SWAP3 SWAP1 SWAP3 MSTORE PUSH1 0x9 DUP3 ADD SLOAD PUSH1 0xFF AND ISZERO ISZERO PUSH2 0x100 DUP3 ADD MSTORE PUSH1 0xA DUP3 ADD SLOAD PUSH2 0x120 DUP3 ADD MSTORE DUP4 MLOAD DUP5 SWAP1 DUP5 SWAP1 DUP2 LT PUSH2 0x448 JUMPI PUSH2 0x448 PUSH2 0x179C JUMP JUMPDEST PUSH1 0x20 MUL PUSH1 0x20 ADD ADD DUP2 SWAP1 MSTORE POP POP DUP1 DUP1 PUSH2 0x45F SWAP1 PUSH2 0x17C8 JUMP JUMPDEST SWAP2 POP POP PUSH2 0x384 JUMP JUMPDEST POP SWAP2 SWAP1 POP JUMP JUMPDEST PUSH1 0x60 PUSH1 0x3 DUP1 SLOAD DUP1 PUSH1 0x20 MUL PUSH1 0x20 ADD PUSH1 0x40 MLOAD SWAP1 DUP2 ADD PUSH1 0x40 MSTORE DUP1 SWAP3 SWAP2 SWAP1 DUP2 DUP2 MSTORE PUSH1 0x20 ADD DUP3 DUP1 SLOAD DUP1 ISZERO PUSH2 0x4BB JUMPI PUSH1 0x20 MUL DUP3 ADD SWAP2 SWAP1 PUSH1 0x0 MSTORE PUSH1 0x20 PUSH1 0x0 KECCAK256 SWAP1 JUMPDEST DUP2 SLOAD DUP2 MSTORE PUSH1 0x20 ADD SWAP1 PUSH1 0x1 ADD SWAP1 DUP1 DUP4 GT PUSH2 0x4A7 JUMPI JUMPDEST POP POP POP POP POP SWAP1 POP SWAP1 JUMP JUMPDEST PUSH1 0x0 PUSH2 0x4D3 DUP3 DUP5 ADD DUP5 PUSH2 0x17E3 JUMP JUMPDEST SWAP1 POP PUSH1 0x0 JUMPDEST DUP2 MLOAD DUP2 LT ISZERO PUSH2 0x527 JUMPI PUSH2 0x515 PUSH1 0x2 PUSH1 0x0 DUP5 DUP5 DUP2 MLOAD DUP2 LT PUSH2 0x4FA JUMPI PUSH2 0x4FA PUSH2 0x179C JUMP JUMPDEST PUSH1 0x20 MUL PUSH1 0x20 ADD ADD MLOAD DUP2 MSTORE PUSH1 0x20 ADD SWAP1 DUP2 MSTORE PUSH1 0x20 ADD PUSH1 0x0 KECCAK256 PUSH2 0xD61 JUMP JUMPDEST DUP1 PUSH2 0x51F DUP2 PUSH2 0x17C8 JUMP JUMPDEST SWAP2 POP POP PUSH2 0x4D8 JUMP JUMPDEST POP POP POP POP JUMP JUMPDEST PUSH1 0x0 PUSH1 0x60 PUSH1 0x0 PUSH1 0x3 DUP1 SLOAD SWAP1 POP PUSH8 0xFFFFFFFFFFFFFFFF DUP2 GT ISZERO PUSH2 0x551 JUMPI PUSH2 0x551 PUSH2 0x1786 JUMP JUMPDEST PUSH1 0x40 MLOAD SWAP1 DUP1 DUP3 MSTORE DUP1 PUSH1 0x20 MUL PUSH1 0x20 ADD DUP3 ADD PUSH1 0x40 MSTORE DUP1 ISZERO PUSH2 0x57A JUMPI DUP2 PUSH1 0x20 ADD PUSH1 0x20 DUP3 MUL DUP1 CALLDATASIZE DUP4 CALLDATACOPY ADD SWAP1 POP JUMPDEST POP SWAP1 POP PUSH1 0x0 DUP1 JUMPDEST PUSH1 0x3 SLOAD DUP2 LT ISZERO PUSH2 0x65E JUMPI PUSH1 0x2 PUSH1 0x0 PUSH1 0x3 DUP4 DUP2 SLOAD DUP2 LT PUSH2 0x5A2 JUMPI PUSH2 0x5A2 PUSH2 0x179C JUMP JUMPDEST SWAP1 PUSH1 0x0 MSTORE PUSH1 0x20 PUSH1 0x0 KECCAK256 ADD SLOAD DUP2 MSTORE PUSH1 0x20 ADD SWAP1 DUP2 MSTORE PUSH1 0x20 ADD PUSH1 0x0 KECCAK256 PUSH1 0x4 ADD SLOAD PUSH1 0x2 PUSH1 0x0 PUSH1 0x3 DUP5 DUP2 SLOAD DUP2 LT PUSH2 0x5D6 JUMPI PUSH2 0x5D6 PUSH2 0x179C JUMP JUMPDEST SWAP1 PUSH1 0x0 MSTORE PUSH1 0x20 PUSH1 0x0 KECCAK256 ADD SLOAD DUP2 MSTORE PUSH1 0x20 ADD SWAP1 DUP2 MSTORE PUSH1 0x20 ADD PUSH1 0x0 KECCAK256 PUSH1 0xA ADD SLOAD TIMESTAMP PUSH2 0x5FE SWAP2 SWAP1 PUSH2 0x18A1 JUMP JUMPDEST LT PUSH2 0x64C JUMPI PUSH1 0x3 DUP2 DUP2 SLOAD DUP2 LT PUSH2 0x616 JUMPI PUSH2 0x616 PUSH2 0x179C JUMP JUMPDEST SWAP1 PUSH1 0x0 MSTORE PUSH1 0x20 PUSH1 0x0 KECCAK256 ADD SLOAD DUP4 DUP4 DUP2 MLOAD DUP2 LT PUSH2 0x633 JUMPI PUSH2 0x633 PUSH2 0x179C JUMP JUMPDEST PUSH1 0x20 SWAP1 DUP2 MUL SWAP2 SWAP1 SWAP2 ADD ADD MSTORE DUP2 PUSH2 0x648 DUP2 PUSH2 0x17C8 JUMP JUMPDEST SWAP3 POP POP JUMPDEST DUP1 PUSH2 0x656 DUP2 PUSH2 0x17C8 JUMP JUMPDEST SWAP2 POP POP PUSH2 0x581 JUMP JUMPDEST POP PUSH1 0x0 DUP2 PUSH8 0xFFFFFFFFFFFFFFFF DUP2 GT ISZERO PUSH2 0x67A JUMPI PUSH2 0x67A PUSH2 0x1786 JUMP JUMPDEST PUSH1 0x40 MLOAD SWAP1 DUP1 DUP3 MSTORE DUP1 PUSH1 0x20 MUL PUSH1 0x20 ADD DUP3 ADD PUSH1 0x40 MSTORE DUP1 ISZERO PUSH2 0x6A3 JUMPI DUP2 PUSH1 0x20 ADD PUSH1 0x20 DUP3 MUL DUP1 CALLDATASIZE DUP4 CALLDATACOPY ADD SWAP1 POP JUMPDEST POP SWAP1 POP PUSH1 0x0 JUMPDEST DUP3 DUP2 LT ISZERO PUSH2 0x6FA JUMPI DUP4 DUP2 DUP2 MLOAD DUP2 LT PUSH2 0x6C3 JUMPI PUSH2 0x6C3 PUSH2 0x179C JUMP JUMPDEST PUSH1 0x20 MUL PUSH1 0x20 ADD ADD MLOAD DUP3 DUP3 DUP2 MLOAD DUP2 LT PUSH2 0x6DD JUMPI PUSH2 0x6DD PUSH2 0x179C JUMP JUMPDEST PUSH1 0x20 SWAP1 DUP2 MUL SWAP2 SWAP1 SWAP2 ADD ADD MSTORE DUP1 PUSH2 0x6F2 DUP2 PUSH2 0x17C8 JUMP JUMPDEST SWAP2 POP POP PUSH2 0x6A9 JUMP JUMPDEST POP DUP1 PUSH1 0x40 MLOAD PUSH1 0x20 ADD PUSH2 0x70C SWAP2 SWAP1 PUSH2 0x15AC JUMP JUMPDEST PUSH1 0x40 DUP1 MLOAD PUSH1 0x1F NOT DUP2 DUP5 SUB ADD DUP2 MSTORE SWAP2 SWAP1 MSTORE SWAP1 MLOAD ISZERO ISZERO SWAP8 SWAP1 SWAP7 POP SWAP5 POP POP POP POP POP JUMP JUMPDEST PUSH1 0x2 PUSH1 0x0 SLOAD EQ ISZERO PUSH2 0x758 JUMPI PUSH1 0x40 MLOAD PUSH3 0x461BCD PUSH1 0xE5 SHL DUP2 MSTORE PUSH1 0x4 ADD PUSH2 0x74F SWAP1 PUSH2 0x18B8 JUMP JUMPDEST PUSH1 0x40 MLOAD DUP1 SWAP2 SUB SWAP1 REVERT JUMPDEST PUSH1 0x2 PUSH1 0x0 SSTORE PUSH2 0x767 DUP2 CALLVALUE PUSH2 0xFC9 JUMP JUMPDEST POP PUSH1 0x1 PUSH1 0x0 SSTORE JUMP JUMPDEST PUSH1 0x2 PUSH1 0x0 SLOAD EQ ISZERO PUSH2 0x792 JUMPI PUSH1 0x40 MLOAD PUSH3 0x461BCD PUSH1 0xE5 SHL DUP2 MSTORE PUSH1 0x4 ADD PUSH2 0x74F SWAP1 PUSH2 0x18B8 JUMP JUMPDEST PUSH1 0x2 PUSH1 0x0 SSTORE DUP2 PUSH2 0x7E4 JUMPI PUSH1 0x40 MLOAD PUSH3 0x461BCD PUSH1 0xE5 SHL DUP2 MSTORE PUSH1 0x20 PUSH1 0x4 DUP3 ADD MSTORE PUSH1 0x1E PUSH1 0x24 DUP3 ADD MSTORE PUSH32 0x5072696365206D75737420626520686967686572207468616E207A65726F0000 PUSH1 0x44 DUP3 ADD MSTORE PUSH1 0x64 ADD PUSH2 0x74F JUMP JUMPDEST PUSH1 0x40 MLOAD PUSH4 0x23B872DD PUSH1 0xE0 SHL DUP2 MSTORE PUSH1 0x1 PUSH1 0x1 PUSH1 0xA0 SHL SUB DUP7 AND SWAP1 PUSH4 0x23B872DD SWAP1 PUSH2 0x814 SWAP1 CALLER SWAP1 ADDRESS SWAP1 DUP10 SWAP1 PUSH1 0x4 ADD PUSH2 0x18EF JUMP JUMPDEST PUSH1 0x0 PUSH1 0x40 MLOAD DUP1 DUP4 SUB DUP2 PUSH1 0x0 DUP8 DUP1 EXTCODESIZE ISZERO DUP1 ISZERO PUSH2 0x82E JUMPI PUSH1 0x0 DUP1 REVERT JUMPDEST POP GAS CALL ISZERO DUP1 ISZERO PUSH2 0x842 JUMPI RETURNDATASIZE PUSH1 0x0 DUP1 RETURNDATACOPY RETURNDATASIZE PUSH1 0x0 REVERT JUMPDEST POP POP POP POP PUSH1 0x40 MLOAD DUP1 PUSH2 0x140 ADD PUSH1 0x40 MSTORE DUP1 PUSH1 0x1 SLOAD DUP2 MSTORE PUSH1 0x20 ADD DUP7 PUSH1 0x1 PUSH1 0x1 PUSH1 0xA0 SHL SUB AND DUP2 MSTORE PUSH1 0x20 ADD DUP6 DUP2 MSTORE PUSH1 0x20 ADD DUP5 DUP2 MSTORE PUSH1 0x20 ADD DUP3 DUP2 MSTORE PUSH1 0x20 ADD DUP4 DUP2 MSTORE PUSH1 0x20 ADD CALLER PUSH1 0x1 PUSH1 0x1 PUSH1 0xA0 SHL SUB AND DUP2 MSTORE PUSH1 0x20 ADD PUSH1 0x40 MLOAD DUP1 PUSH1 0x40 ADD PUSH1 0x40 MSTORE DUP1 PUSH1 0x0 PUSH1 0x1 PUSH1 0x1 PUSH1 0xA0 SHL SUB AND DUP2 MSTORE PUSH1 0x20 ADD PUSH1 0x0 DUP2 MSTORE POP DUP2 MSTORE PUSH1 0x20 ADD PUSH1 0x0 ISZERO ISZERO DUP2 MSTORE PUSH1 0x20 ADD TIMESTAMP DUP2 MSTORE POP PUSH1 0x2 PUSH1 0x0 PUSH1 0x1 SLOAD DUP2 MSTORE PUSH1 0x20 ADD SWAP1 DUP2 MSTORE PUSH1 0x20 ADD PUSH1 0x0 KECCAK256 PUSH1 0x0 DUP3 ADD MLOAD DUP2 PUSH1 0x0 ADD SSTORE PUSH1 0x20 DUP3 ADD MLOAD DUP2 PUSH1 0x1 ADD PUSH1 0x0 PUSH2 0x100 EXP DUP2 SLOAD DUP2 PUSH1 0x1 PUSH1 0x1 PUSH1 0xA0 SHL SUB MUL NOT AND SWAP1 DUP4 PUSH1 0x1 PUSH1 0x1 PUSH1 0xA0 SHL SUB AND MUL OR SWAP1 SSTORE POP PUSH1 0x40 DUP3 ADD MLOAD DUP2 PUSH1 0x2 ADD SSTORE PUSH1 0x60 DUP3 ADD MLOAD DUP2 PUSH1 0x3 ADD SSTORE PUSH1 0x80 DUP3 ADD MLOAD DUP2 PUSH1 0x4 ADD SSTORE PUSH1 0xA0 DUP3 ADD MLOAD DUP2 PUSH1 0x5 ADD SSTORE PUSH1 0xC0 DUP3 ADD MLOAD DUP2 PUSH1 0x6 ADD PUSH1 0x0 PUSH2 0x100 EXP DUP2 SLOAD DUP2 PUSH1 0x1 PUSH1 0x1 PUSH1 0xA0 SHL SUB MUL NOT AND SWAP1 DUP4 PUSH1 0x1 PUSH1 0x1 PUSH1 0xA0 SHL SUB AND MUL OR SWAP1 SSTORE POP PUSH1 0xE0 DUP3 ADD MLOAD DUP2 PUSH1 0x7 ADD PUSH1 0x0 DUP3 ADD MLOAD DUP2 PUSH1 0x0 ADD PUSH1 0x0 PUSH2 0x100 EXP DUP2 SLOAD DUP2 PUSH1 0x1 PUSH1 0x1 PUSH1 0xA0 SHL SUB MUL NOT AND SWAP1 DUP4 PUSH1 0x1 PUSH1 0x1 PUSH1 0xA0 SHL SUB AND MUL OR SWAP1 SSTORE POP PUSH1 0x20 DUP3 ADD MLOAD DUP2 PUSH1 0x1 ADD SSTORE POP POP PUSH2 0x100 DUP3 ADD MLOAD DUP2 PUSH1 0x9 ADD PUSH1 0x0 PUSH2 0x100 EXP DUP2 SLOAD DUP2 PUSH1 0xFF MUL NOT AND SWAP1 DUP4 ISZERO ISZERO MUL OR SWAP1 SSTORE POP PUSH2 0x120 DUP3 ADD MLOAD DUP2 PUSH1 0xA ADD SSTORE SWAP1 POP POP CALLER PUSH1 0x1 PUSH1 0x1 PUSH1 0xA0 SHL SUB AND DUP6 PUSH1 0x1 PUSH1 0x1 PUSH1 0xA0 SHL SUB AND PUSH32 0x965306565771069D1BF699C6E35DDD0F7E614C0C470AD13F18C357D875645A84 PUSH1 0x1 SLOAD DUP8 DUP8 DUP7 DUP9 TIMESTAMP PUSH1 0x40 MLOAD PUSH2 0xA46 SWAP7 SWAP6 SWAP5 SWAP4 SWAP3 SWAP2 SWAP1 SWAP6 DUP7 MSTORE PUSH1 0x20 DUP7 ADD SWAP5 SWAP1 SWAP5 MSTORE PUSH1 0x40 DUP6 ADD SWAP3 SWAP1 SWAP3 MSTORE PUSH1 0x60 DUP5 ADD MSTORE PUSH1 0x80 DUP4 ADD MSTORE PUSH1 0xA0 DUP3 ADD MSTORE PUSH1 0xC0 ADD SWAP1 JUMP JUMPDEST PUSH1 0x40 MLOAD DUP1 SWAP2 SUB SWAP1 LOG3 PUSH1 0x1 DUP1 SLOAD PUSH1 0x3 DUP1 SLOAD DUP1 DUP5 ADD DUP3 SSTORE PUSH1 0x0 SWAP2 DUP3 MSTORE PUSH32 0xC2575A0E9E593C00F959F8C92F12DB2869C3395A3B0502D05E2516446F71F85B ADD DUP3 SWAP1 SSTORE SWAP1 SWAP2 SWAP1 PUSH2 0xA91 DUP4 PUSH2 0x17C8 JUMP JUMPDEST SWAP1 SWAP2 SSTORE POP POP PUSH1 0x1 PUSH1 0x0 SSTORE POP POP POP POP POP JUMP JUMPDEST PUSH1 0x2 PUSH1 0x0 SLOAD EQ ISZERO PUSH2 0xAC5 JUMPI PUSH1 0x40 MLOAD PUSH3 0x461BCD PUSH1 0xE5 SHL DUP2 MSTORE PUSH1 0x4 ADD PUSH2 0x74F SWAP1 PUSH2 0x18B8 JUMP JUMPDEST PUSH1 0x2 PUSH1 0x0 DUP2 DUP2 SSTORE DUP3 DUP2 MSTORE PUSH1 0x20 SWAP2 SWAP1 SWAP2 MSTORE PUSH1 0x40 SWAP1 KECCAK256 PUSH1 0x6 DUP2 ADD SLOAD PUSH1 0x1 PUSH1 0x1 PUSH1 0xA0 SHL SUB AND CALLER EQ ISZERO PUSH2 0xB41 JUMPI PUSH1 0x40 MLOAD PUSH3 0x461BCD PUSH1 0xE5 SHL DUP2 MSTORE PUSH1 0x20 PUSH1 0x4 DUP3 ADD MSTORE PUSH1 0x22 PUSH1 0x24 DUP3 ADD MSTORE PUSH32 0x53656C6C6572206973206E6F7420616C6C6F77656420746F206D616B65206269 PUSH1 0x44 DUP3 ADD MSTORE PUSH2 0x6473 PUSH1 0xF0 SHL PUSH1 0x64 DUP3 ADD MSTORE PUSH1 0x84 ADD PUSH2 0x74F JUMP JUMPDEST PUSH1 0x9 DUP2 ADD SLOAD PUSH1 0xFF AND ISZERO PUSH2 0xB92 JUMPI PUSH1 0x40 MLOAD PUSH3 0x461BCD PUSH1 0xE5 SHL DUP2 MSTORE PUSH1 0x20 PUSH1 0x4 DUP3 ADD MSTORE PUSH1 0x19 PUSH1 0x24 DUP3 ADD MSTORE PUSH25 0x4974656D206E6F7420666F722073616C6520616E796D6F7265 PUSH1 0x38 SHL PUSH1 0x44 DUP3 ADD MSTORE PUSH1 0x64 ADD PUSH2 0x74F JUMP JUMPDEST PUSH1 0x8 DUP2 ADD SLOAD PUSH2 0xC0C JUMPI DUP1 PUSH1 0x3 ADD SLOAD CALLVALUE LT ISZERO PUSH2 0xC07 JUMPI PUSH1 0x40 MLOAD PUSH3 0x461BCD PUSH1 0xE5 SHL DUP2 MSTORE PUSH1 0x20 PUSH1 0x4 DUP3 ADD MSTORE PUSH1 0x2F PUSH1 0x24 DUP3 ADD MSTORE PUSH32 0x416D6F756E742070726F7669646564206973206C6F776572207468616E206D69 PUSH1 0x44 DUP3 ADD MSTORE PUSH15 0x6E696D756D20626964207072696365 PUSH1 0x88 SHL PUSH1 0x64 DUP3 ADD MSTORE PUSH1 0x84 ADD PUSH2 0x74F JUMP JUMPDEST PUSH2 0xC75 JUMP JUMPDEST PUSH1 0x8 DUP2 ADD SLOAD CALLVALUE GT PUSH2 0xC75 JUMPI PUSH1 0x40 MLOAD PUSH3 0x461BCD PUSH1 0xE5 SHL DUP2 MSTORE PUSH1 0x20 PUSH1 0x4 DUP3 ADD MSTORE PUSH1 0x2D PUSH1 0x24 DUP3 ADD MSTORE PUSH32 0x416D6F756E742070726F7669646564206973206C6F776572206F722065717561 PUSH1 0x44 DUP3 ADD MSTORE PUSH13 0x1B081D1BC81B185CDD08189A59 PUSH1 0x9A SHL PUSH1 0x64 DUP3 ADD MSTORE PUSH1 0x84 ADD PUSH2 0x74F JUMP JUMPDEST PUSH1 0x7 DUP2 ADD SLOAD PUSH1 0x1 PUSH1 0x1 PUSH1 0xA0 SHL SUB AND ISZERO PUSH2 0xC93 JUMPI PUSH2 0xC91 DUP2 PUSH2 0x12AE JUMP JUMPDEST POP JUMPDEST CALLVALUE PUSH1 0x8 DUP3 ADD DUP2 SWAP1 SSTORE PUSH1 0x7 DUP3 ADD DUP1 SLOAD PUSH1 0x1 PUSH1 0x1 PUSH1 0xA0 SHL SUB NOT AND CALLER SWAP1 DUP2 OR SWAP1 SWAP2 SSTORE PUSH1 0x40 DUP1 MLOAD DUP6 DUP2 MSTORE PUSH1 0x20 DUP2 ADD SWAP4 SWAP1 SWAP4 MSTORE TIMESTAMP SWAP1 DUP4 ADD MSTORE SWAP1 PUSH32 0x34D26676896339B93E6F671D6A2AE57A92746E5B4FE20B4742AEB87829DA4501 SWAP1 PUSH1 0x60 ADD PUSH1 0x40 MLOAD DUP1 SWAP2 SUB SWAP1 LOG2 DUP1 PUSH1 0x5 ADD SLOAD CALLVALUE LT PUSH2 0xD08 JUMPI PUSH2 0xD08 DUP2 PUSH2 0xD61 JUMP JUMPDEST POP POP PUSH1 0x1 PUSH1 0x0 SSTORE JUMP JUMPDEST PUSH1 0x0 DUP2 DUP2 MSTORE PUSH1 0x2 PUSH1 0x20 MSTORE PUSH1 0x40 DUP2 KECCAK256 PUSH1 0x5 ADD SLOAD PUSH1 0x64 SWAP1 PUSH2 0xD51 SWAP1 PUSH32 0x0 SWAP1 PUSH2 0x1913 JUMP JUMPDEST PUSH2 0xD5B SWAP2 SWAP1 PUSH2 0x1932 JUMP JUMPDEST SWAP3 SWAP2 POP POP JUMP JUMPDEST PUSH1 0x8 DUP2 ADD SLOAD PUSH2 0xDEB JUMPI DUP1 SLOAD PUSH2 0xD75 SWAP1 PUSH2 0x1372 JUMP JUMPDEST PUSH1 0x1 DUP2 ADD SLOAD PUSH1 0x6 DUP3 ADD SLOAD PUSH1 0x2 DUP4 ADD SLOAD PUSH1 0x40 MLOAD PUSH4 0x23B872DD PUSH1 0xE0 SHL DUP2 MSTORE PUSH1 0x1 PUSH1 0x1 PUSH1 0xA0 SHL SUB SWAP4 DUP5 AND SWAP4 PUSH4 0x23B872DD SWAP4 PUSH2 0xDB6 SWAP4 ADDRESS SWAP4 SWAP3 SWAP1 SWAP2 AND SWAP2 PUSH1 0x4 ADD PUSH2 0x18EF JUMP JUMPDEST PUSH1 0x0 PUSH1 0x40 MLOAD DUP1 DUP4 SUB DUP2 PUSH1 0x0 DUP8 DUP1 EXTCODESIZE ISZERO DUP1 ISZERO PUSH2 0xDD0 JUMPI PUSH1 0x0 DUP1 REVERT JUMPDEST POP GAS CALL ISZERO DUP1 ISZERO PUSH2 0xDE4 JUMPI RETURNDATASIZE PUSH1 0x0 DUP1 RETURNDATACOPY RETURNDATASIZE PUSH1 0x0 REVERT JUMPDEST POP POP POP POP POP JUMP JUMPDEST PUSH1 0x9 DUP2 ADD DUP1 SLOAD PUSH1 0xFF NOT AND PUSH1 0x1 OR SWAP1 SSTORE DUP1 SLOAD PUSH1 0x0 SWAP1 PUSH2 0xE08 SWAP1 PUSH2 0xD11 JUMP JUMPDEST PUSH1 0x6 DUP4 ADD SLOAD PUSH1 0x8 DUP5 ADD SLOAD SWAP2 SWAP3 POP PUSH1 0x1 PUSH1 0x1 PUSH1 0xA0 SHL SUB AND SWAP1 PUSH2 0xE2A SWAP1 DUP4 SWAP1 PUSH2 0x18A1 JUMP JUMPDEST PUSH1 0x40 MLOAD PUSH1 0x0 DUP2 DUP2 DUP2 DUP6 DUP8 GAS CALL SWAP3 POP POP POP RETURNDATASIZE DUP1 PUSH1 0x0 DUP2 EQ PUSH2 0xE66 JUMPI PUSH1 0x40 MLOAD SWAP2 POP PUSH1 0x1F NOT PUSH1 0x3F RETURNDATASIZE ADD AND DUP3 ADD PUSH1 0x40 MSTORE RETURNDATASIZE DUP3 MSTORE RETURNDATASIZE PUSH1 0x0 PUSH1 0x20 DUP5 ADD RETURNDATACOPY PUSH2 0xE6B JUMP JUMPDEST PUSH1 0x60 SWAP2 POP JUMPDEST POP POP PUSH1 0x40 MLOAD PUSH1 0x1 PUSH1 0x1 PUSH1 0xA0 SHL SUB PUSH32 0x0 AND SWAP2 POP DUP3 SWAP1 PUSH1 0x0 DUP2 DUP2 DUP2 DUP6 DUP8 GAS CALL SWAP3 POP POP POP RETURNDATASIZE DUP1 PUSH1 0x0 DUP2 EQ PUSH2 0xED7 JUMPI PUSH1 0x40 MLOAD SWAP2 POP PUSH1 0x1F NOT PUSH1 0x3F RETURNDATASIZE ADD AND DUP3 ADD PUSH1 0x40 MSTORE RETURNDATASIZE DUP3 MSTORE RETURNDATASIZE PUSH1 0x0 PUSH1 0x20 DUP5 ADD RETURNDATACOPY PUSH2 0xEDC JUMP JUMPDEST PUSH1 0x60 SWAP2 POP JUMPDEST POP POP POP PUSH1 0x1 DUP3 ADD SLOAD PUSH1 0x7 DUP4 ADD SLOAD PUSH1 0x2 DUP5 ADD SLOAD PUSH1 0x40 MLOAD PUSH4 0x23B872DD PUSH1 0xE0 SHL DUP2 MSTORE PUSH1 0x1 PUSH1 0x1 PUSH1 0xA0 SHL SUB SWAP4 DUP5 AND SWAP4 PUSH4 0x23B872DD SWAP4 PUSH2 0xF20 SWAP4 ADDRESS SWAP4 SWAP3 SWAP1 SWAP2 AND SWAP2 PUSH1 0x4 ADD PUSH2 0x18EF JUMP JUMPDEST PUSH1 0x0 PUSH1 0x40 MLOAD DUP1 DUP4 SUB DUP2 PUSH1 0x0 DUP8 DUP1 EXTCODESIZE ISZERO DUP1 ISZERO PUSH2 0xF3A JUMPI PUSH1 0x0 DUP1 REVERT JUMPDEST POP GAS CALL ISZERO DUP1 ISZERO PUSH2 0xF4E JUMPI RETURNDATASIZE PUSH1 0x0 DUP1 RETURNDATACOPY RETURNDATASIZE PUSH1 0x0 REVERT JUMPDEST POP POP POP POP PUSH2 0xF5F DUP3 PUSH1 0x0 ADD SLOAD PUSH2 0x1372 JUMP JUMPDEST PUSH1 0x6 DUP3 ADD SLOAD PUSH1 0x1 DUP4 ADD SLOAD DUP4 SLOAD PUSH1 0x2 DUP6 ADD SLOAD PUSH1 0x5 DUP7 ADD SLOAD PUSH1 0x40 MLOAD CALLER SWAP6 PUSH1 0x1 PUSH1 0x1 PUSH1 0xA0 SHL SUB SWAP1 DUP2 AND SWAP6 AND SWAP4 PUSH32 0x7C289D0BA4489B1BEB403CECC043C937F857A2E2FC8D91CD4BA423E7D90CFCAA SWAP4 PUSH2 0xFBD SWAP4 SWAP2 SWAP3 SWAP1 SWAP2 SWAP1 PUSH1 0x0 SWAP1 TIMESTAMP SWAP1 PUSH2 0x1954 JUMP JUMPDEST PUSH1 0x40 MLOAD DUP1 SWAP2 SUB SWAP1 LOG4 POP POP JUMP JUMPDEST PUSH1 0x0 DUP3 DUP2 MSTORE PUSH1 0x2 PUSH1 0x20 MSTORE PUSH1 0x40 SWAP1 KECCAK256 PUSH1 0x1 SLOAD DUP4 GT ISZERO PUSH2 0x101F JUMPI PUSH1 0x40 MLOAD PUSH3 0x461BCD PUSH1 0xE5 SHL DUP2 MSTORE PUSH1 0x20 PUSH1 0x4 DUP3 ADD MSTORE PUSH1 0x13 PUSH1 0x24 DUP3 ADD MSTORE PUSH19 0x139BC81CDD58DA081A5D195B481B1A5CDD1959 PUSH1 0x6A SHL PUSH1 0x44 DUP3 ADD MSTORE PUSH1 0x64 ADD PUSH2 0x74F JUMP JUMPDEST DUP1 PUSH1 0x5 ADD SLOAD DUP3 LT ISZERO PUSH2 0x108E JUMPI PUSH1 0x40 MLOAD PUSH3 0x461BCD PUSH1 0xE5 SHL DUP2 MSTORE PUSH1 0x20 PUSH1 0x4 DUP3 ADD MSTORE PUSH1 0x32 PUSH1 0x24 DUP3 ADD MSTORE PUSH32 0x4E6F7420656E6F7567682066756E647320746F20636F76657220666F72207072 PUSH1 0x44 DUP3 ADD MSTORE PUSH18 0x69636520616E64206D61726B657420666565 PUSH1 0x70 SHL PUSH1 0x64 DUP3 ADD MSTORE PUSH1 0x84 ADD PUSH2 0x74F JUMP JUMPDEST PUSH1 0x9 DUP2 ADD SLOAD PUSH1 0xFF AND ISZERO PUSH2 0x10DF JUMPI PUSH1 0x40 MLOAD PUSH3 0x461BCD PUSH1 0xE5 SHL DUP2 MSTORE PUSH1 0x20 PUSH1 0x4 DUP3 ADD MSTORE PUSH1 0x19 PUSH1 0x24 DUP3 ADD MSTORE PUSH25 0x4974656D206E6F7420666F722073616C6520616E796D6F7265 PUSH1 0x38 SHL PUSH1 0x44 DUP3 ADD MSTORE PUSH1 0x64 ADD PUSH2 0x74F JUMP JUMPDEST PUSH1 0x9 DUP2 ADD DUP1 SLOAD PUSH1 0xFF NOT AND PUSH1 0x1 OR SWAP1 SSTORE PUSH1 0x0 PUSH2 0x10F9 DUP5 PUSH2 0xD11 JUMP JUMPDEST PUSH1 0x6 DUP4 ADD SLOAD PUSH1 0x5 DUP5 ADD SLOAD SWAP2 SWAP3 POP PUSH1 0x1 PUSH1 0x1 PUSH1 0xA0 SHL SUB AND SWAP1 PUSH2 0x111B SWAP1 DUP4 SWAP1 PUSH2 0x18A1 JUMP JUMPDEST PUSH1 0x40 MLOAD PUSH1 0x0 DUP2 DUP2 DUP2 DUP6 DUP8 GAS CALL SWAP3 POP POP POP RETURNDATASIZE DUP1 PUSH1 0x0 DUP2 EQ PUSH2 0x1157 JUMPI PUSH1 0x40 MLOAD SWAP2 POP PUSH1 0x1F NOT PUSH1 0x3F RETURNDATASIZE ADD AND DUP3 ADD PUSH1 0x40 MSTORE RETURNDATASIZE DUP3 MSTORE RETURNDATASIZE PUSH1 0x0 PUSH1 0x20 DUP5 ADD RETURNDATACOPY PUSH2 0x115C JUMP JUMPDEST PUSH1 0x60 SWAP2 POP JUMPDEST POP POP PUSH1 0x40 MLOAD PUSH1 0x1 PUSH1 0x1 PUSH1 0xA0 SHL SUB PUSH32 0x0 AND SWAP2 POP DUP3 SWAP1 PUSH1 0x0 DUP2 DUP2 DUP2 DUP6 DUP8 GAS CALL SWAP3 POP POP POP RETURNDATASIZE DUP1 PUSH1 0x0 DUP2 EQ PUSH2 0x11C8 JUMPI PUSH1 0x40 MLOAD SWAP2 POP PUSH1 0x1F NOT PUSH1 0x3F RETURNDATASIZE ADD AND DUP3 ADD PUSH1 0x40 MSTORE RETURNDATASIZE DUP3 MSTORE RETURNDATASIZE PUSH1 0x0 PUSH1 0x20 DUP5 ADD RETURNDATACOPY PUSH2 0x11CD JUMP JUMPDEST PUSH1 0x60 SWAP2 POP JUMPDEST POP POP POP PUSH1 0x1 DUP3 ADD SLOAD PUSH1 0x2 DUP4 ADD SLOAD PUSH1 0x40 MLOAD PUSH4 0x23B872DD PUSH1 0xE0 SHL DUP2 MSTORE PUSH1 0x1 PUSH1 0x1 PUSH1 0xA0 SHL SUB SWAP1 SWAP3 AND SWAP2 PUSH4 0x23B872DD SWAP2 PUSH2 0x1209 SWAP2 ADDRESS SWAP2 CALLER SWAP2 PUSH1 0x4 ADD PUSH2 0x18EF JUMP JUMPDEST PUSH1 0x0 PUSH1 0x40 MLOAD DUP1 DUP4 SUB DUP2 PUSH1 0x0 DUP8 DUP1 EXTCODESIZE ISZERO DUP1 ISZERO PUSH2 0x1223 JUMPI PUSH1 0x0 DUP1 REVERT JUMPDEST POP GAS CALL ISZERO DUP1 ISZERO PUSH2 0x1237 JUMPI RETURNDATASIZE PUSH1 0x0 DUP1 RETURNDATACOPY RETURNDATASIZE PUSH1 0x0 REVERT JUMPDEST POP POP POP POP PUSH2 0x1244 DUP5 PUSH2 0x1372 JUMP JUMPDEST PUSH1 0x6 DUP3 ADD SLOAD PUSH1 0x1 DUP1 DUP5 ADD SLOAD PUSH1 0x2 DUP6 ADD SLOAD PUSH1 0x5 DUP7 ADD SLOAD PUSH1 0x40 MLOAD CALLER SWAP6 PUSH1 0x1 PUSH1 0x1 PUSH1 0xA0 SHL SUB SWAP1 DUP2 AND SWAP6 SWAP5 AND SWAP4 PUSH32 0x7C289D0BA4489B1BEB403CECC043C937F857A2E2FC8D91CD4BA423E7D90CFCAA SWAP4 PUSH2 0x12A0 SWAP4 DUP13 SWAP4 SWAP2 SWAP3 SWAP1 SWAP2 TIMESTAMP SWAP1 PUSH2 0x1954 JUMP JUMPDEST PUSH1 0x40 MLOAD DUP1 SWAP2 SUB SWAP1 LOG4 POP POP POP POP JUMP JUMPDEST PUSH1 0x40 DUP1 MLOAD DUP1 DUP3 ADD DUP3 MSTORE PUSH1 0x7 DUP4 ADD SLOAD PUSH1 0x1 PUSH1 0x1 PUSH1 0xA0 SHL SUB AND DUP1 DUP3 MSTORE PUSH1 0x8 DUP5 ADD SLOAD PUSH1 0x20 DUP4 ADD DUP2 SWAP1 MSTORE SWAP3 MLOAD PUSH1 0x0 SWAP4 DUP5 SWAP3 SWAP2 DUP4 DUP2 DUP2 DUP2 DUP6 DUP8 GAS CALL SWAP3 POP POP POP RETURNDATASIZE DUP1 PUSH1 0x0 DUP2 EQ PUSH2 0x1314 JUMPI PUSH1 0x40 MLOAD SWAP2 POP PUSH1 0x1F NOT PUSH1 0x3F RETURNDATASIZE ADD AND DUP3 ADD PUSH1 0x40 MSTORE RETURNDATASIZE DUP3 MSTORE RETURNDATASIZE PUSH1 0x0 PUSH1 0x20 DUP5 ADD RETURNDATACOPY PUSH2 0x1319 JUMP JUMPDEST PUSH1 0x60 SWAP2 POP JUMPDEST POP POP SWAP1 POP DUP1 ISZERO PUSH2 0x132A JUMPI SWAP4 SWAP3 POP POP POP JUMP JUMPDEST PUSH1 0x40 MLOAD PUSH3 0x461BCD PUSH1 0xE5 SHL DUP2 MSTORE PUSH1 0x20 PUSH1 0x4 DUP3 ADD MSTORE PUSH1 0x1F PUSH1 0x24 DUP3 ADD MSTORE PUSH32 0x4572726F72207472616E73666572696E67206261636B206C6173742062696400 PUSH1 0x44 DUP3 ADD MSTORE PUSH1 0x64 ADD PUSH2 0x74F JUMP JUMPDEST PUSH1 0x0 JUMPDEST PUSH1 0x3 SLOAD DUP2 LT ISZERO PUSH2 0x1428 JUMPI DUP2 PUSH1 0x3 DUP3 DUP2 SLOAD DUP2 LT PUSH2 0x1393 JUMPI PUSH2 0x1393 PUSH2 0x179C JUMP JUMPDEST SWAP1 PUSH1 0x0 MSTORE PUSH1 0x20 PUSH1 0x0 KECCAK256 ADD SLOAD EQ ISZERO PUSH2 0x1416 JUMPI PUSH1 0x3 DUP1 SLOAD PUSH2 0x13B4 SWAP1 PUSH1 0x1 SWAP1 PUSH2 0x18A1 JUMP JUMPDEST DUP2 SLOAD DUP2 LT PUSH2 0x13C4 JUMPI PUSH2 0x13C4 PUSH2 0x179C JUMP JUMPDEST SWAP1 PUSH1 0x0 MSTORE PUSH1 0x20 PUSH1 0x0 KECCAK256 ADD SLOAD PUSH1 0x3 DUP3 DUP2 SLOAD DUP2 LT PUSH2 0x13E2 JUMPI PUSH2 0x13E2 PUSH2 0x179C JUMP JUMPDEST PUSH1 0x0 SWAP2 DUP3 MSTORE PUSH1 0x20 SWAP1 SWAP2 KECCAK256 ADD SSTORE PUSH1 0x3 DUP1 SLOAD DUP1 PUSH2 0x13FF JUMPI PUSH2 0x13FF PUSH2 0x199A JUMP JUMPDEST PUSH1 0x1 SWAP1 SUB DUP2 DUP2 SWAP1 PUSH1 0x0 MSTORE PUSH1 0x20 PUSH1 0x0 KECCAK256 ADD PUSH1 0x0 SWAP1 SSTORE SWAP1 SSTORE JUMPDEST DUP1 PUSH2 0x1420 DUP2 PUSH2 0x17C8 JUMP JUMPDEST SWAP2 POP POP PUSH2 0x1375 JUMP JUMPDEST POP POP JUMP JUMPDEST PUSH1 0x40 MLOAD DUP1 PUSH2 0x140 ADD PUSH1 0x40 MSTORE DUP1 PUSH1 0x0 DUP2 MSTORE PUSH1 0x20 ADD PUSH1 0x0 PUSH1 0x1 PUSH1 0x1 PUSH1 0xA0 SHL SUB AND DUP2 MSTORE PUSH1 0x20 ADD PUSH1 0x0 DUP2 MSTORE PUSH1 0x20 ADD PUSH1 0x0 DUP2 MSTORE PUSH1 0x20 ADD PUSH1 0x0 DUP2 MSTORE PUSH1 0x20 ADD PUSH1 0x0 DUP2 MSTORE PUSH1 0x20 ADD PUSH1 0x0 PUSH1 0x1 PUSH1 0x1 PUSH1 0xA0 SHL SUB AND DUP2 MSTORE PUSH1 0x20 ADD PUSH2 0x14A1 PUSH1 0x40 MLOAD DUP1 PUSH1 0x40 ADD PUSH1 0x40 MSTORE DUP1 PUSH1 0x0 PUSH1 0x1 PUSH1 0x1 PUSH1 0xA0 SHL SUB AND DUP2 MSTORE PUSH1 0x20 ADD PUSH1 0x0 DUP2 MSTORE POP SWAP1 JUMP JUMPDEST DUP2 MSTORE PUSH1 0x0 PUSH1 0x20 DUP3 ADD DUP2 SWAP1 MSTORE PUSH1 0x40 SWAP1 SWAP2 ADD MSTORE SWAP1 JUMP JUMPDEST PUSH1 0x0 PUSH1 0x20 DUP3 DUP5 SUB SLT ISZERO PUSH2 0x14C7 JUMPI PUSH1 0x0 DUP1 REVERT JUMPDEST POP CALLDATALOAD SWAP2 SWAP1 POP JUMP JUMPDEST PUSH1 0x20 DUP1 DUP3 MSTORE DUP3 MLOAD DUP3 DUP3 ADD DUP2 SWAP1 MSTORE PUSH1 0x0 SWAP2 SWAP1 PUSH1 0x40 SWAP1 DUP2 DUP6 ADD SWAP1 DUP7 DUP5 ADD DUP6 JUMPDEST DUP3 DUP2 LT ISZERO PUSH2 0x159F JUMPI DUP2 MLOAD DUP1 MLOAD DUP6 MSTORE DUP7 DUP2 ADD MLOAD PUSH1 0x1 PUSH1 0x1 PUSH1 0xA0 SHL SUB DUP2 AND DUP9 DUP8 ADD MSTORE POP DUP6 DUP2 ADD MLOAD DUP6 DUP8 ADD MSTORE PUSH1 0x60 DUP1 DUP3 ADD MLOAD SWAP1 DUP7 ADD MSTORE PUSH1 0x80 DUP1 DUP3 ADD MLOAD SWAP1 DUP7 ADD MSTORE PUSH1 0xA0 DUP1 DUP3 ADD MLOAD SWAP1 DUP7 ADD MSTORE PUSH1 0xC0 DUP1 DUP3 ADD MLOAD PUSH1 0x1 PUSH1 0x1 PUSH1 0xA0 SHL SUB DUP2 AND DUP3 DUP9 ADD MSTORE POP POP PUSH1 0xE0 DUP2 DUP2 ADD MLOAD DUP1 MLOAD PUSH1 0x1 PUSH1 0x1 PUSH1 0xA0 SHL SUB AND DUP8 DUP4 ADD MSTORE PUSH1 0x20 DUP2 ADD MLOAD PUSH2 0x100 DUP9 ADD MSTORE POP POP PUSH2 0x100 DUP2 ADD MLOAD PUSH2 0x120 PUSH2 0x1580 DUP2 DUP9 ADD DUP4 ISZERO ISZERO SWAP1 MSTORE JUMP JUMPDEST SWAP2 SWAP1 SWAP2 ADD MLOAD PUSH2 0x140 DUP7 ADD MSTORE POP PUSH2 0x160 SWAP1 SWAP4 ADD SWAP3 SWAP1 DUP6 ADD SWAP1 PUSH1 0x1 ADD PUSH2 0x14EB JUMP JUMPDEST POP SWAP2 SWAP8 SWAP7 POP POP POP POP POP POP POP JUMP JUMPDEST PUSH1 0x20 DUP1 DUP3 MSTORE DUP3 MLOAD DUP3 DUP3 ADD DUP2 SWAP1 MSTORE PUSH1 0x0 SWAP2 SWAP1 DUP5 DUP3 ADD SWAP1 PUSH1 0x40 DUP6 ADD SWAP1 DUP5 JUMPDEST DUP2 DUP2 LT ISZERO PUSH2 0x15E4 JUMPI DUP4 MLOAD DUP4 MSTORE SWAP3 DUP5 ADD SWAP3 SWAP2 DUP5 ADD SWAP2 PUSH1 0x1 ADD PUSH2 0x15C8 JUMP JUMPDEST POP SWAP1 SWAP7 SWAP6 POP POP POP POP POP POP JUMP JUMPDEST PUSH1 0x0 DUP1 PUSH1 0x20 DUP4 DUP6 SUB SLT ISZERO PUSH2 0x1603 JUMPI PUSH1 0x0 DUP1 REVERT JUMPDEST DUP3 CALLDATALOAD PUSH8 0xFFFFFFFFFFFFFFFF DUP1 DUP3 GT ISZERO PUSH2 0x161B JUMPI PUSH1 0x0 DUP1 REVERT JUMPDEST DUP2 DUP6 ADD SWAP2 POP DUP6 PUSH1 0x1F DUP4 ADD SLT PUSH2 0x162F JUMPI PUSH1 0x0 DUP1 REVERT JUMPDEST DUP2 CALLDATALOAD DUP2 DUP2 GT ISZERO PUSH2 0x163E JUMPI PUSH1 0x0 DUP1 REVERT JUMPDEST DUP7 PUSH1 0x20 DUP3 DUP6 ADD ADD GT ISZERO PUSH2 0x1650 JUMPI PUSH1 0x0 DUP1 REVERT JUMPDEST PUSH1 0x20 SWAP3 SWAP1 SWAP3 ADD SWAP7 SWAP2 SWAP6 POP SWAP1 SWAP4 POP POP POP POP JUMP JUMPDEST DUP3 ISZERO ISZERO DUP2 MSTORE PUSH1 0x0 PUSH1 0x20 PUSH1 0x40 DUP2 DUP5 ADD MSTORE DUP4 MLOAD DUP1 PUSH1 0x40 DUP6 ADD MSTORE PUSH1 0x0 JUMPDEST DUP2 DUP2 LT ISZERO PUSH2 0x1698 JUMPI DUP6 DUP2 ADD DUP4 ADD MLOAD DUP6 DUP3 ADD PUSH1 0x60 ADD MSTORE DUP3 ADD PUSH2 0x167C JUMP JUMPDEST DUP2 DUP2 GT ISZERO PUSH2 0x16AA JUMPI PUSH1 0x0 PUSH1 0x60 DUP4 DUP8 ADD ADD MSTORE JUMPDEST POP PUSH1 0x1F ADD PUSH1 0x1F NOT AND SWAP3 SWAP1 SWAP3 ADD PUSH1 0x60 ADD SWAP5 SWAP4 POP POP POP POP JUMP JUMPDEST PUSH1 0x0 DUP1 PUSH1 0x0 DUP1 PUSH1 0x0 PUSH1 0xA0 DUP7 DUP9 SUB SLT ISZERO PUSH2 0x16D9 JUMPI PUSH1 0x0 DUP1 REVERT JUMPDEST DUP6 CALLDATALOAD PUSH1 0x1 PUSH1 0x1 PUSH1 0xA0 SHL SUB DUP2 AND DUP2 EQ PUSH2 0x16F0 JUMPI PUSH1 0x0 DUP1 REVERT JUMPDEST SWAP8 PUSH1 0x20 DUP8 ADD CALLDATALOAD SWAP8 POP PUSH1 0x40 DUP8 ADD CALLDATALOAD SWAP7 PUSH1 0x60 DUP2 ADD CALLDATALOAD SWAP7 POP PUSH1 0x80 ADD CALLDATALOAD SWAP5 POP SWAP3 POP POP POP JUMP JUMPDEST DUP11 DUP2 MSTORE PUSH1 0x1 PUSH1 0x1 PUSH1 0xA0 SHL SUB DUP11 DUP2 AND PUSH1 0x20 DUP4 ADD MSTORE PUSH1 0x40 DUP3 ADD DUP11 SWAP1 MSTORE PUSH1 0x60 DUP3 ADD DUP10 SWAP1 MSTORE PUSH1 0x80 DUP3 ADD DUP9 SWAP1 MSTORE PUSH1 0xA0 DUP3 ADD DUP8 SWAP1 MSTORE DUP6 AND PUSH1 0xC0 DUP3 ADD MSTORE PUSH2 0x160 DUP2 ADD PUSH2 0x176C PUSH1 0xE0 DUP4 ADD DUP7 DUP1 MLOAD PUSH1 0x1 PUSH1 0x1 PUSH1 0xA0 SHL SUB AND DUP3 MSTORE PUSH1 0x20 SWAP1 DUP2 ADD MLOAD SWAP2 ADD MSTORE JUMP JUMPDEST SWAP3 ISZERO ISZERO PUSH2 0x120 DUP3 ADD MSTORE PUSH2 0x140 ADD MSTORE SWAP9 SWAP8 POP POP POP POP POP POP POP POP JUMP JUMPDEST PUSH4 0x4E487B71 PUSH1 0xE0 SHL PUSH1 0x0 MSTORE PUSH1 0x41 PUSH1 0x4 MSTORE PUSH1 0x24 PUSH1 0x0 REVERT JUMPDEST PUSH4 0x4E487B71 PUSH1 0xE0 SHL PUSH1 0x0 MSTORE PUSH1 0x32 PUSH1 0x4 MSTORE PUSH1 0x24 PUSH1 0x0 REVERT JUMPDEST PUSH4 0x4E487B71 PUSH1 0xE0 SHL PUSH1 0x0 MSTORE PUSH1 0x11 PUSH1 0x4 MSTORE PUSH1 0x24 PUSH1 0x0 REVERT JUMPDEST PUSH1 0x0 PUSH1 0x0 NOT DUP3 EQ ISZERO PUSH2 0x17DC JUMPI PUSH2 0x17DC PUSH2 0x17B2 JUMP JUMPDEST POP PUSH1 0x1 ADD SWAP1 JUMP JUMPDEST PUSH1 0x0 PUSH1 0x20 DUP1 DUP4 DUP6 SUB SLT ISZERO PUSH2 0x17F6 JUMPI PUSH1 0x0 DUP1 REVERT JUMPDEST DUP3 CALLDATALOAD PUSH8 0xFFFFFFFFFFFFFFFF DUP1 DUP3 GT ISZERO PUSH2 0x180E JUMPI PUSH1 0x0 DUP1 REVERT JUMPDEST DUP2 DUP6 ADD SWAP2 POP DUP6 PUSH1 0x1F DUP4 ADD SLT PUSH2 0x1822 JUMPI PUSH1 0x0 DUP1 REVERT JUMPDEST DUP2 CALLDATALOAD DUP2 DUP2 GT ISZERO PUSH2 0x1834 JUMPI PUSH2 0x1834 PUSH2 0x1786 JUMP JUMPDEST DUP1 PUSH1 0x5 SHL PUSH1 0x40 MLOAD PUSH1 0x1F NOT PUSH1 0x3F DUP4 ADD AND DUP2 ADD DUP2 DUP2 LT DUP6 DUP3 GT OR ISZERO PUSH2 0x1859 JUMPI PUSH2 0x1859 PUSH2 0x1786 JUMP JUMPDEST PUSH1 0x40 MSTORE SWAP2 DUP3 MSTORE DUP5 DUP3 ADD SWAP3 POP DUP4 DUP2 ADD DUP6 ADD SWAP2 DUP9 DUP4 GT ISZERO PUSH2 0x1877 JUMPI PUSH1 0x0 DUP1 REVERT JUMPDEST SWAP4 DUP6 ADD SWAP4 JUMPDEST DUP3 DUP6 LT ISZERO PUSH2 0x1895 JUMPI DUP5 CALLDATALOAD DUP5 MSTORE SWAP4 DUP6 ADD SWAP4 SWAP3 DUP6 ADD SWAP3 PUSH2 0x187C JUMP JUMPDEST SWAP9 SWAP8 POP POP POP POP POP POP POP POP JUMP JUMPDEST PUSH1 0x0 DUP3 DUP3 LT ISZERO PUSH2 0x18B3 JUMPI PUSH2 0x18B3 PUSH2 0x17B2 JUMP JUMPDEST POP SUB SWAP1 JUMP JUMPDEST PUSH1 0x20 DUP1 DUP3 MSTORE PUSH1 0x1F SWAP1 DUP3 ADD MSTORE PUSH32 0x5265656E7472616E637947756172643A207265656E7472616E742063616C6C00 PUSH1 0x40 DUP3 ADD MSTORE PUSH1 0x60 ADD SWAP1 JUMP JUMPDEST PUSH1 0x1 PUSH1 0x1 PUSH1 0xA0 SHL SUB SWAP4 DUP5 AND DUP2 MSTORE SWAP2 SWAP1 SWAP3 AND PUSH1 0x20 DUP3 ADD MSTORE PUSH1 0x40 DUP2 ADD SWAP2 SWAP1 SWAP2 MSTORE PUSH1 0x60 ADD SWAP1 JUMP JUMPDEST PUSH1 0x0 DUP2 PUSH1 0x0 NOT DIV DUP4 GT DUP3 ISZERO ISZERO AND ISZERO PUSH2 0x192D JUMPI PUSH2 0x192D PUSH2 0x17B2 JUMP JUMPDEST POP MUL SWAP1 JUMP JUMPDEST PUSH1 0x0 DUP3 PUSH2 0x194F JUMPI PUSH4 0x4E487B71 PUSH1 0xE0 SHL PUSH1 0x0 MSTORE PUSH1 0x12 PUSH1 0x4 MSTORE PUSH1 0x24 PUSH1 0x0 REVERT JUMPDEST POP DIV SWAP1 JUMP JUMPDEST DUP6 DUP2 MSTORE PUSH1 0x20 DUP2 ADD DUP6 SWAP1 MSTORE PUSH1 0x40 DUP2 ADD DUP5 SWAP1 MSTORE PUSH1 0xA0 DUP2 ADD PUSH1 0x2 DUP5 LT PUSH2 0x1987 JUMPI PUSH4 0x4E487B71 PUSH1 0xE0 SHL PUSH1 0x0 MSTORE PUSH1 0x21 PUSH1 0x4 MSTORE PUSH1 0x24 PUSH1 0x0 REVERT JUMPDEST PUSH1 0x60 DUP3 ADD SWAP4 SWAP1 SWAP4 MSTORE PUSH1 0x80 ADD MSTORE SWAP4 SWAP3 POP POP POP JUMP JUMPDEST PUSH4 0x4E487B71 PUSH1 0xE0 SHL PUSH1 0x0 MSTORE PUSH1 0x31 PUSH1 0x4 MSTORE PUSH1 0x24 PUSH1 0x0 REVERT INVALID LOG2 PUSH5 0x6970667358 0x22 SLT KECCAK256 0xA5 BALANCE PUSH23 0x34A77129B2F59EDEEE255D62A504A5C32874730CB259EA 0x1F 0xB1 0xA8 0xC7 JUMP 0x1E PUSH5 0x736F6C6343 STOP ADDMOD EXP STOP CALLER ",
    "sha1": "b3558983bc4d60cd652cfe8f2a3a4f88b9b6f22f",
    "source": "// SPDX-License-Identifier: MIT\npragma solidity ^0.8.0;\n\nimport \"@openzeppelin/contracts/token/ERC721/IERC721.sol\";\nimport \"@openzeppelin/contracts/security/ReentrancyGuard.sol\";\nimport \"@chainlink/contracts/src/v0.8/KeeperCompatible.sol\";\n\ncontract Marketplace is ReentrancyGuard , KeeperCompatible{\n\n    enum PurchaseType {HIGHEST_BID, BUYOUT}\n\n    address payable public immutable feeAccount;\n    uint public immutable feePercentage;\n    uint itemCount;\n\n    struct Bid {\n        address bidder;\n        uint amount;\n    }\n\n\n    struct Item {\n        uint itemId;\n        IERC721 nftContract;\n        uint tokenId;\n        uint bidStartPrice;\n        uint auctionDuration;\n        uint buyoutPrice;\n        address payable seller;\n        Bid lastBid;\n        bool sold;\n        uint auctonStartTimestamp;\n    }\n\n \n    mapping(uint => Item) public items;\n\n    uint[] public itemsForSale;\n\n    event Listed(\n        uint itemId,\n        address indexed nft,\n        uint tokenId,\n        uint bidStartPrice,\n        uint auctionDuration,\n        uint buyoutPrice,\n        address indexed seller,\n        uint timestamp\n    );\n\n    event BidRequest(\n        uint itemId,\n        address indexed bidder,\n        uint amount,\n        uint timestamp\n    );\n\n    event ItemPurchased(\n        uint itemId,\n        address indexed nft,\n        uint tokenId,\n        uint price,\n        PurchaseType purhcaseType,\n        address indexed seller,\n        address indexed buyer,\n        uint timestamp\n    );\n\n    constructor(uint _feePercent, address _feeAccount) {\n        feeAccount = payable(_feeAccount);\n        feePercentage = _feePercent;\n    }\n\n\n    function makeItem(IERC721 _nft, uint _tokenId, uint _bidStartPrice, uint _buyoutPrice, uint _auctionDuration) external nonReentrant {\n        \n        require(_buyoutPrice > 0, \"Price must be higher than zero\");\n        \n        _nft.transferFrom(msg.sender, address(this), _tokenId);\n\n        items[itemCount] = Item(itemCount,\n        _nft,\n        _tokenId,\n        _bidStartPrice,\n        _auctionDuration,\n        _buyoutPrice,\n        payable(msg.sender),\n        Bid(address(0),0),\n        false,\n        block.timestamp);\n\n        emit Listed(\n            itemCount,\n            address(_nft),\n            _tokenId,\n            _bidStartPrice,\n            _auctionDuration,\n            _buyoutPrice,\n            msg.sender,\n            block.timestamp\n        );\n\n        itemsForSale.push(itemCount);\n        itemCount ++;\n\n    }\n\n\n    function buyoutItem(uint _itemId) external payable nonReentrant {\n        _processBuyout(_itemId, msg.value);\n    }\n\n    // TODO lock funds and release after bid is overriden?????\n    function makeBidOnItem(uint _itemId) external payable nonReentrant {\n        \n        Item storage item = items[_itemId];\n        require(msg.sender != item.seller, \"Seller is not allowed to make bids\");\n        require(!item.sold, \"Item not for sale anymore\");  \n        if(item.lastBid.amount == 0) { // First bid\n            require(msg.value >= item.bidStartPrice, \"Amount provided is lower than minimum bid price\");\n        } else { // Subsequent bids\n            require(msg.value > item.lastBid.amount, \"Amount provided is lower or equal to last bid\");\n        }\n        \n        // In case this is the first bid, jump over this\n        if(item.lastBid.bidder != address(0)) _refundLastBid(item);\n        \n        // Update bid values\n        item.lastBid.amount = msg.value;\n        item.lastBid.bidder = msg.sender;\n\n        emit BidRequest(\n            _itemId,\n            msg.sender,\n            msg.value,\n            block.timestamp\n            );\n\n        // In case bid is higher that buyout, proceed with buyout\n        if(msg.value >= item.buyoutPrice) {\n            _closeAuction(item);\n        }\n\n    }\n\n    // Private utils\n\n    function _removeItemFromSalesArray(uint _itemId) private {\n        for (uint i = 0; i < itemsForSale.length; i++) {\n            if(itemsForSale[i] == _itemId) {\n                itemsForSale[i] = itemsForSale[itemsForSale.length -1];\n                itemsForSale.pop();\n            }\n        }\n    }\n\n    function _refundLastBid(Item storage item) private returns(bool) {\n        // Checks\n        Bid memory previousBid = Bid(item.lastBid.bidder, item.lastBid.amount);        \n        // Interactions\n        (bool success,) = payable(item.lastBid.bidder).call{value: item.lastBid.amount}(\"\"); // Full refund from last bid\n        if(success){\n            return success;\n        } else {\n            revert(\"Error transfering back last bid\");\n        }\n    }\n\n\n    function _closeAuction(Item storage item) private {\n\n        // In case no bid was made, return asset to user without any side effects\n        if(item.lastBid.amount == 0) {\n            _removeItemFromSalesArray(item.itemId);\n            item.nftContract.transferFrom(address(this),item.seller, item.tokenId);\n            return;\n        }\n\n        // Update item status\n        item.sold = true;\n        \n        // Transfer asset to final bidder\n        uint fee = getFee(item.itemId);\n        payable(item.seller).call{value:item.lastBid.amount - fee}(\"\");\n        payable(feeAccount).call{value: fee }(\"\");\n        item.nftContract.transferFrom(address(this), item.lastBid.bidder, item.tokenId);\n\n        _removeItemFromSalesArray(item.itemId);\n\n        emit ItemPurchased(\n            item.itemId,\n            address(item.nftContract),\n            item.tokenId,\n            item.buyoutPrice,\n            PurchaseType.HIGHEST_BID,\n            item.seller,\n            msg.sender,\n            block.timestamp\n            );\n    }\n\n\n    function _processBuyout(uint _itemId, uint _amount) private {\n        Item storage item = items[_itemId];\n        // Checks\n        require(_itemId >= 0 && _itemId <= itemCount, \"No such item listed\");\n        require(_amount >= item.buyoutPrice, \"Not enough funds to cover for price and market fee\");\n        require(!item.sold, \"Item not for sale anymore\");  \n        // Effects\n        item.sold = true;      \n        // Interactions\n        uint fee = getFee(_itemId);\n        payable(item.seller).call{value:item.buyoutPrice - fee}(\"\");\n        payable(feeAccount).call{value: fee }(\"\");\n        item.nftContract.transferFrom(address(this), msg.sender, item.tokenId);\n        _removeItemFromSalesArray(_itemId);\n        emit ItemPurchased(\n            _itemId,\n            address(item.nftContract),\n            item.tokenId,\n            item.buyoutPrice,\n            PurchaseType.BUYOUT,\n            item.seller,\n            msg.sender,\n            block.timestamp\n            );\n    }\n\n\n    // View functions\n\n    function getFee(uint _itemId) view public returns(uint) {\n        return(items[_itemId].buyoutPrice*feePercentage/100);\n    }\n\n    function listItems() view external returns(Item[] memory) {\n        Item[] memory itemsToReturn = new Item[](itemCount);\n        for (uint i = 0; i < itemCount; i++) {\n            Item storage item = items[i];\n            itemsToReturn[i] = item;\n        }\n        return itemsToReturn;\n    }\n\n    function listItemsForSale() view public returns(uint[] memory) {\n        return itemsForSale;\n    }\n\n    // Keeper Functions\n\n    function checkUpkeep(bytes calldata /* checkData */) external view override returns (bool upkeepNeeded, bytes memory performData) {\n        uint[] memory scanArray = new uint[](itemsForSale.length);\n        uint auctionsToCloseCount = 0;\n        for(uint i=0; i < itemsForSale.length; i++) {\n            if(block.timestamp - items[itemsForSale[i]].auctonStartTimestamp >= items[itemsForSale[i]].auctionDuration) {\n                scanArray[auctionsToCloseCount] = itemsForSale[i];\n                auctionsToCloseCount ++;\n            }\n        }\n        uint[] memory auctionsToClose = new uint[](auctionsToCloseCount);\n        for(uint a=0; a< auctionsToCloseCount; a++) {\n            auctionsToClose[a] = scanArray[a];\n        } \n        performData = abi.encode(auctionsToClose);\n        \n        upkeepNeeded = auctionsToClose.length > 0;\n        // We don't use the checkData in this example. The checkData is defined when the Upkeep was registered.\n    }\n\n\n    function performUpkeep(bytes calldata  performData ) external override {\n        //We highly recommend revalidating the upkeep in the performUpkeep function\n        uint[] memory auctionsToClose = abi.decode(performData, (uint[]));\n        for (uint i = 0; i < auctionsToClose.length; i++) {\n            _closeAuction(items[auctionsToClose[i]]);\n          \n        }\n    }    \n\n\n\n\n\n}",
    "sourcePath": "contracts/Marketplace.sol",
    "type": "contract"
}